{
  "contractName": "DeviceManager",
  "abi": [
    {
      "constant": true,
      "inputs": [
        {
          "name": "interfaceId",
          "type": "bytes4"
        }
      ],
      "name": "supportsInterface",
      "outputs": [
        {
          "name": "",
          "type": "bool"
        }
      ],
      "payable": false,
      "stateMutability": "view",
      "type": "function"
    },
    {
      "constant": true,
      "inputs": [],
      "name": "name",
      "outputs": [
        {
          "name": "",
          "type": "string"
        }
      ],
      "payable": false,
      "stateMutability": "view",
      "type": "function"
    },
    {
      "constant": true,
      "inputs": [
        {
          "name": "tokenId",
          "type": "uint256"
        }
      ],
      "name": "getApproved",
      "outputs": [
        {
          "name": "",
          "type": "address"
        }
      ],
      "payable": false,
      "stateMutability": "view",
      "type": "function"
    },
    {
      "constant": false,
      "inputs": [
        {
          "name": "to",
          "type": "address"
        },
        {
          "name": "tokenId",
          "type": "uint256"
        }
      ],
      "name": "approve",
      "outputs": [],
      "payable": false,
      "stateMutability": "nonpayable",
      "type": "function"
    },
    {
      "constant": true,
      "inputs": [],
      "name": "totalSupply",
      "outputs": [
        {
          "name": "",
          "type": "uint256"
        }
      ],
      "payable": false,
      "stateMutability": "view",
      "type": "function"
    },
    {
      "constant": false,
      "inputs": [
        {
          "name": "from",
          "type": "address"
        },
        {
          "name": "to",
          "type": "address"
        },
        {
          "name": "tokenId",
          "type": "uint256"
        }
      ],
      "name": "transferFrom",
      "outputs": [],
      "payable": false,
      "stateMutability": "nonpayable",
      "type": "function"
    },
    {
      "constant": true,
      "inputs": [
        {
          "name": "owner",
          "type": "address"
        },
        {
          "name": "index",
          "type": "uint256"
        }
      ],
      "name": "tokenOfOwnerByIndex",
      "outputs": [
        {
          "name": "",
          "type": "uint256"
        }
      ],
      "payable": false,
      "stateMutability": "view",
      "type": "function"
    },
    {
      "constant": false,
      "inputs": [
        {
          "name": "to",
          "type": "address"
        },
        {
          "name": "tokenId",
          "type": "uint256"
        }
      ],
      "name": "mint",
      "outputs": [
        {
          "name": "",
          "type": "bool"
        }
      ],
      "payable": false,
      "stateMutability": "nonpayable",
      "type": "function"
    },
    {
      "constant": false,
      "inputs": [
        {
          "name": "from",
          "type": "address"
        },
        {
          "name": "to",
          "type": "address"
        },
        {
          "name": "tokenId",
          "type": "uint256"
        }
      ],
      "name": "safeTransferFrom",
      "outputs": [],
      "payable": false,
      "stateMutability": "nonpayable",
      "type": "function"
    },
    {
      "constant": true,
      "inputs": [
        {
          "name": "index",
          "type": "uint256"
        }
      ],
      "name": "tokenByIndex",
      "outputs": [
        {
          "name": "",
          "type": "uint256"
        }
      ],
      "payable": false,
      "stateMutability": "view",
      "type": "function"
    },
    {
      "constant": true,
      "inputs": [
        {
          "name": "tokenId",
          "type": "uint256"
        }
      ],
      "name": "ownerOf",
      "outputs": [
        {
          "name": "",
          "type": "address"
        }
      ],
      "payable": false,
      "stateMutability": "view",
      "type": "function"
    },
    {
      "constant": true,
      "inputs": [
        {
          "name": "owner",
          "type": "address"
        }
      ],
      "name": "balanceOf",
      "outputs": [
        {
          "name": "",
          "type": "uint256"
        }
      ],
      "payable": false,
      "stateMutability": "view",
      "type": "function"
    },
    {
      "constant": false,
      "inputs": [
        {
          "name": "to",
          "type": "address"
        },
        {
          "name": "tokenId",
          "type": "uint256"
        },
        {
          "name": "_data",
          "type": "bytes"
        }
      ],
      "name": "safeMint",
      "outputs": [
        {
          "name": "",
          "type": "bool"
        }
      ],
      "payable": false,
      "stateMutability": "nonpayable",
      "type": "function"
    },
    {
      "constant": true,
      "inputs": [],
      "name": "symbol",
      "outputs": [
        {
          "name": "",
          "type": "string"
        }
      ],
      "payable": false,
      "stateMutability": "view",
      "type": "function"
    },
    {
      "constant": false,
      "inputs": [
        {
          "name": "account",
          "type": "address"
        }
      ],
      "name": "addMinter",
      "outputs": [],
      "payable": false,
      "stateMutability": "nonpayable",
      "type": "function"
    },
    {
      "constant": false,
      "inputs": [],
      "name": "renounceMinter",
      "outputs": [],
      "payable": false,
      "stateMutability": "nonpayable",
      "type": "function"
    },
    {
      "constant": false,
      "inputs": [
        {
          "name": "to",
          "type": "address"
        },
        {
          "name": "tokenId",
          "type": "uint256"
        }
      ],
      "name": "safeMint",
      "outputs": [
        {
          "name": "",
          "type": "bool"
        }
      ],
      "payable": false,
      "stateMutability": "nonpayable",
      "type": "function"
    },
    {
      "constant": false,
      "inputs": [
        {
          "name": "to",
          "type": "address"
        },
        {
          "name": "approved",
          "type": "bool"
        }
      ],
      "name": "setApprovalForAll",
      "outputs": [],
      "payable": false,
      "stateMutability": "nonpayable",
      "type": "function"
    },
    {
      "constant": true,
      "inputs": [
        {
          "name": "account",
          "type": "address"
        }
      ],
      "name": "isMinter",
      "outputs": [
        {
          "name": "",
          "type": "bool"
        }
      ],
      "payable": false,
      "stateMutability": "view",
      "type": "function"
    },
    {
      "constant": false,
      "inputs": [
        {
          "name": "from",
          "type": "address"
        },
        {
          "name": "to",
          "type": "address"
        },
        {
          "name": "tokenId",
          "type": "uint256"
        },
        {
          "name": "_data",
          "type": "bytes"
        }
      ],
      "name": "safeTransferFrom",
      "outputs": [],
      "payable": false,
      "stateMutability": "nonpayable",
      "type": "function"
    },
    {
      "constant": true,
      "inputs": [
        {
          "name": "tokenId",
          "type": "uint256"
        }
      ],
      "name": "tokenURI",
      "outputs": [
        {
          "name": "",
          "type": "string"
        }
      ],
      "payable": false,
      "stateMutability": "view",
      "type": "function"
    },
    {
      "constant": true,
      "inputs": [
        {
          "name": "owner",
          "type": "address"
        },
        {
          "name": "operator",
          "type": "address"
        }
      ],
      "name": "isApprovedForAll",
      "outputs": [
        {
          "name": "",
          "type": "bool"
        }
      ],
      "payable": false,
      "stateMutability": "view",
      "type": "function"
    },
    {
      "inputs": [],
      "payable": false,
      "stateMutability": "nonpayable",
      "type": "constructor"
    },
    {
      "anonymous": false,
      "inputs": [
        {
          "indexed": true,
          "name": "account",
          "type": "address"
        }
      ],
      "name": "MinterAdded",
      "type": "event"
    },
    {
      "anonymous": false,
      "inputs": [
        {
          "indexed": true,
          "name": "account",
          "type": "address"
        }
      ],
      "name": "MinterRemoved",
      "type": "event"
    },
    {
      "anonymous": false,
      "inputs": [
        {
          "indexed": true,
          "name": "from",
          "type": "address"
        },
        {
          "indexed": true,
          "name": "to",
          "type": "address"
        },
        {
          "indexed": true,
          "name": "tokenId",
          "type": "uint256"
        }
      ],
      "name": "Transfer",
      "type": "event"
    },
    {
      "anonymous": false,
      "inputs": [
        {
          "indexed": true,
          "name": "owner",
          "type": "address"
        },
        {
          "indexed": true,
          "name": "approved",
          "type": "address"
        },
        {
          "indexed": true,
          "name": "tokenId",
          "type": "uint256"
        }
      ],
      "name": "Approval",
      "type": "event"
    },
    {
      "anonymous": false,
      "inputs": [
        {
          "indexed": true,
          "name": "owner",
          "type": "address"
        },
        {
          "indexed": true,
          "name": "operator",
          "type": "address"
        },
        {
          "indexed": false,
          "name": "approved",
          "type": "bool"
        }
      ],
      "name": "ApprovalForAll",
      "type": "event"
    },
    {
      "constant": true,
      "inputs": [
        {
          "name": "device_id",
          "type": "uint256"
        }
      ],
      "name": "get_hardwareId",
      "outputs": [
        {
          "name": "",
          "type": "address"
        }
      ],
      "payable": false,
      "stateMutability": "view",
      "type": "function"
    },
    {
      "constant": true,
      "inputs": [
        {
          "name": "hardwareId",
          "type": "address"
        }
      ],
      "name": "get_deviceId_by_hardwareId",
      "outputs": [
        {
          "name": "",
          "type": "uint256"
        }
      ],
      "payable": false,
      "stateMutability": "view",
      "type": "function"
    },
    {
      "constant": true,
      "inputs": [
        {
          "name": "device_id",
          "type": "uint256"
        }
      ],
      "name": "get_uri",
      "outputs": [
        {
          "name": "",
          "type": "string"
        }
      ],
      "payable": false,
      "stateMutability": "view",
      "type": "function"
    },
    {
      "constant": true,
      "inputs": [
        {
          "name": "device_id",
          "type": "uint256"
        }
      ],
      "name": "get_parts",
      "outputs": [
        {
          "name": "",
          "type": "uint256[]"
        }
      ],
      "payable": false,
      "stateMutability": "view",
      "type": "function"
    },
    {
      "constant": true,
      "inputs": [
        {
          "name": "device_id",
          "type": "uint256"
        }
      ],
      "name": "get_assembly",
      "outputs": [
        {
          "name": "",
          "type": "uint256"
        }
      ],
      "payable": false,
      "stateMutability": "view",
      "type": "function"
    },
    {
      "constant": false,
      "inputs": [
        {
          "name": "hardwareId",
          "type": "address"
        },
        {
          "name": "uri",
          "type": "string"
        }
      ],
      "name": "produce",
      "outputs": [
        {
          "name": "",
          "type": "uint256"
        }
      ],
      "payable": false,
      "stateMutability": "nonpayable",
      "type": "function"
    },
    {
      "constant": false,
      "inputs": [
        {
          "name": "parts",
          "type": "uint256[]"
        },
        {
          "name": "hardwareId_index",
          "type": "uint256"
        },
        {
          "name": "uri",
          "type": "string"
        }
      ],
      "name": "assemble",
      "outputs": [
        {
          "name": "",
          "type": "uint256"
        }
      ],
      "payable": false,
      "stateMutability": "nonpayable",
      "type": "function"
    },
    {
      "constant": false,
      "inputs": [
        {
          "name": "device_id",
          "type": "uint256"
        }
      ],
      "name": "disassemble",
      "outputs": [
        {
          "name": "",
          "type": "uint256[]"
        }
      ],
      "payable": false,
      "stateMutability": "nonpayable",
      "type": "function"
    },
    {
      "constant": false,
      "inputs": [
        {
          "name": "device_id",
          "type": "uint256"
        }
      ],
      "name": "disposal",
      "outputs": [],
      "payable": false,
      "stateMutability": "nonpayable",
      "type": "function"
    }
  ],
  "bytecode": "0x60806040526040518060200160405280600081525060126000820151816000015550503480156200002f57600080fd5b506040518060400160405280600681526020017f44657669636500000000000000000000000000000000000000000000000000008152506040518060400160405280600681526020017f44455649434500000000000000000000000000000000000000000000000000008152508181620000b66301ffc9a760e01b6200015a60201b60201c565b620000ce6380ac58cd60e01b6200015a60201b60201c565b620000e663780e9d6360e01b6200015a60201b60201c565b8160099080519060200190620000fe92919062000496565b5080600a90805190602001906200011792919062000496565b5062000130635b5e139f60e01b6200015a60201b60201c565b5050505062000154620001486200026560201b60201c565b6200026d60201b60201c565b62000545565b63ffffffff60e01b817bffffffffffffffffffffffffffffffffffffffffffffffffffffffff191614151515620001f9576040517f08c379a000000000000000000000000000000000000000000000000000000000815260040180806020018281038252601c8152602001807f4552433136353a20696e76616c696420696e746572666163652069640000000081525060200191505060405180910390fd5b6001600080837bffffffffffffffffffffffffffffffffffffffffffffffffffffffff19167bffffffffffffffffffffffffffffffffffffffffffffffffffffffff1916815260200190815260200160002060006101000a81548160ff02191690831515021790555050565b600033905090565b6200028881600c620002ce60201b62003ff11790919060201c565b8073ffffffffffffffffffffffffffffffffffffffff167f6ae172837ea30b801fbfcdd4108aa1d5bf8ff775444fd70256b44e6bf3dfc3f660405160405180910390a250565b620002e08282620003b460201b60201c565b15151562000356576040517f08c379a000000000000000000000000000000000000000000000000000000000815260040180806020018281038252601f8152602001807f526f6c65733a206163636f756e7420616c72656164792068617320726f6c650081525060200191505060405180910390fd5b60018260000160008373ffffffffffffffffffffffffffffffffffffffff1673ffffffffffffffffffffffffffffffffffffffff16815260200190815260200160002060006101000a81548160ff0219169083151502179055505050565b60008073ffffffffffffffffffffffffffffffffffffffff168273ffffffffffffffffffffffffffffffffffffffff16141515156200043f576040517f08c379a0000000000000000000000000000000000000000000000000000000008152600401808060200182810382526022815260200180620051096022913960400191505060405180910390fd5b8260000160008373ffffffffffffffffffffffffffffffffffffffff1673ffffffffffffffffffffffffffffffffffffffff16815260200190815260200160002060009054906101000a900460ff16905092915050565b828054600181600116156101000203166002900490600052602060002090601f016020900481019282601f10620004d957805160ff19168380011785556200050a565b828001600101855582156200050a579182015b8281111562000509578251825591602001919060010190620004ec565b5b5090506200051991906200051d565b5090565b6200054291905b808211156200053e57600081600090555060010162000524565b5090565b90565b614bb480620005556000396000f3fe608060405234801561001057600080fd5b50600436106101e55760003560e01c806370a082311161010f578063ac67dde8116100a2578063c87b56dd11610071578063c87b56dd14610ea1578063df12ce8814610f48578063e36aebce14610fcb578063e985e9c514611023576101e5565b8063ac67dde814610bfd578063b432c9c514610c3f578063b88d4fde14610d2e578063ba36d2f814610e33576101e5565b806398650275116100de5780639865027514610ae1578063a144819414610aeb578063a22cb46514610b51578063aa271e1a14610ba1576101e5565b806370a08231146108c55780638832e6e31461091d57806395d89b4114610a1a578063983b2d5614610a9d576101e5565b806319671e4c1161018757806340e9cfd71161015657806340e9cfd71461070057806342842e0e146107a75780634f6ccce7146108155780636352211e14610857576101e5565b806319671e4c1461045d57806323b872dd146105ca5780632f745c591461063857806340c10f191461069a576101e5565b806307dde831116101c357806307dde83114610300578063081812fc14610383578063095ea7b3146103f157806318160ddd1461043f576101e5565b806301ffc9a7146101ea57806303c94ee51461024f57806306fdde031461027d575b600080fd5b6102356004803603602081101561020057600080fd5b8101908080357bffffffffffffffffffffffffffffffffffffffffffffffffffffffff1916906020019092919050505061109f565b604051808215151515815260200191505060405180910390f35b61027b6004803603602081101561026557600080fd5b8101908080359060200190929190505050611106565b005b61028561123a565b6040518080602001828103825283818151815260200191508051906020019080838360005b838110156102c55780820151818401526020810190506102aa565b50505050905090810190601f1680156102f25780820380516001836020036101000a031916815260200191505b509250505060405180910390f35b61032c6004803603602081101561031657600080fd5b81019080803590602001909291905050506112dc565b6040518080602001828103825283818151815260200191508051906020019060200280838360005b8381101561036f578082015181840152602081019050610354565b505050509050019250505060405180910390f35b6103af6004803603602081101561039957600080fd5b81019080803590602001909291905050506113c0565b604051808273ffffffffffffffffffffffffffffffffffffffff1673ffffffffffffffffffffffffffffffffffffffff16815260200191505060405180910390f35b61043d6004803603604081101561040757600080fd5b81019080803573ffffffffffffffffffffffffffffffffffffffff1690602001909291908035906020019092919050505061145d565b005b610447611648565b6040518082815260200191505060405180910390f35b6105b46004803603606081101561047357600080fd5b810190808035906020019064010000000081111561049057600080fd5b8201836020820111156104a257600080fd5b803590602001918460208302840111640100000000831117156104c457600080fd5b919080806020026020016040519081016040528093929190818152602001838360200280828437600081840152601f19601f820116905080830192505050505050509192919290803590602001909291908035906020019064010000000081111561052e57600080fd5b82018360208201111561054057600080fd5b8035906020019184600183028401116401000000008311171561056257600080fd5b91908080601f016020809104026020016040519081016040528093929190818152602001838380828437600081840152601f19601f820116905080830192505050505050509192919290505050611655565b6040518082815260200191505060405180910390f35b610636600480360360608110156105e057600080fd5b81019080803573ffffffffffffffffffffffffffffffffffffffff169060200190929190803573ffffffffffffffffffffffffffffffffffffffff16906020019092919080359060200190929190505050611b8f565b005b6106846004803603604081101561064e57600080fd5b81019080803573ffffffffffffffffffffffffffffffffffffffff16906020019092919080359060200190929190505050611c07565b6040518082815260200191505060405180910390f35b6106e6600480360360408110156106b057600080fd5b81019080803573ffffffffffffffffffffffffffffffffffffffff16906020019092919080359060200190929190505050611cca565b604051808215151515815260200191505060405180910390f35b61072c6004803603602081101561071657600080fd5b8101908080359060200190929190505050611d47565b6040518080602001828103825283818151815260200191508051906020019080838360005b8381101561076c578082015181840152602081019050610751565b50505050905090810190601f1680156107995780820380516001836020036101000a031916815260200191505b509250505060405180910390f35b610813600480360360608110156107bd57600080fd5b81019080803573ffffffffffffffffffffffffffffffffffffffff169060200190929190803573ffffffffffffffffffffffffffffffffffffffff16906020019092919080359060200190929190505050611e75565b005b6108416004803603602081101561082b57600080fd5b8101908080359060200190929190505050611e95565b6040518082815260200191505060405180910390f35b6108836004803603602081101561086d57600080fd5b8101908080359060200190929190505050611f19565b604051808273ffffffffffffffffffffffffffffffffffffffff1673ffffffffffffffffffffffffffffffffffffffff16815260200191505060405180910390f35b610907600480360360208110156108db57600080fd5b81019080803573ffffffffffffffffffffffffffffffffffffffff169060200190929190505050611fe3565b6040518082815260200191505060405180910390f35b610a006004803603606081101561093357600080fd5b81019080803573ffffffffffffffffffffffffffffffffffffffff169060200190929190803590602001909291908035906020019064010000000081111561097a57600080fd5b82018360208201111561098c57600080fd5b803590602001918460018302840111640100000000831117156109ae57600080fd5b91908080601f016020809104026020016040519081016040528093929190818152602001838380828437600081840152601f19601f8201169050808301925050505050505091929192905050506120ba565b604051808215151515815260200191505060405180910390f35b610a22612139565b6040518080602001828103825283818151815260200191508051906020019080838360005b83811015610a62578082015181840152602081019050610a47565b50505050905090810190601f168015610a8f5780820380516001836020036101000a031916815260200191505b509250505060405180910390f35b610adf60048036036020811015610ab357600080fd5b81019080803573ffffffffffffffffffffffffffffffffffffffff1690602001909291905050506121db565b005b610ae961224e565b005b610b3760048036036040811015610b0157600080fd5b81019080803573ffffffffffffffffffffffffffffffffffffffff16906020019092919080359060200190929190505050612260565b604051808215151515815260200191505060405180910390f35b610b9f60048036036040811015610b6757600080fd5b81019080803573ffffffffffffffffffffffffffffffffffffffff1690602001909291908035151590602001909291905050506122dd565b005b610be360048036036020811015610bb757600080fd5b81019080803573ffffffffffffffffffffffffffffffffffffffff169060200190929190505050612497565b604051808215151515815260200191505060405180910390f35b610c2960048036036020811015610c1357600080fd5b81019080803590602001909291905050506124b4565b6040518082815260200191505060405180910390f35b610d1860048036036040811015610c5557600080fd5b81019080803573ffffffffffffffffffffffffffffffffffffffff16906020019092919080359060200190640100000000811115610c9257600080fd5b820183602082011115610ca457600080fd5b80359060200191846001830284011164010000000083111715610cc657600080fd5b91908080601f016020809104026020016040519081016040528093929190818152602001838380828437600081840152601f19601f820116905080830192505050505050509192919290505050612549565b6040518082815260200191505060405180910390f35b610e3160048036036080811015610d4457600080fd5b81019080803573ffffffffffffffffffffffffffffffffffffffff169060200190929190803573ffffffffffffffffffffffffffffffffffffffff1690602001909291908035906020019092919080359060200190640100000000811115610dab57600080fd5b820183602082011115610dbd57600080fd5b80359060200191846001830284011164010000000083111715610ddf57600080fd5b91908080601f016020809104026020016040519081016040528093929190818152602001838380828437600081840152601f19601f8201169050808301925050505050505091929192905050506127bf565b005b610e5f60048036036020811015610e4957600080fd5b8101908080359060200190929190505050612839565b604051808273ffffffffffffffffffffffffffffffffffffffff1673ffffffffffffffffffffffffffffffffffffffff16815260200191505060405180910390f35b610ecd60048036036020811015610eb757600080fd5b81019080803590602001909291905050506128ee565b6040518080602001828103825283818151815260200191508051906020019080838360005b83811015610f0d578082015181840152602081019050610ef2565b50505050905090810190601f168015610f3a5780820380516001836020036101000a031916815260200191505b509250505060405180910390f35b610f7460048036036020811015610f5e57600080fd5b8101908080359060200190929190505050612a03565b6040518080602001828103825283818151815260200191508051906020019060200280838360005b83811015610fb7578082015181840152602081019050610f9c565b505050509050019250505060405180910390f35b61100d60048036036020811015610fe157600080fd5b81019080803573ffffffffffffffffffffffffffffffffffffffff169060200190929190505050612de6565b6040518082815260200191505060405180910390f35b6110856004803603604081101561103957600080fd5b81019080803573ffffffffffffffffffffffffffffffffffffffff169060200190929190803573ffffffffffffffffffffffffffffffffffffffff169060200190929190505050612ed3565b604051808215151515815260200191505060405180910390f35b6000806000837bffffffffffffffffffffffffffffffffffffffffffffffffffffffff19167bffffffffffffffffffffffffffffffffffffffffffffffffffffffff1916815260200190815260200160002060009054906101000a900460ff169050919050565b6000811415151561117f576040517f08c379a00000000000000000000000000000000000000000000000000000000081526004018080602001828103825260188152602001807f676976656e20646576696365206964206973207a65726f2e000000000000000081525060200191505060405180910390fd5b600060116000838152602001908152602001600020541415156111ed576040517f08c379a0000000000000000000000000000000000000000000000000000000008152600401808060200182810382526027815260200180614a4c6027913960400191505060405180910390fd5b6000601060008381526020019081526020016000208054905014156112235761121581612f67565b61121e81613060565b611237565b61122c81612a03565b5061123681611106565b5b50565b606060098054600181600116156101000203166002900480601f0160208091040260200160405190810160405280929190818152602001828054600181600116156101000203166002900480156112d25780601f106112a7576101008083540402835291602001916112d2565b820191906000526020600020905b8154815290600101906020018083116112b557829003601f168201915b5050505050905090565b606060008214151515611357576040517f08c379a00000000000000000000000000000000000000000000000000000000081526004018080602001828103825260188152602001807f676976656e20646576696365206964206973207a65726f2e000000000000000081525060200191505060405180910390fd5b601060008381526020019081526020016000208054806020026020016040519081016040528092919081815260200182805480156113b457602002820191906000526020600020905b8154815260200190600101908083116113a0575b50505050509050919050565b60006113cb8261316b565b1515611422576040517f08c379a000000000000000000000000000000000000000000000000000000000815260040180806020018281038252602c815260200180614956602c913960400191505060405180910390fd5b6002600083815260200190815260200160002060009054906101000a900473ffffffffffffffffffffffffffffffffffffffff169050919050565b600061146882611f19565b90508073ffffffffffffffffffffffffffffffffffffffff168373ffffffffffffffffffffffffffffffffffffffff16141515156114f1576040517f08c379a0000000000000000000000000000000000000000000000000000000008152600401808060200182810382526021815260200180614a736021913960400191505060405180910390fd5b8073ffffffffffffffffffffffffffffffffffffffff166115106131dd565b73ffffffffffffffffffffffffffffffffffffffff16148061153f575061153e816115396131dd565b612ed3565b5b1515611596576040517f08c379a000000000000000000000000000000000000000000000000000000000815260040180806020018281038252603881526020018061487a6038913960400191505060405180910390fd5b826002600084815260200190815260200160002060006101000a81548173ffffffffffffffffffffffffffffffffffffffff021916908373ffffffffffffffffffffffffffffffffffffffff160217905550818373ffffffffffffffffffffffffffffffffffffffff168273ffffffffffffffffffffffffffffffffffffffff167f8c5be1e5ebec7d5bd14f71427d1e84f3dd0314c0f7b2291e5b200ac8c7c3b92560405160405180910390a4505050565b6000600780549050905090565b600080845190506000811115156116d4576040517f08c379a000000000000000000000000000000000000000000000000000000000815260040180806020018281038252601c8152602001807f746865206e756d626572206f66207061727473206973207a65726f2e0000000081525060200191505060405180910390fd5b600084101580156116e457508084105b1515611758576040517f08c379a00000000000000000000000000000000000000000000000000000000081526004018080602001828103825260198152602001807f696e76616c6964206861726477617265496420696e6465782e0000000000000081525060200191505060405180910390fd5b600030905060008090505b828110156119ab576000878281518110151561177b57fe5b90602001906020020151141515156117fb576040517f08c379a00000000000000000000000000000000000000000000000000000000081526004018080602001828103825260168152602001807f7061727420746f6b656e206964206973207a65726f2e0000000000000000000081525060200191505060405180910390fd5b600060116000898481518110151561180f57fe5b90602001906020020151815260200190815260200160002054141515611880576040517f08c379a000000000000000000000000000000000000000000000000000000000815260040180806020018281038252602d815260200180614a94602d913960400191505060405180910390fd5b6118a23383898481518110151561189357fe5b90602001906020020151611e75565b6118c287828151811015156118b357fe5b90602001906020020151611f19565b73ffffffffffffffffffffffffffffffffffffffff163373ffffffffffffffffffffffffffffffffffffffff16141580156119475750611918878281518110151561190957fe5b90602001906020020151611f19565b73ffffffffffffffffffffffffffffffffffffffff168273ffffffffffffffffffffffffffffffffffffffff16145b151561199e576040517f08c379a0000000000000000000000000000000000000000000000000000000008152600401808060200182810382526021815260200180614ac16021913960400191505060405180910390fd5b8080600101915050611763565b6000600d600089898151811015156119bf57fe5b90602001906020020151815260200190815260200160002060009054906101000a900473ffffffffffffffffffffffffffffffffffffffff1690506000611a068288612549565b905060008114151515611a81576040517f08c379a000000000000000000000000000000000000000000000000000000000815260040180806020018281038252601b8152602001807f617373656d626c656420746f6b656e206964206973207a65726f2e000000000081525060200191505060405180910390fd5b611a8a81611f19565b73ffffffffffffffffffffffffffffffffffffffff163373ffffffffffffffffffffffffffffffffffffffff16141515611b0f576040517f08c379a0000000000000000000000000000000000000000000000000000000008152600401808060200182810382526025815260200180614b136025913960400191505060405180910390fd5b88601060008381526020019081526020016000209080519060200190611b36929190614666565b50600092505b84831015611b805780601160008b86815181101515611b5757fe5b906020019060200201518152602001908152602001600020819055508280600101935050611b3c565b80955050505050509392505050565b611ba0611b9a6131dd565b826131e5565b1515611bf7576040517f08c379a0000000000000000000000000000000000000000000000000000000008152600401808060200182810382526031815260200180614ae26031913960400191505060405180910390fd5b611c028383836132db565b505050565b6000611c1283611fe3565b82101515611c6b576040517f08c379a000000000000000000000000000000000000000000000000000000000815260040180806020018281038252602b8152602001806147cd602b913960400191505060405180910390fd5b600560008473ffffffffffffffffffffffffffffffffffffffff1673ffffffffffffffffffffffffffffffffffffffff16815260200190815260200160002082815481101515611cb757fe5b9060005260206000200154905092915050565b6000611cdc611cd76131dd565b612497565b1515611d33576040517f08c379a00000000000000000000000000000000000000000000000000000000081526004018080602001828103825260308152602001806149056030913960400191505060405180910390fd5b611d3d83836132ff565b6001905092915050565b606060008214151515611dc2576040517f08c379a00000000000000000000000000000000000000000000000000000000081526004018080602001828103825260188152602001807f676976656e20646576696365206964206973207a65726f2e000000000000000081525060200191505060405180910390fd5b600f60008381526020019081526020016000208054600181600116156101000203166002900480601f016020809104026020016040519081016040528092919081815260200182805460018160011615610100020316600290048015611e695780601f10611e3e57610100808354040283529160200191611e69565b820191906000526020600020905b815481529060010190602001808311611e4c57829003601f168201915b50505050509050919050565b611e90838383604051806020016040528060008152506127bf565b505050565b6000611e9f611648565b82101515611ef8576040517f08c379a000000000000000000000000000000000000000000000000000000000815260040180806020018281038252602c815260200180614b38602c913960400191505060405180910390fd5b600782815481101515611f0757fe5b90600052602060002001549050919050565b6000806001600084815260200190815260200160002060009054906101000a900473ffffffffffffffffffffffffffffffffffffffff169050600073ffffffffffffffffffffffffffffffffffffffff168173ffffffffffffffffffffffffffffffffffffffff1614151515611fda576040517f08c379a00000000000000000000000000000000000000000000000000000000081526004018080602001828103825260298152602001806148dc6029913960400191505060405180910390fd5b80915050919050565b60008073ffffffffffffffffffffffffffffffffffffffff168273ffffffffffffffffffffffffffffffffffffffff161415151561206c576040517f08c379a000000000000000000000000000000000000000000000000000000000815260040180806020018281038252602a8152602001806148b2602a913960400191505060405180910390fd5b6120b3600360008473ffffffffffffffffffffffffffffffffffffffff1673ffffffffffffffffffffffffffffffffffffffff168152602001908152602001600020613320565b9050919050565b60006120cc6120c76131dd565b612497565b1515612123576040517f08c379a00000000000000000000000000000000000000000000000000000000081526004018080602001828103825260308152602001806149056030913960400191505060405180910390fd5b61212e84848461332e565b600190509392505050565b6060600a8054600181600116156101000203166002900480601f0160208091040260200160405190810160405280929190818152602001828054600181600116156101000203166002900480156121d15780601f106121a6576101008083540402835291602001916121d1565b820191906000526020600020905b8154815290600101906020018083116121b457829003601f168201915b5050505050905090565b6121eb6121e66131dd565b612497565b1515612242576040517f08c379a00000000000000000000000000000000000000000000000000000000081526004018080602001828103825260308152602001806149056030913960400191505060405180910390fd5b61224b816133a1565b50565b61225e6122596131dd565b6133fb565b565b600061227261226d6131dd565b612497565b15156122c9576040517f08c379a00000000000000000000000000000000000000000000000000000000081526004018080602001828103825260308152602001806149056030913960400191505060405180910390fd5b6122d38383613455565b6001905092915050565b6122e56131dd565b73ffffffffffffffffffffffffffffffffffffffff168273ffffffffffffffffffffffffffffffffffffffff1614151515612388576040517f08c379a00000000000000000000000000000000000000000000000000000000081526004018080602001828103825260198152602001807f4552433732313a20617070726f766520746f2063616c6c65720000000000000081525060200191505060405180910390fd5b80600460006123956131dd565b73ffffffffffffffffffffffffffffffffffffffff1673ffffffffffffffffffffffffffffffffffffffff16815260200190815260200160002060008473ffffffffffffffffffffffffffffffffffffffff1673ffffffffffffffffffffffffffffffffffffffff16815260200190815260200160002060006101000a81548160ff0219169083151502179055508173ffffffffffffffffffffffffffffffffffffffff166124426131dd565b73ffffffffffffffffffffffffffffffffffffffff167f17307eab39ab6107e8899845ad3d59bd9653f200f220920489ca2b5937696c3183604051808215151515815260200191505060405180910390a35050565b60006124ad82600c61347390919063ffffffff16565b9050919050565b600080821415151561252e576040517f08c379a00000000000000000000000000000000000000000000000000000000081526004018080602001828103825260188152602001807f676976656e20646576696365206964206973207a65726f2e000000000000000081525060200191505060405180910390fd5b60116000838152602001908152602001600020549050919050565b600080600e60008573ffffffffffffffffffffffffffffffffffffffff1673ffffffffffffffffffffffffffffffffffffffff168152602001908152602001600020541415156125e4576040517f08c379a0000000000000000000000000000000000000000000000000000000008152600401808060200182810382526024815260200180614a286024913960400191505060405180910390fd5b60006125ee613553565b905060008114151515612669576040517f08c379a00000000000000000000000000000000000000000000000000000000081526004018080602001828103825260118152602001807f746f6b656e206964206973207a65726f2e00000000000000000000000000000081525060200191505060405180910390fd5b60006126753383612260565b90508015156126ec576040517f08c379a00000000000000000000000000000000000000000000000000000000081526004018080602001828103825260188152602001807f6661696c20746f206d696e7420646576696365206e66742e000000000000000081525060200191505060405180910390fd5b84600d600084815260200190815260200160002060006101000a81548173ffffffffffffffffffffffffffffffffffffffff021916908373ffffffffffffffffffffffffffffffffffffffff16021790555081600e60008773ffffffffffffffffffffffffffffffffffffffff1673ffffffffffffffffffffffffffffffffffffffff1681526020019081526020016000208190555083600f600084815260200190815260200160002090805190602001906127a99291906146b3565b506127b4828561356e565b819250505092915050565b6127d06127ca6131dd565b836131e5565b1515612827576040517f08c379a0000000000000000000000000000000000000000000000000000000008152600401808060200182810382526031815260200180614ae26031913960400191505060405180910390fd5b612833848484846135fa565b50505050565b60008082141515156128b3576040517f08c379a00000000000000000000000000000000000000000000000000000000081526004018080602001828103825260188152602001807f676976656e20646576696365206964206973207a65726f2e000000000000000081525060200191505060405180910390fd5b600d600083815260200190815260200160002060009054906101000a900473ffffffffffffffffffffffffffffffffffffffff169050919050565b60606128f98261316b565b1515612950576040517f08c379a000000000000000000000000000000000000000000000000000000000815260040180806020018281038252602f8152602001806149f9602f913960400191505060405180910390fd5b600b60008381526020019081526020016000208054600181600116156101000203166002900480601f0160208091040260200160405190810160405280929190818152602001828054600181600116156101000203166002900480156129f75780601f106129cc576101008083540402835291602001916129f7565b820191906000526020600020905b8154815290600101906020018083116129da57829003601f168201915b50505050509050919050565b606060008214151515612a7e576040517f08c379a00000000000000000000000000000000000000000000000000000000081526004018080602001828103825260188152602001807f676976656e20646576696365206964206973207a65726f2e000000000000000081525060200191505060405180910390fd5b60006011600084815260200190815260200160002054141515612aec576040517f08c379a0000000000000000000000000000000000000000000000000000000008152600401808060200182810382526027815260200180614a4c6027913960400191505060405180910390fd5b6000309050612afa83612f67565b606060106000858152602001908152602001600020805480602002602001604051908101604052809291908181526020018280548015612b5957602002820191906000526020600020905b815481526020019060010190808311612b45575b5050505050905060008151905060008090505b81811015612d2f5760008382815181101515612b8457fe5b9060200190602002015114151515612c04576040517f08c379a00000000000000000000000000000000000000000000000000000000081526004018080602001828103825260168152602001807f7061727420746f6b656e206964206973207a65726f2e0000000000000000000081525060200191505060405180910390fd5b612c2684338584815181101515612c1757fe5b90602001906020020151611e75565b612c468382815181101515612c3757fe5b90602001906020020151611f19565b73ffffffffffffffffffffffffffffffffffffffff168473ffffffffffffffffffffffffffffffffffffffff1614158015612ccb5750612c9c8382815181101515612c8d57fe5b90602001906020020151611f19565b73ffffffffffffffffffffffffffffffffffffffff163373ffffffffffffffffffffffffffffffffffffffff16145b1515612d22576040517f08c379a0000000000000000000000000000000000000000000000000000000008152600401808060200182810382526021815260200180614ac16021913960400191505060405180910390fd5b8080600101915050612b6c565b612d3886613060565b6000604051908082528060200260200182016040528015612d685781602001602082028038833980820191505090505b50601060008881526020019081526020016000209080519060200190612d8f929190614666565b50600090505b81811015612dda576000601160008584815181101515612db157fe5b906020019060200201518152602001908152602001600020819055508080600101915050612d95565b82945050505050919050565b60008073ffffffffffffffffffffffffffffffffffffffff168273ffffffffffffffffffffffffffffffffffffffff1614151515612e8c576040517f08c379a00000000000000000000000000000000000000000000000000000000081526004018080602001828103825260188152602001807f676976656e20646576696365206964206973207a65726f2e000000000000000081525060200191505060405180910390fd5b600e60008373ffffffffffffffffffffffffffffffffffffffff1673ffffffffffffffffffffffffffffffffffffffff168152602001908152602001600020549050919050565b6000600460008473ffffffffffffffffffffffffffffffffffffffff1673ffffffffffffffffffffffffffffffffffffffff16815260200190815260200160002060008373ffffffffffffffffffffffffffffffffffffffff1673ffffffffffffffffffffffffffffffffffffffff16815260200190815260200160002060009054906101000a900460ff16905092915050565b612f71338261366e565b3373ffffffffffffffffffffffffffffffffffffffff16612f9182611f19565b73ffffffffffffffffffffffffffffffffffffffff1614158015612fe95750600073ffffffffffffffffffffffffffffffffffffffff16612fd182611f19565b73ffffffffffffffffffffffffffffffffffffffff16145b151561305d576040517f08c379a00000000000000000000000000000000000000000000000000000000081526004018080602001828103825260188152602001807f6661696c20746f206275726e20646576696365206e66742e000000000000000081525060200191505060405180910390fd5b50565b6000600d600083815260200190815260200160002060009054906101000a900473ffffffffffffffffffffffffffffffffffffffff1690506000600d600084815260200190815260200160002060006101000a81548173ffffffffffffffffffffffffffffffffffffffff021916908373ffffffffffffffffffffffffffffffffffffffff1602179055506000600e60008373ffffffffffffffffffffffffffffffffffffffff1673ffffffffffffffffffffffffffffffffffffffff1681526020019081526020016000208190555060405180602001604052806000815250600f600084815260200190815260200160002090805190602001906131669291906146b3565b505050565b6000806001600084815260200190815260200160002060009054906101000a900473ffffffffffffffffffffffffffffffffffffffff169050600073ffffffffffffffffffffffffffffffffffffffff168173ffffffffffffffffffffffffffffffffffffffff161415915050919050565b600033905090565b60006131f08261316b565b1515613247576040517f08c379a000000000000000000000000000000000000000000000000000000000815260040180806020018281038252602c81526020018061484e602c913960400191505060405180910390fd5b600061325283611f19565b90508073ffffffffffffffffffffffffffffffffffffffff168473ffffffffffffffffffffffffffffffffffffffff1614806132c157508373ffffffffffffffffffffffffffffffffffffffff166132a9846113c0565b73ffffffffffffffffffffffffffffffffffffffff16145b806132d257506132d18185612ed3565b5b91505092915050565b6132e68383836136cd565b6132f0838261392c565b6132fa8282613ad0565b505050565b6133098282613b97565b6133138282613ad0565b61331c81613db3565b5050565b600081600001549050919050565b61333883836132ff565b6133456000848484613dff565b151561339c576040517f08c379a00000000000000000000000000000000000000000000000000000000081526004018080602001828103825260328152602001806147f86032913960400191505060405180910390fd5b505050565b6133b581600c613ff190919063ffffffff16565b8073ffffffffffffffffffffffffffffffffffffffff167f6ae172837ea30b801fbfcdd4108aa1d5bf8ff775444fd70256b44e6bf3dfc3f660405160405180910390a250565b61340f81600c6140ce90919063ffffffff16565b8073ffffffffffffffffffffffffffffffffffffffff167fe94479a9f7e1952cc78f2d6baab678adc1b772d936c6583def489e524cb6669260405160405180910390a250565b61346f82826040518060200160405280600081525061332e565b5050565b60008073ffffffffffffffffffffffffffffffffffffffff168273ffffffffffffffffffffffffffffffffffffffff16141515156134fc576040517f08c379a00000000000000000000000000000000000000000000000000000000081526004018080602001828103825260228152602001806149ae6022913960400191505060405180910390fd5b8260000160008373ffffffffffffffffffffffffffffffffffffffff1673ffffffffffffffffffffffffffffffffffffffff16815260200190815260200160002060009054906101000a900460ff16905092915050565b600061355f601261418d565b6135696012613320565b905090565b6135778261316b565b15156135ce576040517f08c379a000000000000000000000000000000000000000000000000000000000815260040180806020018281038252602c815260200180614982602c913960400191505060405180910390fd5b80600b600084815260200190815260200160002090805190602001906135f59291906146b3565b505050565b6136058484846132db565b61361184848484613dff565b1515613668576040517f08c379a00000000000000000000000000000000000000000000000000000000081526004018080602001828103825260328152602001806147f86032913960400191505060405180910390fd5b50505050565b61367882826141a3565b6000600b60008381526020019081526020016000208054600181600116156101000203166002900490501415156136c957600b600082815260200190815260200160002060006136c89190614733565b5b5050565b8273ffffffffffffffffffffffffffffffffffffffff166136ed82611f19565b73ffffffffffffffffffffffffffffffffffffffff1614151561375b576040517f08c379a00000000000000000000000000000000000000000000000000000000081526004018080602001828103825260298152602001806149d06029913960400191505060405180910390fd5b600073ffffffffffffffffffffffffffffffffffffffff168273ffffffffffffffffffffffffffffffffffffffff16141515156137e3576040517f08c379a000000000000000000000000000000000000000000000000000000000815260040180806020018281038252602481526020018061482a6024913960400191505060405180910390fd5b6137ec816141dd565b613833600360008573ffffffffffffffffffffffffffffffffffffffff1673ffffffffffffffffffffffffffffffffffffffff16815260200190815260200160002061429d565b61387a600360008473ffffffffffffffffffffffffffffffffffffffff1673ffffffffffffffffffffffffffffffffffffffff16815260200190815260200160002061418d565b816001600083815260200190815260200160002060006101000a81548173ffffffffffffffffffffffffffffffffffffffff021916908373ffffffffffffffffffffffffffffffffffffffff160217905550808273ffffffffffffffffffffffffffffffffffffffff168473ffffffffffffffffffffffffffffffffffffffff167fddf252ad1be2c89b69c2b068fc378daa952ba7f163c4a11628f55a4df523b3ef60405160405180910390a4505050565b60006139846001600560008673ffffffffffffffffffffffffffffffffffffffff1673ffffffffffffffffffffffffffffffffffffffff168152602001908152602001600020805490506142c090919063ffffffff16565b90506000600660008481526020019081526020016000205490508181141515613a77576000600560008673ffffffffffffffffffffffffffffffffffffffff1673ffffffffffffffffffffffffffffffffffffffff168152602001908152602001600020838154811015156139f557fe5b9060005260206000200154905080600560008773ffffffffffffffffffffffffffffffffffffffff1673ffffffffffffffffffffffffffffffffffffffff16815260200190815260200160002083815481101515613a4f57fe5b9060005260206000200181905550816006600083815260200190815260200160002081905550505b600560008573ffffffffffffffffffffffffffffffffffffffff1673ffffffffffffffffffffffffffffffffffffffff168152602001908152602001600020805480919060019003613ac9919061477b565b5050505050565b600560008373ffffffffffffffffffffffffffffffffffffffff1673ffffffffffffffffffffffffffffffffffffffff168152602001908152602001600020805490506006600083815260200190815260200160002081905550600560008373ffffffffffffffffffffffffffffffffffffffff1673ffffffffffffffffffffffffffffffffffffffff1681526020019081526020016000208190806001815401808255809150509060018203906000526020600020016000909192909190915055505050565b600073ffffffffffffffffffffffffffffffffffffffff168273ffffffffffffffffffffffffffffffffffffffff1614151515613c3c576040517f08c379a00000000000000000000000000000000000000000000000000000000081526004018080602001828103825260208152602001807f4552433732313a206d696e7420746f20746865207a65726f206164647265737381525060200191505060405180910390fd5b613c458161316b565b151515613cba576040517f08c379a000000000000000000000000000000000000000000000000000000000815260040180806020018281038252601c8152602001807f4552433732313a20746f6b656e20616c7265616479206d696e7465640000000081525060200191505060405180910390fd5b816001600083815260200190815260200160002060006101000a81548173ffffffffffffffffffffffffffffffffffffffff021916908373ffffffffffffffffffffffffffffffffffffffff160217905550613d53600360008473ffffffffffffffffffffffffffffffffffffffff1673ffffffffffffffffffffffffffffffffffffffff16815260200190815260200160002061418d565b808273ffffffffffffffffffffffffffffffffffffffff16600073ffffffffffffffffffffffffffffffffffffffff167fddf252ad1be2c89b69c2b068fc378daa952ba7f163c4a11628f55a4df523b3ef60405160405180910390a45050565b6007805490506008600083815260200190815260200160002081905550600781908060018154018082558091505090600182039060005260206000200160009091929091909150555050565b6000613e208473ffffffffffffffffffffffffffffffffffffffff1661430a565b1515613e2f5760019050613fe9565b60008473ffffffffffffffffffffffffffffffffffffffff1663150b7a02613e556131dd565b8887876040518563ffffffff1660e01b8152600401808573ffffffffffffffffffffffffffffffffffffffff1673ffffffffffffffffffffffffffffffffffffffff1681526020018473ffffffffffffffffffffffffffffffffffffffff1673ffffffffffffffffffffffffffffffffffffffff16815260200183815260200180602001828103825283818151815260200191508051906020019080838360005b83811015613f11578082015181840152602081019050613ef6565b50505050905090810190601f168015613f3e5780820380516001836020036101000a031916815260200191505b5095505050505050602060405180830381600087803b158015613f6057600080fd5b505af1158015613f74573d6000803e3d6000fd5b505050506040513d6020811015613f8a57600080fd5b8101908080519060200190929190505050905063150b7a0260e01b7bffffffffffffffffffffffffffffffffffffffffffffffffffffffff1916817bffffffffffffffffffffffffffffffffffffffffffffffffffffffff1916149150505b949350505050565b613ffb8282613473565b151515614070576040517f08c379a000000000000000000000000000000000000000000000000000000000815260040180806020018281038252601f8152602001807f526f6c65733a206163636f756e7420616c72656164792068617320726f6c650081525060200191505060405180910390fd5b60018260000160008373ffffffffffffffffffffffffffffffffffffffff1673ffffffffffffffffffffffffffffffffffffffff16815260200190815260200160002060006101000a81548160ff0219169083151502179055505050565b6140d88282613473565b151561412f576040517f08c379a00000000000000000000000000000000000000000000000000000000081526004018080602001828103825260218152602001806149356021913960400191505060405180910390fd5b60008260000160008373ffffffffffffffffffffffffffffffffffffffff1673ffffffffffffffffffffffffffffffffffffffff16815260200190815260200160002060006101000a81548160ff0219169083151502179055505050565b6001816000016000828254019250508190555050565b6141ad8282614355565b6141b7828261392c565b600060066000838152602001908152602001600020819055506141d9816144e6565b5050565b600073ffffffffffffffffffffffffffffffffffffffff166002600083815260200190815260200160002060009054906101000a900473ffffffffffffffffffffffffffffffffffffffff1673ffffffffffffffffffffffffffffffffffffffff1614151561429a5760006002600083815260200190815260200160002060006101000a81548173ffffffffffffffffffffffffffffffffffffffff021916908373ffffffffffffffffffffffffffffffffffffffff1602179055505b50565b6142b5600182600001546142c090919063ffffffff16565b816000018190555050565b600061430283836040518060400160405280601e81526020017f536166654d6174683a207375627472616374696f6e206f766572666c6f7700008152506145a4565b905092915050565b60008060007fc5d2460186f7233c927e7db2dcc703c0e500b653ca82273b7bfad8045d85a47060001b9050833f91506000801b821415801561434c5750808214155b92505050919050565b8173ffffffffffffffffffffffffffffffffffffffff1661437582611f19565b73ffffffffffffffffffffffffffffffffffffffff161415156143e3576040517f08c379a0000000000000000000000000000000000000000000000000000000008152600401808060200182810382526025815260200180614b646025913960400191505060405180910390fd5b6143ec816141dd565b614433600360008473ffffffffffffffffffffffffffffffffffffffff1673ffffffffffffffffffffffffffffffffffffffff16815260200190815260200160002061429d565b60006001600083815260200190815260200160002060006101000a81548173ffffffffffffffffffffffffffffffffffffffff021916908373ffffffffffffffffffffffffffffffffffffffff16021790555080600073ffffffffffffffffffffffffffffffffffffffff168373ffffffffffffffffffffffffffffffffffffffff167fddf252ad1be2c89b69c2b068fc378daa952ba7f163c4a11628f55a4df523b3ef60405160405180910390a45050565b600061450160016007805490506142c090919063ffffffff16565b9050600060086000848152602001908152602001600020549050600060078381548110151561452c57fe5b906000526020600020015490508060078381548110151561454957fe5b90600052602060002001819055508160086000838152602001908152602001600020819055506007805480919060019003614584919061477b565b506000600860008681526020019081526020016000208190555050505050565b60008383111582901515614653576040517f08c379a00000000000000000000000000000000000000000000000000000000081526004018080602001828103825283818151815260200191508051906020019080838360005b838110156146185780820151818401526020810190506145fd565b50505050905090810190601f1680156146455780820380516001836020036101000a031916815260200191505b509250505060405180910390fd5b5060008385039050809150509392505050565b8280548282559060005260206000209081019282156146a2579160200282015b828111156146a1578251825591602001919060010190614686565b5b5090506146af91906147a7565b5090565b828054600181600116156101000203166002900490600052602060002090601f016020900481019282601f106146f457805160ff1916838001178555614722565b82800160010185558215614722579182015b82811115614721578251825591602001919060010190614706565b5b50905061472f91906147a7565b5090565b50805460018160011615610100020316600290046000825580601f106147595750614778565b601f01602090049060005260206000209081019061477791906147a7565b5b50565b8154818355818111156147a2578183600052602060002091820191016147a191906147a7565b5b505050565b6147c991905b808211156147c55760008160009055506001016147ad565b5090565b9056fe455243373231456e756d657261626c653a206f776e657220696e646578206f7574206f6620626f756e64734552433732313a207472616e7366657220746f206e6f6e20455243373231526563656976657220696d706c656d656e7465724552433732313a207472616e7366657220746f20746865207a65726f20616464726573734552433732313a206f70657261746f7220717565727920666f72206e6f6e6578697374656e7420746f6b656e4552433732313a20617070726f76652063616c6c6572206973206e6f74206f776e6572206e6f7220617070726f76656420666f7220616c6c4552433732313a2062616c616e636520717565727920666f7220746865207a65726f20616464726573734552433732313a206f776e657220717565727920666f72206e6f6e6578697374656e7420746f6b656e4d696e746572526f6c653a2063616c6c657220646f6573206e6f74206861766520746865204d696e74657220726f6c65526f6c65733a206163636f756e7420646f6573206e6f74206861766520726f6c654552433732313a20617070726f76656420717565727920666f72206e6f6e6578697374656e7420746f6b656e4552433732314d657461646174613a2055524920736574206f66206e6f6e6578697374656e7420746f6b656e526f6c65733a206163636f756e7420697320746865207a65726f20616464726573734552433732313a207472616e73666572206f6620746f6b656e2074686174206973206e6f74206f776e4552433732314d657461646174613a2055524920717565727920666f72206e6f6e6578697374656e7420746f6b656e74686520676976656e20686172647761726520494420616c72656164792065786973747374686520646576696365206973207573656420666f7220617373656d626c6564206465766963654552433732313a20617070726f76616c20746f2063757272656e74206f776e657274686520646576696365206973207573656420666f72206f7468657220617373656d626c6564206465766963656661696c20746f207472616e73666572207061727420646576696365206e66742e4552433732313a207472616e736665722063616c6c6572206973206e6f74206f776e6572206e6f7220617070726f7665646661696c20746f2070726f6475636520617373656d626c656420646576696365206e66742e455243373231456e756d657261626c653a20676c6f62616c20696e646578206f7574206f6620626f756e64734552433732313a206275726e206f6620746f6b656e2074686174206973206e6f74206f776ea165627a7a72305820d94050dc6b8c289960e4ddfb0a08506f44dfcd39d4cf4f21b10492c4ee347c120029526f6c65733a206163636f756e7420697320746865207a65726f2061646472657373",
  "source": "pragma solidity >=0.5.1;\n\nimport \"openzeppelin-solidity/contracts/token/ERC721/ERC721Full.sol\";\nimport \"openzeppelin-solidity/contracts/token/ERC721/ERC721Mintable.sol\";\nimport \"openzeppelin-solidity/contracts/math/SafeMath.sol\";\nimport \"openzeppelin-solidity/contracts/drafts/Counters.sol\";\n//import {HardwareId} from \"./HardwareId.sol\";\n\ncontract DeviceManager is ERC721Full, ERC721Mintable {\n    using SafeMath for uint256;\n    using Counters for Counters.Counter;\n\n    mapping (uint256 => address) private _hardwareId_of_deviceId;\n    mapping (address => uint256) private _deviceId_of_hardwareId;\n    mapping (uint256 => string) private _uris_of_deviceId;\n    mapping (uint256 => uint256[]) private _parts_of_deviceId;\n    mapping (uint256 => uint256) private _assembly_of_deviceId;\n    Counters.Counter private counter = Counters.Counter(0);\n\n    constructor() ERC721Full(\"Device\", \"DEVICE\") public {}\n\n    function get_hardwareId(uint256 device_id) public view returns(address) {\n        require(device_id!=0,\"given device id is zero.\");\n        return _hardwareId_of_deviceId[device_id];\n    }\n\n    function get_deviceId_by_hardwareId(address hardwareId) public view returns(uint256) {\n        require(hardwareId!=address(0),\"given device id is zero.\");\n        return _deviceId_of_hardwareId[hardwareId];\n    }\n\n    function get_uri(uint256 device_id) public view returns(string memory) {\n        require(device_id!=0,\"given device id is zero.\");\n        return _uris_of_deviceId[device_id];\n    }\n\n    function get_parts(uint256 device_id) public view returns(uint256[] memory) {\n        require(device_id!=0,\"given device id is zero.\");\n        return _parts_of_deviceId[device_id];\n    }\n\n    function get_assembly(uint256 device_id) public view returns(uint256) {\n        require(device_id!=0,\"given device id is zero.\");\n        return _assembly_of_deviceId[device_id];\n    }\n\n    function produce(address hardwareId, string memory uri) public returns(uint256) {\n        require(_deviceId_of_hardwareId[hardwareId] == 0, \"the given hardware ID already exists\");\n        uint256 device_id = _update_id();\n        require(device_id!=0,\"token id is zero.\");\n        bool success = safeMint(msg.sender,device_id);\n        require(success,\"fail to mint device nft.\");\n        _hardwareId_of_deviceId[device_id] = hardwareId;\n        _deviceId_of_hardwareId[hardwareId] = device_id;\n        _uris_of_deviceId[device_id] = uri;\n        _setTokenURI(device_id, uri);\n        return device_id;\n    }\n\n    function assemble(uint256[] memory parts, uint256 hardwareId_index, string memory uri) public returns(uint256) {\n        uint len = parts.length;\n        require(len>0,\"the number of parts is zero.\");\n        require(hardwareId_index>=0&&hardwareId_index<len,\"invalid hardwareId index.\");\n        address myself = address(this);\n        uint i;\n        for(i=0;i<len;i++){\n            require(parts[i]!=0,\"part token id is zero.\");\n            require(_assembly_of_deviceId[parts[i]]==0,\"the device is used for other assembled device\");\n            safeTransferFrom(msg.sender, myself, parts[i]);\n            require(msg.sender != ownerOf(parts[i]) && myself == ownerOf(parts[i]),\"fail to transfer part device nft.\");\n        }\n        address new_hardwareId = _hardwareId_of_deviceId[parts[hardwareId_index]];\n        uint256 device_id = produce(new_hardwareId,uri);\n        require(device_id!=0,\"assembled token id is zero.\");\n        require(msg.sender == ownerOf(device_id),\"fail to produce assembled device nft.\");\n        _parts_of_deviceId[device_id] = parts;\n        for(i=0;i<len;i++){\n            _assembly_of_deviceId[parts[i]] = device_id;\n        }\n        return device_id;\n    }\n\n    function disassemble(uint256 device_id) public returns(uint256[] memory){\n        require(device_id!=0,\"given device id is zero.\");\n        require(_assembly_of_deviceId[device_id]==0,\"the device is used for assembled device\");\n        address myself = address(this);\n        _remove(device_id);\n        uint256[] memory parts = _parts_of_deviceId[device_id];\n        uint len = parts.length;\n        uint i;\n        for(i=0;i<len;i++){\n            require(parts[i]!=0,\"part token id is zero.\");\n            safeTransferFrom(myself, msg.sender, parts[i]);\n            require(myself != ownerOf(parts[i]) && msg.sender == ownerOf(parts[i]),\"fail to transfer part device nft.\");\n        }\n        _reset(device_id);\n        _parts_of_deviceId[device_id] = new uint256[](0);\n        for(i=0;i<len;i++){\n            _assembly_of_deviceId[parts[i]] = 0;\n        }\n        return parts;\n    }\n\n    function disposal(uint256 device_id) public {\n        require(device_id!=0,\"given device id is zero.\");\n        require(_assembly_of_deviceId[device_id]==0,\"the device is used for assembled device\");\n        if(_parts_of_deviceId[device_id].length==0) {\n            _remove(device_id);\n            _reset(device_id);\n        }\n        else {\n            disassemble(device_id);\n            disposal(device_id);\n        }\n    }\n\n    function _remove(uint256 device_id) private {\n        super._burn(msg.sender,device_id);\n        require(ownerOf(device_id) != msg.sender && ownerOf(device_id) == address(0),\"fail to burn device nft.\");\n    }\n\n    function _reset(uint256 device_id) private {\n        address hardwareId = _hardwareId_of_deviceId[device_id];\n        _hardwareId_of_deviceId[device_id] = address(0);\n        _deviceId_of_hardwareId[hardwareId] = 0;\n        _uris_of_deviceId[device_id] = '';\n    }\n\n    function _update_id() private returns(uint256) {\n        counter.increment();\n        return counter.current();\n    }\n}\n",
  "sourcePath": "/Users/suegamisora/GoogleDrive/projects/PDCN_contract/contracts/DeviceManager.sol",
  "compiler": {
    "name": "solc",
    "version": "0.5.5+commit.47a71e8f.Emscripten.clang"
  },
  "schemaVersion": "3.0.23",
  "updatedAt": "2020-02-03T18:55:06.833Z",
  "devdoc": {
    "methods": {
      "approve(address,uint256)": {
        "details": "Approves another address to transfer the given token ID The zero address indicates there is no approved address. There can only be one approved address per token at a given time. Can only be called by the token owner or an approved operator.",
        "params": {
          "to": "address to be approved for the given token ID",
          "tokenId": "uint256 ID of the token to be approved"
        }
      },
      "balanceOf(address)": {
        "details": "Gets the balance of the specified address.",
        "params": {
          "owner": "address to query the balance of"
        },
        "return": "uint256 representing the amount owned by the passed address"
      },
      "getApproved(uint256)": {
        "details": "Gets the approved address for a token ID, or zero if no address set Reverts if the token ID does not exist.",
        "params": {
          "tokenId": "uint256 ID of the token to query the approval of"
        },
        "return": "address currently approved for the given token ID"
      },
      "isApprovedForAll(address,address)": {
        "details": "Tells whether an operator is approved by a given owner.",
        "params": {
          "operator": "operator address which you want to query the approval of",
          "owner": "owner address which you want to query the approval of"
        },
        "return": "bool whether the given operator is approved by the given owner"
      },
      "mint(address,uint256)": {
        "details": "Function to mint tokens.",
        "params": {
          "to": "The address that will receive the minted token.",
          "tokenId": "The token id to mint."
        },
        "return": "A boolean that indicates if the operation was successful."
      },
      "name()": {
        "details": "Gets the token name.",
        "return": "string representing the token name"
      },
      "ownerOf(uint256)": {
        "details": "Gets the owner of the specified token ID.",
        "params": {
          "tokenId": "uint256 ID of the token to query the owner of"
        },
        "return": "address currently marked as the owner of the given token ID"
      },
      "safeMint(address,uint256)": {
        "details": "Function to safely mint tokens.",
        "params": {
          "to": "The address that will receive the minted token.",
          "tokenId": "The token id to mint."
        },
        "return": "A boolean that indicates if the operation was successful."
      },
      "safeMint(address,uint256,bytes)": {
        "details": "Function to safely mint tokens.",
        "params": {
          "_data": "bytes data to send along with a safe transfer check.",
          "to": "The address that will receive the minted token.",
          "tokenId": "The token id to mint."
        },
        "return": "A boolean that indicates if the operation was successful."
      },
      "safeTransferFrom(address,address,uint256)": {
        "details": "Safely transfers the ownership of a given token ID to another address If the target address is a contract, it must implement {IERC721Receiver-onERC721Received}, which is called upon a safe transfer, and return the magic value `bytes4(keccak256(\"onERC721Received(address,address,uint256,bytes)\"))`; otherwise, the transfer is reverted. Requires the msg.sender to be the owner, approved, or operator",
        "params": {
          "from": "current owner of the token",
          "to": "address to receive the ownership of the given token ID",
          "tokenId": "uint256 ID of the token to be transferred"
        }
      },
      "safeTransferFrom(address,address,uint256,bytes)": {
        "details": "Safely transfers the ownership of a given token ID to another address If the target address is a contract, it must implement {IERC721Receiver-onERC721Received}, which is called upon a safe transfer, and return the magic value `bytes4(keccak256(\"onERC721Received(address,address,uint256,bytes)\"))`; otherwise, the transfer is reverted. Requires the _msgSender() to be the owner, approved, or operator",
        "params": {
          "_data": "bytes data to send along with a safe transfer check",
          "from": "current owner of the token",
          "to": "address to receive the ownership of the given token ID",
          "tokenId": "uint256 ID of the token to be transferred"
        }
      },
      "setApprovalForAll(address,bool)": {
        "details": "Sets or unsets the approval of a given operator An operator is allowed to transfer all tokens of the sender on their behalf.",
        "params": {
          "approved": "representing the status of the approval to be set",
          "to": "operator address to set the approval"
        }
      },
      "supportsInterface(bytes4)": {
        "details": "See {IERC165-supportsInterface}.     * Time complexity O(1), guaranteed to always use less than 30 000 gas."
      },
      "symbol()": {
        "details": "Gets the token symbol.",
        "return": "string representing the token symbol"
      },
      "tokenByIndex(uint256)": {
        "details": "Gets the token ID at a given index of all the tokens in this contract Reverts if the index is greater or equal to the total number of tokens.",
        "params": {
          "index": "uint256 representing the index to be accessed of the tokens list"
        },
        "return": "uint256 token ID at the given index of the tokens list"
      },
      "tokenOfOwnerByIndex(address,uint256)": {
        "details": "Gets the token ID at a given index of the tokens list of the requested owner.",
        "params": {
          "index": "uint256 representing the index to be accessed of the requested tokens list",
          "owner": "address owning the tokens list to be accessed"
        },
        "return": "uint256 token ID at the given index of the tokens list owned by the requested address"
      },
      "tokenURI(uint256)": {
        "details": "Returns an URI for a given token ID. Throws if the token ID does not exist. May return an empty string.",
        "params": {
          "tokenId": "uint256 ID of the token to query"
        }
      },
      "totalSupply()": {
        "details": "Gets the total amount of tokens stored by the contract.",
        "return": "uint256 representing the total amount of tokens"
      },
      "transferFrom(address,address,uint256)": {
        "details": "Transfers the ownership of a given token ID to another address. Usage of this method is discouraged, use {safeTransferFrom} whenever possible. Requires the msg.sender to be the owner, approved, or operator.",
        "params": {
          "from": "current owner of the token",
          "to": "address to receive the ownership of the given token ID",
          "tokenId": "uint256 ID of the token to be transferred"
        }
      }
    }
  },
  "userdoc": {
    "methods": {}
  }
}