{
  "contractName": "DeviceManager",
  "abi": [
    {
      "constant": true,
      "inputs": [
        {
          "name": "interfaceId",
          "type": "bytes4"
        }
      ],
      "name": "supportsInterface",
      "outputs": [
        {
          "name": "",
          "type": "bool"
        }
      ],
      "payable": false,
      "stateMutability": "view",
      "type": "function"
    },
    {
      "constant": true,
      "inputs": [],
      "name": "name",
      "outputs": [
        {
          "name": "",
          "type": "string"
        }
      ],
      "payable": false,
      "stateMutability": "view",
      "type": "function"
    },
    {
      "constant": true,
      "inputs": [
        {
          "name": "tokenId",
          "type": "uint256"
        }
      ],
      "name": "getApproved",
      "outputs": [
        {
          "name": "",
          "type": "address"
        }
      ],
      "payable": false,
      "stateMutability": "view",
      "type": "function"
    },
    {
      "constant": false,
      "inputs": [
        {
          "name": "to",
          "type": "address"
        },
        {
          "name": "tokenId",
          "type": "uint256"
        }
      ],
      "name": "approve",
      "outputs": [],
      "payable": false,
      "stateMutability": "nonpayable",
      "type": "function"
    },
    {
      "constant": true,
      "inputs": [
        {
          "name": "",
          "type": "uint256"
        },
        {
          "name": "",
          "type": "uint256"
        }
      ],
      "name": "parts_of_deviceId",
      "outputs": [
        {
          "name": "",
          "type": "uint256"
        }
      ],
      "payable": false,
      "stateMutability": "view",
      "type": "function"
    },
    {
      "constant": false,
      "inputs": [
        {
          "name": "",
          "type": "address"
        },
        {
          "name": "",
          "type": "address"
        },
        {
          "name": "",
          "type": "uint256"
        },
        {
          "name": "",
          "type": "bytes"
        }
      ],
      "name": "onERC721Received",
      "outputs": [
        {
          "name": "",
          "type": "bytes4"
        }
      ],
      "payable": false,
      "stateMutability": "nonpayable",
      "type": "function"
    },
    {
      "constant": true,
      "inputs": [],
      "name": "totalSupply",
      "outputs": [
        {
          "name": "",
          "type": "uint256"
        }
      ],
      "payable": false,
      "stateMutability": "view",
      "type": "function"
    },
    {
      "constant": false,
      "inputs": [
        {
          "name": "from",
          "type": "address"
        },
        {
          "name": "to",
          "type": "address"
        },
        {
          "name": "tokenId",
          "type": "uint256"
        }
      ],
      "name": "transferFrom",
      "outputs": [],
      "payable": false,
      "stateMutability": "nonpayable",
      "type": "function"
    },
    {
      "constant": true,
      "inputs": [
        {
          "name": "owner",
          "type": "address"
        },
        {
          "name": "index",
          "type": "uint256"
        }
      ],
      "name": "tokenOfOwnerByIndex",
      "outputs": [
        {
          "name": "",
          "type": "uint256"
        }
      ],
      "payable": false,
      "stateMutability": "view",
      "type": "function"
    },
    {
      "constant": false,
      "inputs": [
        {
          "name": "to",
          "type": "address"
        },
        {
          "name": "tokenId",
          "type": "uint256"
        }
      ],
      "name": "mint",
      "outputs": [
        {
          "name": "",
          "type": "bool"
        }
      ],
      "payable": false,
      "stateMutability": "nonpayable",
      "type": "function"
    },
    {
      "constant": false,
      "inputs": [
        {
          "name": "from",
          "type": "address"
        },
        {
          "name": "to",
          "type": "address"
        },
        {
          "name": "tokenId",
          "type": "uint256"
        }
      ],
      "name": "safeTransferFrom",
      "outputs": [],
      "payable": false,
      "stateMutability": "nonpayable",
      "type": "function"
    },
    {
      "constant": false,
      "inputs": [
        {
          "name": "tokenId",
          "type": "uint256"
        }
      ],
      "name": "burn",
      "outputs": [],
      "payable": false,
      "stateMutability": "nonpayable",
      "type": "function"
    },
    {
      "constant": true,
      "inputs": [
        {
          "name": "index",
          "type": "uint256"
        }
      ],
      "name": "tokenByIndex",
      "outputs": [
        {
          "name": "",
          "type": "uint256"
        }
      ],
      "payable": false,
      "stateMutability": "view",
      "type": "function"
    },
    {
      "constant": true,
      "inputs": [
        {
          "name": "tokenId",
          "type": "uint256"
        }
      ],
      "name": "ownerOf",
      "outputs": [
        {
          "name": "",
          "type": "address"
        }
      ],
      "payable": false,
      "stateMutability": "view",
      "type": "function"
    },
    {
      "constant": true,
      "inputs": [
        {
          "name": "owner",
          "type": "address"
        }
      ],
      "name": "balanceOf",
      "outputs": [
        {
          "name": "",
          "type": "uint256"
        }
      ],
      "payable": false,
      "stateMutability": "view",
      "type": "function"
    },
    {
      "constant": false,
      "inputs": [
        {
          "name": "to",
          "type": "address"
        },
        {
          "name": "tokenId",
          "type": "uint256"
        },
        {
          "name": "_data",
          "type": "bytes"
        }
      ],
      "name": "safeMint",
      "outputs": [
        {
          "name": "",
          "type": "bool"
        }
      ],
      "payable": false,
      "stateMutability": "nonpayable",
      "type": "function"
    },
    {
      "constant": true,
      "inputs": [],
      "name": "symbol",
      "outputs": [
        {
          "name": "",
          "type": "string"
        }
      ],
      "payable": false,
      "stateMutability": "view",
      "type": "function"
    },
    {
      "constant": false,
      "inputs": [
        {
          "name": "account",
          "type": "address"
        }
      ],
      "name": "addMinter",
      "outputs": [],
      "payable": false,
      "stateMutability": "nonpayable",
      "type": "function"
    },
    {
      "constant": false,
      "inputs": [],
      "name": "renounceMinter",
      "outputs": [],
      "payable": false,
      "stateMutability": "nonpayable",
      "type": "function"
    },
    {
      "constant": true,
      "inputs": [
        {
          "name": "",
          "type": "uint256"
        }
      ],
      "name": "uri_of_deviceId",
      "outputs": [
        {
          "name": "",
          "type": "string"
        }
      ],
      "payable": false,
      "stateMutability": "view",
      "type": "function"
    },
    {
      "constant": false,
      "inputs": [
        {
          "name": "to",
          "type": "address"
        },
        {
          "name": "tokenId",
          "type": "uint256"
        }
      ],
      "name": "safeMint",
      "outputs": [
        {
          "name": "",
          "type": "bool"
        }
      ],
      "payable": false,
      "stateMutability": "nonpayable",
      "type": "function"
    },
    {
      "constant": false,
      "inputs": [
        {
          "name": "to",
          "type": "address"
        },
        {
          "name": "approved",
          "type": "bool"
        }
      ],
      "name": "setApprovalForAll",
      "outputs": [],
      "payable": false,
      "stateMutability": "nonpayable",
      "type": "function"
    },
    {
      "constant": true,
      "inputs": [
        {
          "name": "account",
          "type": "address"
        }
      ],
      "name": "isMinter",
      "outputs": [
        {
          "name": "",
          "type": "bool"
        }
      ],
      "payable": false,
      "stateMutability": "view",
      "type": "function"
    },
    {
      "constant": false,
      "inputs": [
        {
          "name": "from",
          "type": "address"
        },
        {
          "name": "to",
          "type": "address"
        },
        {
          "name": "tokenId",
          "type": "uint256"
        },
        {
          "name": "_data",
          "type": "bytes"
        }
      ],
      "name": "safeTransferFrom",
      "outputs": [],
      "payable": false,
      "stateMutability": "nonpayable",
      "type": "function"
    },
    {
      "constant": true,
      "inputs": [
        {
          "name": "tokenId",
          "type": "uint256"
        }
      ],
      "name": "tokenURI",
      "outputs": [
        {
          "name": "",
          "type": "string"
        }
      ],
      "payable": false,
      "stateMutability": "view",
      "type": "function"
    },
    {
      "constant": true,
      "inputs": [
        {
          "name": "",
          "type": "uint256"
        }
      ],
      "name": "assembly_of_deviceId",
      "outputs": [
        {
          "name": "",
          "type": "uint256"
        }
      ],
      "payable": false,
      "stateMutability": "view",
      "type": "function"
    },
    {
      "constant": true,
      "inputs": [
        {
          "name": "owner",
          "type": "address"
        },
        {
          "name": "operator",
          "type": "address"
        }
      ],
      "name": "isApprovedForAll",
      "outputs": [
        {
          "name": "",
          "type": "bool"
        }
      ],
      "payable": false,
      "stateMutability": "view",
      "type": "function"
    },
    {
      "inputs": [],
      "payable": false,
      "stateMutability": "nonpayable",
      "type": "constructor"
    },
    {
      "anonymous": false,
      "inputs": [
        {
          "indexed": true,
          "name": "owner",
          "type": "address"
        },
        {
          "indexed": true,
          "name": "device_id",
          "type": "uint256"
        }
      ],
      "name": "Produce",
      "type": "event"
    },
    {
      "anonymous": false,
      "inputs": [
        {
          "indexed": true,
          "name": "owner",
          "type": "address"
        },
        {
          "indexed": true,
          "name": "device_id",
          "type": "uint256"
        },
        {
          "indexed": false,
          "name": "parts",
          "type": "uint256[]"
        }
      ],
      "name": "Assemble",
      "type": "event"
    },
    {
      "anonymous": false,
      "inputs": [
        {
          "indexed": true,
          "name": "owner",
          "type": "address"
        },
        {
          "indexed": true,
          "name": "device_id",
          "type": "uint256"
        }
      ],
      "name": "Disassemble",
      "type": "event"
    },
    {
      "anonymous": false,
      "inputs": [
        {
          "indexed": true,
          "name": "owner",
          "type": "address"
        },
        {
          "indexed": true,
          "name": "device_id",
          "type": "uint256"
        }
      ],
      "name": "Dispose",
      "type": "event"
    },
    {
      "anonymous": false,
      "inputs": [
        {
          "indexed": true,
          "name": "account",
          "type": "address"
        }
      ],
      "name": "MinterAdded",
      "type": "event"
    },
    {
      "anonymous": false,
      "inputs": [
        {
          "indexed": true,
          "name": "account",
          "type": "address"
        }
      ],
      "name": "MinterRemoved",
      "type": "event"
    },
    {
      "anonymous": false,
      "inputs": [
        {
          "indexed": true,
          "name": "from",
          "type": "address"
        },
        {
          "indexed": true,
          "name": "to",
          "type": "address"
        },
        {
          "indexed": true,
          "name": "tokenId",
          "type": "uint256"
        }
      ],
      "name": "Transfer",
      "type": "event"
    },
    {
      "anonymous": false,
      "inputs": [
        {
          "indexed": true,
          "name": "owner",
          "type": "address"
        },
        {
          "indexed": true,
          "name": "approved",
          "type": "address"
        },
        {
          "indexed": true,
          "name": "tokenId",
          "type": "uint256"
        }
      ],
      "name": "Approval",
      "type": "event"
    },
    {
      "anonymous": false,
      "inputs": [
        {
          "indexed": true,
          "name": "owner",
          "type": "address"
        },
        {
          "indexed": true,
          "name": "operator",
          "type": "address"
        },
        {
          "indexed": false,
          "name": "approved",
          "type": "bool"
        }
      ],
      "name": "ApprovalForAll",
      "type": "event"
    },
    {
      "constant": true,
      "inputs": [],
      "name": "getCounter",
      "outputs": [
        {
          "name": "",
          "type": "uint256"
        }
      ],
      "payable": false,
      "stateMutability": "view",
      "type": "function"
    },
    {
      "constant": false,
      "inputs": [
        {
          "name": "uri",
          "type": "string"
        }
      ],
      "name": "produce",
      "outputs": [
        {
          "name": "",
          "type": "uint256"
        }
      ],
      "payable": false,
      "stateMutability": "nonpayable",
      "type": "function"
    },
    {
      "constant": false,
      "inputs": [
        {
          "name": "parts",
          "type": "uint256[]"
        },
        {
          "name": "uri",
          "type": "string"
        }
      ],
      "name": "assemble",
      "outputs": [
        {
          "name": "",
          "type": "uint256"
        }
      ],
      "payable": false,
      "stateMutability": "nonpayable",
      "type": "function"
    },
    {
      "constant": false,
      "inputs": [
        {
          "name": "device_id",
          "type": "uint256"
        }
      ],
      "name": "disassemble",
      "outputs": [
        {
          "name": "",
          "type": "uint256[]"
        }
      ],
      "payable": false,
      "stateMutability": "nonpayable",
      "type": "function"
    },
    {
      "constant": false,
      "inputs": [
        {
          "name": "device_id",
          "type": "uint256"
        }
      ],
      "name": "dispose",
      "outputs": [],
      "payable": false,
      "stateMutability": "nonpayable",
      "type": "function"
    }
  ],
  "bytecode": "0x60806040526040518060200160405280600081525060106000820151816000015550503480156200002f57600080fd5b506040518060400160405280600681526020017f44657669636500000000000000000000000000000000000000000000000000008152506040518060400160405280600681526020017f44455649434500000000000000000000000000000000000000000000000000008152508181620000b66301ffc9a760e01b6200015a60201b60201c565b620000ce6380ac58cd60e01b6200015a60201b60201c565b620000e663780e9d6360e01b6200015a60201b60201c565b8160099080519060200190620000fe92919062000496565b5080600a90805190602001906200011792919062000496565b5062000130635b5e139f60e01b6200015a60201b60201c565b5050505062000154620001486200026560201b60201c565b6200026d60201b60201c565b62000545565b63ffffffff60e01b817bffffffffffffffffffffffffffffffffffffffffffffffffffffffff191614151515620001f9576040517f08c379a000000000000000000000000000000000000000000000000000000000815260040180806020018281038252601c8152602001807f4552433136353a20696e76616c696420696e746572666163652069640000000081525060200191505060405180910390fd5b6001600080837bffffffffffffffffffffffffffffffffffffffffffffffffffffffff19167bffffffffffffffffffffffffffffffffffffffffffffffffffffffff1916815260200190815260200160002060006101000a81548160ff02191690831515021790555050565b600033905090565b6200028881600c620002ce60201b62003c011790919060201c565b8073ffffffffffffffffffffffffffffffffffffffff167f6ae172837ea30b801fbfcdd4108aa1d5bf8ff775444fd70256b44e6bf3dfc3f660405160405180910390a250565b620002e08282620003b460201b60201c565b15151562000356576040517f08c379a000000000000000000000000000000000000000000000000000000000815260040180806020018281038252601f8152602001807f526f6c65733a206163636f756e7420616c72656164792068617320726f6c650081525060200191505060405180910390fd5b60018260000160008373ffffffffffffffffffffffffffffffffffffffff1673ffffffffffffffffffffffffffffffffffffffff16815260200190815260200160002060006101000a81548160ff0219169083151502179055505050565b60008073ffffffffffffffffffffffffffffffffffffffff168273ffffffffffffffffffffffffffffffffffffffff16141515156200043f576040517f08c379a000000000000000000000000000000000000000000000000000000000815260040180806020018281038252602281526020018062004d256022913960400191505060405180910390fd5b8260000160008373ffffffffffffffffffffffffffffffffffffffff1673ffffffffffffffffffffffffffffffffffffffff16815260200190815260200160002060009054906101000a900460ff16905092915050565b828054600181600116156101000203166002900490600052602060002090601f016020900481019282601f10620004d957805160ff19168380011785556200050a565b828001600101855582156200050a579182015b8281111562000509578251825591602001919060010190620004ec565b5b5090506200051991906200051d565b5090565b6200054291905b808211156200053e57600081600090555060010162000524565b5090565b90565b6147d080620005556000396000f3fe608060405234801561001057600080fd5b50600436106101f05760003560e01c80637ebbaecf1161010f578063a22cb465116100a2578063c87b56dd11610071578063c87b56dd14610f3e578063dd8019e614610fe5578063df12ce8814611027578063e985e9c5146110aa576101f0565b8063a22cb46514610cbe578063aa271e1a14610d0e578063ad9c155414610d6a578063b88d4fde14610e39576101f0565b8063983b2d56116100de578063983b2d5614610b635780639865027514610ba75780639ddce05314610bb1578063a144819414610c58576101f0565b80637ebbaecf146108625780638832e6e3146109c55780638ada066e14610ac257806395d89b4114610ae0576101f0565b80632f745c59116101875780634f6ccce7116101565780634f6ccce71461072c57806357214eb01461076e5780636352211e1461079c57806370a082311461080a576101f0565b80632f745c59146105c857806340c10f191461062a57806342842e0e1461069057806342966c68146106fe576101f0565b806310190c08116101c357806310190c0814610399578063150b7a02146103e557806318160ddd1461053c57806323b872dd1461055a576101f0565b806301ffc9a7146101f557806306fdde031461025a578063081812fc146102dd578063095ea7b31461034b575b600080fd5b6102406004803603602081101561020b57600080fd5b8101908080357bffffffffffffffffffffffffffffffffffffffffffffffffffffffff19169060200190929190505050611126565b604051808215151515815260200191505060405180910390f35b61026261118d565b6040518080602001828103825283818151815260200191508051906020019080838360005b838110156102a2578082015181840152602081019050610287565b50505050905090810190601f1680156102cf5780820380516001836020036101000a031916815260200191505b509250505060405180910390f35b610309600480360360208110156102f357600080fd5b810190808035906020019092919050505061122f565b604051808273ffffffffffffffffffffffffffffffffffffffff1673ffffffffffffffffffffffffffffffffffffffff16815260200191505060405180910390f35b6103976004803603604081101561036157600080fd5b81019080803573ffffffffffffffffffffffffffffffffffffffff169060200190929190803590602001909291905050506112cc565b005b6103cf600480360360408110156103af57600080fd5b8101908080359060200190929190803590602001909291905050506114b7565b6040518082815260200191505060405180910390f35b6104e8600480360360808110156103fb57600080fd5b81019080803573ffffffffffffffffffffffffffffffffffffffff169060200190929190803573ffffffffffffffffffffffffffffffffffffffff169060200190929190803590602001909291908035906020019064010000000081111561046257600080fd5b82018360208201111561047457600080fd5b8035906020019184600183028401116401000000008311171561049657600080fd5b91908080601f016020809104026020016040519081016040528093929190818152602001838380828437600081840152601f19601f8201169050808301925050505050505091929192905050506114e7565b60405180827bffffffffffffffffffffffffffffffffffffffffffffffffffffffff19167bffffffffffffffffffffffffffffffffffffffffffffffffffffffff1916815260200191505060405180910390f35b6105446114fb565b6040518082815260200191505060405180910390f35b6105c66004803603606081101561057057600080fd5b81019080803573ffffffffffffffffffffffffffffffffffffffff169060200190929190803573ffffffffffffffffffffffffffffffffffffffff16906020019092919080359060200190929190505050611508565b005b610614600480360360408110156105de57600080fd5b81019080803573ffffffffffffffffffffffffffffffffffffffff16906020019092919080359060200190929190505050611580565b6040518082815260200191505060405180910390f35b6106766004803603604081101561064057600080fd5b81019080803573ffffffffffffffffffffffffffffffffffffffff16906020019092919080359060200190929190505050611643565b604051808215151515815260200191505060405180910390f35b6106fc600480360360608110156106a657600080fd5b81019080803573ffffffffffffffffffffffffffffffffffffffff169060200190929190803573ffffffffffffffffffffffffffffffffffffffff169060200190929190803590602001909291905050506116c0565b005b61072a6004803603602081101561071457600080fd5b81019080803590602001909291905050506116e0565b005b6107586004803603602081101561074257600080fd5b8101908080359060200190929190505050611754565b6040518082815260200191505060405180910390f35b61079a6004803603602081101561078457600080fd5b81019080803590602001909291905050506117d8565b005b6107c8600480360360208110156107b257600080fd5b8101908080359060200190929190505050611988565b604051808273ffffffffffffffffffffffffffffffffffffffff1673ffffffffffffffffffffffffffffffffffffffff16815260200191505060405180910390f35b61084c6004803603602081101561082057600080fd5b81019080803573ffffffffffffffffffffffffffffffffffffffff169060200190929190505050611a52565b6040518082815260200191505060405180910390f35b6109af6004803603604081101561087857600080fd5b810190808035906020019064010000000081111561089557600080fd5b8201836020820111156108a757600080fd5b803590602001918460208302840111640100000000831117156108c957600080fd5b919080806020026020016040519081016040528093929190818152602001838360200280828437600081840152601f19601f8201169050808301925050505050505091929192908035906020019064010000000081111561092957600080fd5b82018360208201111561093b57600080fd5b8035906020019184600183028401116401000000008311171561095d57600080fd5b91908080601f016020809104026020016040519081016040528093929190818152602001838380828437600081840152601f19601f820116905080830192505050505050509192919290505050611b29565b6040518082815260200191505060405180910390f35b610aa8600480360360608110156109db57600080fd5b81019080803573ffffffffffffffffffffffffffffffffffffffff1690602001909291908035906020019092919080359060200190640100000000811115610a2257600080fd5b820183602082011115610a3457600080fd5b80359060200191846001830284011164010000000083111715610a5657600080fd5b91908080601f016020809104026020016040519081016040528093929190818152602001838380828437600081840152601f19601f820116905080830192505050505050509192919290505050611f19565b604051808215151515815260200191505060405180910390f35b610aca611f98565b6040518082815260200191505060405180910390f35b610ae8611fa9565b6040518080602001828103825283818151815260200191508051906020019080838360005b83811015610b28578082015181840152602081019050610b0d565b50505050905090810190601f168015610b555780820380516001836020036101000a031916815260200191505b509250505060405180910390f35b610ba560048036036020811015610b7957600080fd5b81019080803573ffffffffffffffffffffffffffffffffffffffff16906020019092919050505061204b565b005b610baf6120be565b005b610bdd60048036036020811015610bc757600080fd5b81019080803590602001909291905050506120d0565b6040518080602001828103825283818151815260200191508051906020019080838360005b83811015610c1d578082015181840152602081019050610c02565b50505050905090810190601f168015610c4a5780820380516001836020036101000a031916815260200191505b509250505060405180910390f35b610ca460048036036040811015610c6e57600080fd5b81019080803573ffffffffffffffffffffffffffffffffffffffff16906020019092919080359060200190929190505050612180565b604051808215151515815260200191505060405180910390f35b610d0c60048036036040811015610cd457600080fd5b81019080803573ffffffffffffffffffffffffffffffffffffffff1690602001909291908035151590602001909291905050506121fd565b005b610d5060048036036020811015610d2457600080fd5b81019080803573ffffffffffffffffffffffffffffffffffffffff1690602001909291905050506123b7565b604051808215151515815260200191505060405180910390f35b610e2360048036036020811015610d8057600080fd5b8101908080359060200190640100000000811115610d9d57600080fd5b820183602082011115610daf57600080fd5b80359060200191846001830284011164010000000083111715610dd157600080fd5b91908080601f016020809104026020016040519081016040528093929190818152602001838380828437600081840152601f19601f8201169050808301925050505050505091929192905050506123d4565b6040518082815260200191505060405180910390f35b610f3c60048036036080811015610e4f57600080fd5b81019080803573ffffffffffffffffffffffffffffffffffffffff169060200190929190803573ffffffffffffffffffffffffffffffffffffffff1690602001909291908035906020019092919080359060200190640100000000811115610eb657600080fd5b820183602082011115610ec857600080fd5b80359060200191846001830284011164010000000083111715610eea57600080fd5b91908080601f016020809104026020016040519081016040528093929190818152602001838380828437600081840152601f19601f82011690508083019250505050505050919291929050505061255d565b005b610f6a60048036036020811015610f5457600080fd5b81019080803590602001909291905050506125d7565b6040518080602001828103825283818151815260200191508051906020019080838360005b83811015610faa578082015181840152602081019050610f8f565b50505050905090810190601f168015610fd75780820380516001836020036101000a031916815260200191505b509250505060405180910390f35b61101160048036036020811015610ffb57600080fd5b81019080803590602001909291905050506126ec565b6040518082815260200191505060405180910390f35b6110536004803603602081101561103d57600080fd5b8101908080359060200190929190505050612704565b6040518080602001828103825283818151815260200191508051906020019060200280838360005b8381101561109657808201518184015260208101905061107b565b505050509050019250505060405180910390f35b61110c600480360360408110156110c057600080fd5b81019080803573ffffffffffffffffffffffffffffffffffffffff169060200190929190803573ffffffffffffffffffffffffffffffffffffffff169060200190929190505050612acc565b604051808215151515815260200191505060405180910390f35b6000806000837bffffffffffffffffffffffffffffffffffffffffffffffffffffffff19167bffffffffffffffffffffffffffffffffffffffffffffffffffffffff1916815260200190815260200160002060009054906101000a900460ff169050919050565b606060098054600181600116156101000203166002900480601f0160208091040260200160405190810160405280929190818152602001828054600181600116156101000203166002900480156112255780601f106111fa57610100808354040283529160200191611225565b820191906000526020600020905b81548152906001019060200180831161120857829003601f168201915b5050505050905090565b600061123a82612b60565b1515611291576040517f08c379a000000000000000000000000000000000000000000000000000000000815260040180806020018281038252602c815260200180614566602c913960400191505060405180910390fd5b6002600083815260200190815260200160002060009054906101000a900473ffffffffffffffffffffffffffffffffffffffff169050919050565b60006112d782611988565b90508073ffffffffffffffffffffffffffffffffffffffff168373ffffffffffffffffffffffffffffffffffffffff1614151515611360576040517f08c379a000000000000000000000000000000000000000000000000000000000815260040180806020018281038252602181526020018061465f6021913960400191505060405180910390fd5b8073ffffffffffffffffffffffffffffffffffffffff1661137f612bd2565b73ffffffffffffffffffffffffffffffffffffffff1614806113ae57506113ad816113a8612bd2565b612acc565b5b1515611405576040517f08c379a000000000000000000000000000000000000000000000000000000000815260040180806020018281038252603881526020018061448a6038913960400191505060405180910390fd5b826002600084815260200190815260200160002060006101000a81548173ffffffffffffffffffffffffffffffffffffffff021916908373ffffffffffffffffffffffffffffffffffffffff160217905550818373ffffffffffffffffffffffffffffffffffffffff168273ffffffffffffffffffffffffffffffffffffffff167f8c5be1e5ebec7d5bd14f71427d1e84f3dd0314c0f7b2291e5b200ac8c7c3b92560405160405180910390a4505050565b600e602052816000526040600020818154811015156114d257fe5b90600052602060002001600091509150505481565b600063150b7a0260e01b9050949350505050565b6000600780549050905090565b611519611513612bd2565b82612bda565b1515611570576040517f08c379a00000000000000000000000000000000000000000000000000000000081526004018080602001828103825260318152602001806146ce6031913960400191505060405180910390fd5b61157b838383612cd0565b505050565b600061158b83611a52565b821015156115e4576040517f08c379a000000000000000000000000000000000000000000000000000000000815260040180806020018281038252602b8152602001806143dd602b913960400191505060405180910390fd5b600560008473ffffffffffffffffffffffffffffffffffffffff1673ffffffffffffffffffffffffffffffffffffffff1681526020019081526020016000208281548110151561163057fe5b9060005260206000200154905092915050565b6000611655611650612bd2565b6123b7565b15156116ac576040517f08c379a00000000000000000000000000000000000000000000000000000000081526004018080602001828103825260308152602001806145156030913960400191505060405180910390fd5b6116b68383612cf4565b6001905092915050565b6116db8383836040518060200160405280600081525061255d565b505050565b6116f16116eb612bd2565b82612bda565b1515611748576040517f08c379a00000000000000000000000000000000000000000000000000000000081526004018080602001828103825260308152602001806147756030913960400191505060405180910390fd5b61175181612d15565b50565b600061175e6114fb565b821015156117b7576040517f08c379a000000000000000000000000000000000000000000000000000000000815260040180806020018281038252602c815260200180614724602c913960400191505060405180910390fd5b6007828154811015156117c657fe5b90600052602060002001549050919050565b60008114151515611851576040517f08c379a00000000000000000000000000000000000000000000000000000000081526004018080602001828103825260188152602001807f676976656e20646576696365206964206973207a65726f2e000000000000000081525060200191505060405180910390fd5b6000600f6000838152602001908152602001600020541415156118bf576040517f08c379a00000000000000000000000000000000000000000000000000000000081526004018080602001828103825260278152602001806146386027913960400191505060405180910390fd5b6000600e6000838152602001908152602001600020805490501415611939576118e781612d2a565b6118f081612db4565b803373ffffffffffffffffffffffffffffffffffffffff167f60914ce58216e2f221a19b0647ef2316bb3e20aaf38acaf9ee4290eacd9ff71260405160405180910390a3611985565b606061194482612704565b905060008090505b815181101561198257611975828281518110151561196657fe5b906020019060200201516117d8565b808060010191505061194c565b50505b50565b6000806001600084815260200190815260200160002060009054906101000a900473ffffffffffffffffffffffffffffffffffffffff169050600073ffffffffffffffffffffffffffffffffffffffff168173ffffffffffffffffffffffffffffffffffffffff1614151515611a49576040517f08c379a00000000000000000000000000000000000000000000000000000000081526004018080602001828103825260298152602001806144ec6029913960400191505060405180910390fd5b80915050919050565b60008073ffffffffffffffffffffffffffffffffffffffff168273ffffffffffffffffffffffffffffffffffffffff1614151515611adb576040517f08c379a000000000000000000000000000000000000000000000000000000000815260040180806020018281038252602a8152602001806144c2602a913960400191505060405180910390fd5b611b22600360008473ffffffffffffffffffffffffffffffffffffffff1673ffffffffffffffffffffffffffffffffffffffff168152602001908152602001600020612dee565b9050919050565b60008083519050600081111515611ba8576040517f08c379a000000000000000000000000000000000000000000000000000000000815260040180806020018281038252601c8152602001807f746865206e756d626572206f66207061727473206973207a65726f2e0000000081525060200191505060405180910390fd5b60008090505b81811015611cf85760008582815181101515611bc657fe5b9060200190602002015114151515611c46576040517f08c379a00000000000000000000000000000000000000000000000000000000081526004018080602001828103825260168152602001807f7061727420746f6b656e206964206973207a65726f2e0000000000000000000081525060200191505060405180910390fd5b6000600f60008784815181101515611c5a57fe5b90602001906020020151815260200190815260200160002054141515611ccb576040517f08c379a000000000000000000000000000000000000000000000000000000000815260040180806020018281038252602d815260200180614680602d913960400191505060405180910390fd5b611ceb8582815181101515611cdc57fe5b90602001906020020151612d2a565b8080600101915050611bae565b6000611d03856123d4565b905060008114151515611d7e576040517f08c379a000000000000000000000000000000000000000000000000000000000815260040180806020018281038252601b8152602001807f617373656d626c656420746f6b656e206964206973207a65726f2e000000000081525060200191505060405180910390fd5b611d8781611988565b73ffffffffffffffffffffffffffffffffffffffff163373ffffffffffffffffffffffffffffffffffffffff16141515611e0c576040517f08c379a00000000000000000000000000000000000000000000000000000000081526004018080602001828103825260258152602001806146ff6025913960400191505060405180910390fd5b85600e60008381526020019081526020016000209080519060200190611e33929190614276565b50600091505b82821015611e7d5780600f60008885815181101515611e5457fe5b906020019060200201518152602001908152602001600020819055508180600101925050611e39565b803373ffffffffffffffffffffffffffffffffffffffff167ff1dc641ac9a3807e5bc819412f80a821be5a287baf12a6ee7d7824b1bccbd53f886040518080602001828103825283818151815260200191508051906020019060200280838360005b83811015611efa578082015181840152602081019050611edf565b505050509050019250505060405180910390a380935050505092915050565b6000611f2b611f26612bd2565b6123b7565b1515611f82576040517f08c379a00000000000000000000000000000000000000000000000000000000081526004018080602001828103825260308152602001806145156030913960400191505060405180910390fd5b611f8d848484612dfc565b600190509392505050565b6000611fa46010612dee565b905090565b6060600a8054600181600116156101000203166002900480601f0160208091040260200160405190810160405280929190818152602001828054600181600116156101000203166002900480156120415780601f1061201657610100808354040283529160200191612041565b820191906000526020600020905b81548152906001019060200180831161202457829003601f168201915b5050505050905090565b61205b612056612bd2565b6123b7565b15156120b2576040517f08c379a00000000000000000000000000000000000000000000000000000000081526004018080602001828103825260308152602001806145156030913960400191505060405180910390fd5b6120bb81612e6f565b50565b6120ce6120c9612bd2565b612ec9565b565b600d6020528060005260406000206000915090508054600181600116156101000203166002900480601f0160208091040260200160405190810160405280929190818152602001828054600181600116156101000203166002900480156121785780601f1061214d57610100808354040283529160200191612178565b820191906000526020600020905b81548152906001019060200180831161215b57829003601f168201915b505050505081565b600061219261218d612bd2565b6123b7565b15156121e9576040517f08c379a00000000000000000000000000000000000000000000000000000000081526004018080602001828103825260308152602001806145156030913960400191505060405180910390fd5b6121f38383612f23565b6001905092915050565b612205612bd2565b73ffffffffffffffffffffffffffffffffffffffff168273ffffffffffffffffffffffffffffffffffffffff16141515156122a8576040517f08c379a00000000000000000000000000000000000000000000000000000000081526004018080602001828103825260198152602001807f4552433732313a20617070726f766520746f2063616c6c65720000000000000081525060200191505060405180910390fd5b80600460006122b5612bd2565b73ffffffffffffffffffffffffffffffffffffffff1673ffffffffffffffffffffffffffffffffffffffff16815260200190815260200160002060008473ffffffffffffffffffffffffffffffffffffffff1673ffffffffffffffffffffffffffffffffffffffff16815260200190815260200160002060006101000a81548160ff0219169083151502179055508173ffffffffffffffffffffffffffffffffffffffff16612362612bd2565b73ffffffffffffffffffffffffffffffffffffffff167f17307eab39ab6107e8899845ad3d59bd9653f200f220920489ca2b5937696c3183604051808215151515815260200191505060405180910390a35050565b60006123cd82600c612f4190919063ffffffff16565b9050919050565b6000806123df613021565b90506000811415151561245a576040517f08c379a00000000000000000000000000000000000000000000000000000000081526004018080602001828103825260118152602001807f746f6b656e206964206973207a65726f2e00000000000000000000000000000081525060200191505060405180910390fd5b60006124663383612180565b90508015156124dd576040517f08c379a00000000000000000000000000000000000000000000000000000000081526004018080602001828103825260188152602001807f6661696c20746f206d696e7420646576696365206e66742e000000000000000081525060200191505060405180910390fd5b83600d600084815260200190815260200160002090805190602001906125049291906142c3565b5061250f828561303c565b813373ffffffffffffffffffffffffffffffffffffffff167f18c080672e08a809bccf2c500246d8ff4e4d640b8c58aac776a4ba918d0ce96960405160405180910390a38192505050919050565b61256e612568612bd2565b83612bda565b15156125c5576040517f08c379a00000000000000000000000000000000000000000000000000000000081526004018080602001828103825260318152602001806146ce6031913960400191505060405180910390fd5b6125d1848484846130c8565b50505050565b60606125e282612b60565b1515612639576040517f08c379a000000000000000000000000000000000000000000000000000000000815260040180806020018281038252602f815260200180614609602f913960400191505060405180910390fd5b600b60008381526020019081526020016000208054600181600116156101000203166002900480601f0160208091040260200160405190810160405280929190818152602001828054600181600116156101000203166002900480156126e05780601f106126b5576101008083540402835291602001916126e0565b820191906000526020600020905b8154815290600101906020018083116126c357829003601f168201915b50505050509050919050565b600f6020528060005260406000206000915090505481565b60606000821415151561277f576040517f08c379a00000000000000000000000000000000000000000000000000000000081526004018080602001828103825260188152602001807f676976656e20646576696365206964206973207a65726f2e000000000000000081525060200191505060405180910390fd5b6000600f6000848152602001908152602001600020541415156127ed576040517f08c379a00000000000000000000000000000000000000000000000000000000081526004018080602001828103825260278152602001806146386027913960400191505060405180910390fd5b6127f682612d2a565b6060600e600084815260200190815260200160002080548060200260200160405190810160405280929190818152602001828054801561285557602002820191906000526020600020905b815481526020019060010190808311612841575b5050505050905060008151905060008090505b818110156129d2576000838281518110151561288057fe5b9060200190602002015114151515612900576040517f08c379a00000000000000000000000000000000000000000000000000000000081526004018080602001828103825260168152602001807f7061727420746f6b656e206964206973207a65726f2e0000000000000000000081525060200191505060405180910390fd5b612920838281518110151561291157fe5b9060200190602002015161313c565b612940838281518110151561293157fe5b90602001906020020151611988565b73ffffffffffffffffffffffffffffffffffffffff163373ffffffffffffffffffffffffffffffffffffffff161415156129c5576040517f08c379a00000000000000000000000000000000000000000000000000000000081526004018080602001828103825260218152602001806146ad6021913960400191505060405180910390fd5b8080600101915050612868565b6129db85612db4565b6000604051908082528060200260200182016040528015612a0b5781602001602082028038833980820191505090505b50600e60008781526020019081526020016000209080519060200190612a32929190614276565b50600090505b81811015612a7d576000600f60008584815181101515612a5457fe5b906020019060200201518152602001908152602001600020819055508080600101915050612a38565b843373ffffffffffffffffffffffffffffffffffffffff167f1b203877ad00e47dd88c21e7c70c4df5764127b46f7f6179d120fc262f29d01e60405160405180910390a3829350505050919050565b6000600460008473ffffffffffffffffffffffffffffffffffffffff1673ffffffffffffffffffffffffffffffffffffffff16815260200190815260200160002060008373ffffffffffffffffffffffffffffffffffffffff1673ffffffffffffffffffffffffffffffffffffffff16815260200190815260200160002060009054906101000a900460ff16905092915050565b6000806001600084815260200190815260200160002060009054906101000a900473ffffffffffffffffffffffffffffffffffffffff169050600073ffffffffffffffffffffffffffffffffffffffff168173ffffffffffffffffffffffffffffffffffffffff161415915050919050565b600033905090565b6000612be582612b60565b1515612c3c576040517f08c379a000000000000000000000000000000000000000000000000000000000815260040180806020018281038252602c81526020018061445e602c913960400191505060405180910390fd5b6000612c4783611988565b90508073ffffffffffffffffffffffffffffffffffffffff168473ffffffffffffffffffffffffffffffffffffffff161480612cb657508373ffffffffffffffffffffffffffffffffffffffff16612c9e8461122f565b73ffffffffffffffffffffffffffffffffffffffff16145b80612cc75750612cc68185612acc565b5b91505092915050565b612cdb83838361327e565b612ce583826134dd565b612cef8282613681565b505050565b612cfe8282613748565b612d088282613681565b612d1181613964565b5050565b612d27612d2182611988565b826139b0565b50565b612d33816116e0565b612d3c81612b60565b151515612db1576040517f08c379a00000000000000000000000000000000000000000000000000000000081526004018080602001828103825260188152602001807f6661696c20746f206275726e20646576696365206e66742e000000000000000081525060200191505060405180910390fd5b50565b60405180602001604052806000815250600d60008381526020019081526020016000209080519060200190612dea9291906142c3565b5050565b600081600001549050919050565b612e068383612cf4565b612e136000848484613a0f565b1515612e6a576040517f08c379a00000000000000000000000000000000000000000000000000000000081526004018080602001828103825260328152602001806144086032913960400191505060405180910390fd5b505050565b612e8381600c613c0190919063ffffffff16565b8073ffffffffffffffffffffffffffffffffffffffff167f6ae172837ea30b801fbfcdd4108aa1d5bf8ff775444fd70256b44e6bf3dfc3f660405160405180910390a250565b612edd81600c613cde90919063ffffffff16565b8073ffffffffffffffffffffffffffffffffffffffff167fe94479a9f7e1952cc78f2d6baab678adc1b772d936c6583def489e524cb6669260405160405180910390a250565b612f3d828260405180602001604052806000815250612dfc565b5050565b60008073ffffffffffffffffffffffffffffffffffffffff168273ffffffffffffffffffffffffffffffffffffffff1614151515612fca576040517f08c379a00000000000000000000000000000000000000000000000000000000081526004018080602001828103825260228152602001806145be6022913960400191505060405180910390fd5b8260000160008373ffffffffffffffffffffffffffffffffffffffff1673ffffffffffffffffffffffffffffffffffffffff16815260200190815260200160002060009054906101000a900460ff16905092915050565b600061302d6010613d9d565b6130376010612dee565b905090565b61304582612b60565b151561309c576040517f08c379a000000000000000000000000000000000000000000000000000000000815260040180806020018281038252602c815260200180614592602c913960400191505060405180910390fd5b80600b600084815260200190815260200160002090805190602001906130c39291906142c3565b505050565b6130d3848484612cd0565b6130df84848484613a0f565b1515613136576040517f08c379a00000000000000000000000000000000000000000000000000000000081526004018080602001828103825260328152602001806144086032913960400191505060405180910390fd5b50505050565b60006131483383612180565b90508015156131bf576040517f08c379a00000000000000000000000000000000000000000000000000000000081526004018080602001828103825260188152602001807f6661696c20746f206d696e7420646576696365206e66742e000000000000000081525060200191505060405180910390fd5b6060600d60008481526020019081526020016000208054600181600116156101000203166002900480601f0160208091040260200160405190810160405280929190818152602001828054600181600116156101000203166002900480156132685780601f1061323d57610100808354040283529160200191613268565b820191906000526020600020905b81548152906001019060200180831161324b57829003601f168201915b50505050509050613279838261303c565b505050565b8273ffffffffffffffffffffffffffffffffffffffff1661329e82611988565b73ffffffffffffffffffffffffffffffffffffffff1614151561330c576040517f08c379a00000000000000000000000000000000000000000000000000000000081526004018080602001828103825260298152602001806145e06029913960400191505060405180910390fd5b600073ffffffffffffffffffffffffffffffffffffffff168273ffffffffffffffffffffffffffffffffffffffff1614151515613394576040517f08c379a000000000000000000000000000000000000000000000000000000000815260040180806020018281038252602481526020018061443a6024913960400191505060405180910390fd5b61339d81613db3565b6133e4600360008573ffffffffffffffffffffffffffffffffffffffff1673ffffffffffffffffffffffffffffffffffffffff168152602001908152602001600020613e73565b61342b600360008473ffffffffffffffffffffffffffffffffffffffff1673ffffffffffffffffffffffffffffffffffffffff168152602001908152602001600020613d9d565b816001600083815260200190815260200160002060006101000a81548173ffffffffffffffffffffffffffffffffffffffff021916908373ffffffffffffffffffffffffffffffffffffffff160217905550808273ffffffffffffffffffffffffffffffffffffffff168473ffffffffffffffffffffffffffffffffffffffff167fddf252ad1be2c89b69c2b068fc378daa952ba7f163c4a11628f55a4df523b3ef60405160405180910390a4505050565b60006135356001600560008673ffffffffffffffffffffffffffffffffffffffff1673ffffffffffffffffffffffffffffffffffffffff16815260200190815260200160002080549050613e9690919063ffffffff16565b90506000600660008481526020019081526020016000205490508181141515613628576000600560008673ffffffffffffffffffffffffffffffffffffffff1673ffffffffffffffffffffffffffffffffffffffff168152602001908152602001600020838154811015156135a657fe5b9060005260206000200154905080600560008773ffffffffffffffffffffffffffffffffffffffff1673ffffffffffffffffffffffffffffffffffffffff1681526020019081526020016000208381548110151561360057fe5b9060005260206000200181905550816006600083815260200190815260200160002081905550505b600560008573ffffffffffffffffffffffffffffffffffffffff1673ffffffffffffffffffffffffffffffffffffffff16815260200190815260200160002080548091906001900361367a9190614343565b5050505050565b600560008373ffffffffffffffffffffffffffffffffffffffff1673ffffffffffffffffffffffffffffffffffffffff168152602001908152602001600020805490506006600083815260200190815260200160002081905550600560008373ffffffffffffffffffffffffffffffffffffffff1673ffffffffffffffffffffffffffffffffffffffff1681526020019081526020016000208190806001815401808255809150509060018203906000526020600020016000909192909190915055505050565b600073ffffffffffffffffffffffffffffffffffffffff168273ffffffffffffffffffffffffffffffffffffffff16141515156137ed576040517f08c379a00000000000000000000000000000000000000000000000000000000081526004018080602001828103825260208152602001807f4552433732313a206d696e7420746f20746865207a65726f206164647265737381525060200191505060405180910390fd5b6137f681612b60565b15151561386b576040517f08c379a000000000000000000000000000000000000000000000000000000000815260040180806020018281038252601c8152602001807f4552433732313a20746f6b656e20616c7265616479206d696e7465640000000081525060200191505060405180910390fd5b816001600083815260200190815260200160002060006101000a81548173ffffffffffffffffffffffffffffffffffffffff021916908373ffffffffffffffffffffffffffffffffffffffff160217905550613904600360008473ffffffffffffffffffffffffffffffffffffffff1673ffffffffffffffffffffffffffffffffffffffff168152602001908152602001600020613d9d565b808273ffffffffffffffffffffffffffffffffffffffff16600073ffffffffffffffffffffffffffffffffffffffff167fddf252ad1be2c89b69c2b068fc378daa952ba7f163c4a11628f55a4df523b3ef60405160405180910390a45050565b6007805490506008600083815260200190815260200160002081905550600781908060018154018082558091505090600182039060005260206000200160009091929091909150555050565b6139ba8282613ee0565b6000600b6000838152602001908152602001600020805460018160011615610100020316600290049050141515613a0b57600b60008281526020019081526020016000206000613a0a919061436f565b5b5050565b6000613a308473ffffffffffffffffffffffffffffffffffffffff16613f1a565b1515613a3f5760019050613bf9565b60008473ffffffffffffffffffffffffffffffffffffffff1663150b7a02613a65612bd2565b8887876040518563ffffffff1660e01b8152600401808573ffffffffffffffffffffffffffffffffffffffff1673ffffffffffffffffffffffffffffffffffffffff1681526020018473ffffffffffffffffffffffffffffffffffffffff1673ffffffffffffffffffffffffffffffffffffffff16815260200183815260200180602001828103825283818151815260200191508051906020019080838360005b83811015613b21578082015181840152602081019050613b06565b50505050905090810190601f168015613b4e5780820380516001836020036101000a031916815260200191505b5095505050505050602060405180830381600087803b158015613b7057600080fd5b505af1158015613b84573d6000803e3d6000fd5b505050506040513d6020811015613b9a57600080fd5b8101908080519060200190929190505050905063150b7a0260e01b7bffffffffffffffffffffffffffffffffffffffffffffffffffffffff1916817bffffffffffffffffffffffffffffffffffffffffffffffffffffffff1916149150505b949350505050565b613c0b8282612f41565b151515613c80576040517f08c379a000000000000000000000000000000000000000000000000000000000815260040180806020018281038252601f8152602001807f526f6c65733a206163636f756e7420616c72656164792068617320726f6c650081525060200191505060405180910390fd5b60018260000160008373ffffffffffffffffffffffffffffffffffffffff1673ffffffffffffffffffffffffffffffffffffffff16815260200190815260200160002060006101000a81548160ff0219169083151502179055505050565b613ce88282612f41565b1515613d3f576040517f08c379a00000000000000000000000000000000000000000000000000000000081526004018080602001828103825260218152602001806145456021913960400191505060405180910390fd5b60008260000160008373ffffffffffffffffffffffffffffffffffffffff1673ffffffffffffffffffffffffffffffffffffffff16815260200190815260200160002060006101000a81548160ff0219169083151502179055505050565b6001816000016000828254019250508190555050565b600073ffffffffffffffffffffffffffffffffffffffff166002600083815260200190815260200160002060009054906101000a900473ffffffffffffffffffffffffffffffffffffffff1673ffffffffffffffffffffffffffffffffffffffff16141515613e705760006002600083815260200190815260200160002060006101000a81548173ffffffffffffffffffffffffffffffffffffffff021916908373ffffffffffffffffffffffffffffffffffffffff1602179055505b50565b613e8b60018260000154613e9690919063ffffffff16565b816000018190555050565b6000613ed883836040518060400160405280601e81526020017f536166654d6174683a207375627472616374696f6e206f766572666c6f770000815250613f65565b905092915050565b613eea8282614027565b613ef482826134dd565b60006006600083815260200190815260200160002081905550613f16816141b8565b5050565b60008060007fc5d2460186f7233c927e7db2dcc703c0e500b653ca82273b7bfad8045d85a47060001b9050833f91506000801b8214158015613f5c5750808214155b92505050919050565b60008383111582901515614014576040517f08c379a00000000000000000000000000000000000000000000000000000000081526004018080602001828103825283818151815260200191508051906020019080838360005b83811015613fd9578082015181840152602081019050613fbe565b50505050905090810190601f1680156140065780820380516001836020036101000a031916815260200191505b509250505060405180910390fd5b5060008385039050809150509392505050565b8173ffffffffffffffffffffffffffffffffffffffff1661404782611988565b73ffffffffffffffffffffffffffffffffffffffff161415156140b5576040517f08c379a00000000000000000000000000000000000000000000000000000000081526004018080602001828103825260258152602001806147506025913960400191505060405180910390fd5b6140be81613db3565b614105600360008473ffffffffffffffffffffffffffffffffffffffff1673ffffffffffffffffffffffffffffffffffffffff168152602001908152602001600020613e73565b60006001600083815260200190815260200160002060006101000a81548173ffffffffffffffffffffffffffffffffffffffff021916908373ffffffffffffffffffffffffffffffffffffffff16021790555080600073ffffffffffffffffffffffffffffffffffffffff168373ffffffffffffffffffffffffffffffffffffffff167fddf252ad1be2c89b69c2b068fc378daa952ba7f163c4a11628f55a4df523b3ef60405160405180910390a45050565b60006141d36001600780549050613e9690919063ffffffff16565b905060006008600084815260200190815260200160002054905060006007838154811015156141fe57fe5b906000526020600020015490508060078381548110151561421b57fe5b906000526020600020018190555081600860008381526020019081526020016000208190555060078054809190600190036142569190614343565b506000600860008681526020019081526020016000208190555050505050565b8280548282559060005260206000209081019282156142b2579160200282015b828111156142b1578251825591602001919060010190614296565b5b5090506142bf91906143b7565b5090565b828054600181600116156101000203166002900490600052602060002090601f016020900481019282601f1061430457805160ff1916838001178555614332565b82800160010185558215614332579182015b82811115614331578251825591602001919060010190614316565b5b50905061433f91906143b7565b5090565b81548183558181111561436a5781836000526020600020918201910161436991906143b7565b5b505050565b50805460018160011615610100020316600290046000825580601f1061439557506143b4565b601f0160209004906000526020600020908101906143b391906143b7565b5b50565b6143d991905b808211156143d55760008160009055506001016143bd565b5090565b9056fe455243373231456e756d657261626c653a206f776e657220696e646578206f7574206f6620626f756e64734552433732313a207472616e7366657220746f206e6f6e20455243373231526563656976657220696d706c656d656e7465724552433732313a207472616e7366657220746f20746865207a65726f20616464726573734552433732313a206f70657261746f7220717565727920666f72206e6f6e6578697374656e7420746f6b656e4552433732313a20617070726f76652063616c6c6572206973206e6f74206f776e6572206e6f7220617070726f76656420666f7220616c6c4552433732313a2062616c616e636520717565727920666f7220746865207a65726f20616464726573734552433732313a206f776e657220717565727920666f72206e6f6e6578697374656e7420746f6b656e4d696e746572526f6c653a2063616c6c657220646f6573206e6f74206861766520746865204d696e74657220726f6c65526f6c65733a206163636f756e7420646f6573206e6f74206861766520726f6c654552433732313a20617070726f76656420717565727920666f72206e6f6e6578697374656e7420746f6b656e4552433732314d657461646174613a2055524920736574206f66206e6f6e6578697374656e7420746f6b656e526f6c65733a206163636f756e7420697320746865207a65726f20616464726573734552433732313a207472616e73666572206f6620746f6b656e2074686174206973206e6f74206f776e4552433732314d657461646174613a2055524920717565727920666f72206e6f6e6578697374656e7420746f6b656e74686520646576696365206973207573656420666f7220617373656d626c6564206465766963654552433732313a20617070726f76616c20746f2063757272656e74206f776e657274686520646576696365206973207573656420666f72206f7468657220617373656d626c6564206465766963656661696c20746f207472616e73666572207061727420646576696365206e66742e4552433732313a207472616e736665722063616c6c6572206973206e6f74206f776e6572206e6f7220617070726f7665646661696c20746f2070726f6475636520617373656d626c656420646576696365206e66742e455243373231456e756d657261626c653a20676c6f62616c20696e646578206f7574206f6620626f756e64734552433732313a206275726e206f6620746f6b656e2074686174206973206e6f74206f776e4552433732314275726e61626c653a2063616c6c6572206973206e6f74206f776e6572206e6f7220617070726f766564a165627a7a72305820ac5008509d4fc2e38d2c608bc8a40ea857da7c38c059796ff8c54cab69804fb50029526f6c65733a206163636f756e7420697320746865207a65726f2061646472657373",
  "source": "pragma solidity >=0.5.1;\n\nimport \"openzeppelin-solidity/contracts/token/ERC721/ERC721Full.sol\";\nimport \"openzeppelin-solidity/contracts/token/ERC721/ERC721Mintable.sol\";\nimport \"openzeppelin-solidity/contracts/token/ERC721/ERC721Burnable.sol\";\nimport \"openzeppelin-solidity/contracts/token/ERC721/ERC721Holder.sol\";\nimport \"openzeppelin-solidity/contracts/math/SafeMath.sol\";\nimport \"openzeppelin-solidity/contracts/drafts/Counters.sol\";\nimport {HardwareIds} from \"./HardwareIds.sol\";\n\ncontract DeviceManager is ERC721Full, ERC721Mintable, ERC721Burnable, ERC721Holder {\n    using SafeMath for uint256;\n    using Counters for Counters.Counter;\n\n    mapping (uint256 => string) public uri_of_deviceId;\n    mapping (uint256 => uint256[]) public parts_of_deviceId;\n    mapping (uint256 => uint256) public assembly_of_deviceId;\n    Counters.Counter private counter = Counters.Counter(0);\n\n    event Produce (\n        address indexed owner,\n        uint256 indexed device_id\n    );\n\n    event Assemble (\n        address indexed owner,\n        uint256 indexed device_id,\n        uint256[] parts\n    );\n\n    event Disassemble (\n        address indexed owner,\n        uint256 indexed device_id\n    );\n\n    event Dispose (\n        address indexed owner,\n        uint256 indexed device_id\n    );\n\n    constructor() ERC721Full(\"Device\", \"DEVICE\") public {}\n\n    function getCounter() public view returns(uint256) {\n        return counter.current();\n    }\n\n    function produce(string memory uri) public returns(uint256) {\n        uint256 device_id = _update_id();\n        require(device_id!=0,\"token id is zero.\");\n        bool success = safeMint(msg.sender,device_id);\n        require(success,\"fail to mint device nft.\");\n        uri_of_deviceId[device_id] = uri;\n        _setTokenURI(device_id, uri);\n        emit Produce(msg.sender, device_id);\n        return device_id;\n    }\n\n    function assemble(uint256[] memory parts, string memory uri) public returns(uint256) {\n        uint len = parts.length;\n        require(len>0,\"the number of parts is zero.\");\n        uint i;\n        for(i=0;i<len;i++){\n            require(parts[i]!=0,\"part token id is zero.\");\n            require(assembly_of_deviceId[parts[i]]==0,\"the device is used for other assembled device\");\n            _remove(parts[i]);\n        }\n        uint256 device_id = produce(uri);\n        require(device_id!=0,\"assembled token id is zero.\");\n        require(msg.sender == ownerOf(device_id),\"fail to produce assembled device nft.\");\n        parts_of_deviceId[device_id] = parts;\n        for(i=0;i<len;i++){\n            assembly_of_deviceId[parts[i]] = device_id;\n        }\n        emit Assemble(msg.sender,device_id,parts);\n        return device_id;\n    }\n\n    function disassemble(uint256 device_id) public returns(uint256[] memory){\n        require(device_id!=0,\"given device id is zero.\");\n        require(assembly_of_deviceId[device_id]==0,\"the device is used for assembled device\");\n        _remove(device_id);\n        uint256[] memory parts = parts_of_deviceId[device_id];\n        uint len = parts.length;\n        uint i;\n        for(i=0;i<len;i++){\n            require(parts[i]!=0,\"part token id is zero.\");\n            _recover(parts[i]);\n            require(msg.sender == ownerOf(parts[i]),\"fail to transfer part device nft.\");\n        }\n        _reset(device_id);\n        parts_of_deviceId[device_id] = new uint256[](0);\n        for(i=0;i<len;i++){\n            assembly_of_deviceId[parts[i]] = 0;\n        }\n        emit Disassemble(msg.sender,device_id);\n        return parts;\n    }\n\n    function dispose(uint256 device_id) public {\n        require(device_id!=0,\"given device id is zero.\");\n        require(assembly_of_deviceId[device_id]==0,\"the device is used for assembled device\");\n        if(parts_of_deviceId[device_id].length==0) {\n            _remove(device_id);\n            _reset(device_id);\n            emit Dispose(msg.sender,device_id);\n        }\n        else {\n            uint256[] memory parts = disassemble(device_id);\n            uint i;\n            for(i=0;i<parts.length;i++){\n                dispose(parts[i]);\n            }\n        }\n    }\n\n    function _remove(uint256 device_id) private {\n        burn(device_id);\n        require(!_exists(device_id),\"fail to burn device nft.\");\n    }\n\n    function _recover(uint256 device_id) private {\n        bool success = safeMint(msg.sender,device_id);\n        require(success,\"fail to mint device nft.\");\n        string memory uri = uri_of_deviceId[device_id];\n        _setTokenURI(device_id, uri);\n    }\n\n    function _reset(uint256 device_id) private {\n        uri_of_deviceId[device_id] = \"\";\n    }\n\n    function _update_id() private returns(uint256) {\n        counter.increment();\n        return counter.current();\n    }\n}\n",
  "sourcePath": "/Users/suegamisora/GoogleDrive/projects/PDCN_contract/contracts/DeviceManager.sol",
  "compiler": {
    "name": "solc",
    "version": "0.5.5+commit.47a71e8f.Emscripten.clang"
  },
  "schemaVersion": "3.0.23",
  "updatedAt": "2020-02-09T14:16:25.030Z",
  "devdoc": {
    "methods": {
      "approve(address,uint256)": {
        "details": "Approves another address to transfer the given token ID The zero address indicates there is no approved address. There can only be one approved address per token at a given time. Can only be called by the token owner or an approved operator.",
        "params": {
          "to": "address to be approved for the given token ID",
          "tokenId": "uint256 ID of the token to be approved"
        }
      },
      "balanceOf(address)": {
        "details": "Gets the balance of the specified address.",
        "params": {
          "owner": "address to query the balance of"
        },
        "return": "uint256 representing the amount owned by the passed address"
      },
      "burn(uint256)": {
        "details": "Burns a specific ERC721 token.",
        "params": {
          "tokenId": "uint256 id of the ERC721 token to be burned."
        }
      },
      "getApproved(uint256)": {
        "details": "Gets the approved address for a token ID, or zero if no address set Reverts if the token ID does not exist.",
        "params": {
          "tokenId": "uint256 ID of the token to query the approval of"
        },
        "return": "address currently approved for the given token ID"
      },
      "isApprovedForAll(address,address)": {
        "details": "Tells whether an operator is approved by a given owner.",
        "params": {
          "operator": "operator address which you want to query the approval of",
          "owner": "owner address which you want to query the approval of"
        },
        "return": "bool whether the given operator is approved by the given owner"
      },
      "mint(address,uint256)": {
        "details": "Function to mint tokens.",
        "params": {
          "to": "The address that will receive the minted token.",
          "tokenId": "The token id to mint."
        },
        "return": "A boolean that indicates if the operation was successful."
      },
      "name()": {
        "details": "Gets the token name.",
        "return": "string representing the token name"
      },
      "ownerOf(uint256)": {
        "details": "Gets the owner of the specified token ID.",
        "params": {
          "tokenId": "uint256 ID of the token to query the owner of"
        },
        "return": "address currently marked as the owner of the given token ID"
      },
      "safeMint(address,uint256)": {
        "details": "Function to safely mint tokens.",
        "params": {
          "to": "The address that will receive the minted token.",
          "tokenId": "The token id to mint."
        },
        "return": "A boolean that indicates if the operation was successful."
      },
      "safeMint(address,uint256,bytes)": {
        "details": "Function to safely mint tokens.",
        "params": {
          "_data": "bytes data to send along with a safe transfer check.",
          "to": "The address that will receive the minted token.",
          "tokenId": "The token id to mint."
        },
        "return": "A boolean that indicates if the operation was successful."
      },
      "safeTransferFrom(address,address,uint256)": {
        "details": "Safely transfers the ownership of a given token ID to another address If the target address is a contract, it must implement {IERC721Receiver-onERC721Received}, which is called upon a safe transfer, and return the magic value `bytes4(keccak256(\"onERC721Received(address,address,uint256,bytes)\"))`; otherwise, the transfer is reverted. Requires the msg.sender to be the owner, approved, or operator",
        "params": {
          "from": "current owner of the token",
          "to": "address to receive the ownership of the given token ID",
          "tokenId": "uint256 ID of the token to be transferred"
        }
      },
      "safeTransferFrom(address,address,uint256,bytes)": {
        "details": "Safely transfers the ownership of a given token ID to another address If the target address is a contract, it must implement {IERC721Receiver-onERC721Received}, which is called upon a safe transfer, and return the magic value `bytes4(keccak256(\"onERC721Received(address,address,uint256,bytes)\"))`; otherwise, the transfer is reverted. Requires the _msgSender() to be the owner, approved, or operator",
        "params": {
          "_data": "bytes data to send along with a safe transfer check",
          "from": "current owner of the token",
          "to": "address to receive the ownership of the given token ID",
          "tokenId": "uint256 ID of the token to be transferred"
        }
      },
      "setApprovalForAll(address,bool)": {
        "details": "Sets or unsets the approval of a given operator An operator is allowed to transfer all tokens of the sender on their behalf.",
        "params": {
          "approved": "representing the status of the approval to be set",
          "to": "operator address to set the approval"
        }
      },
      "supportsInterface(bytes4)": {
        "details": "See {IERC165-supportsInterface}.     * Time complexity O(1), guaranteed to always use less than 30 000 gas."
      },
      "symbol()": {
        "details": "Gets the token symbol.",
        "return": "string representing the token symbol"
      },
      "tokenByIndex(uint256)": {
        "details": "Gets the token ID at a given index of all the tokens in this contract Reverts if the index is greater or equal to the total number of tokens.",
        "params": {
          "index": "uint256 representing the index to be accessed of the tokens list"
        },
        "return": "uint256 token ID at the given index of the tokens list"
      },
      "tokenOfOwnerByIndex(address,uint256)": {
        "details": "Gets the token ID at a given index of the tokens list of the requested owner.",
        "params": {
          "index": "uint256 representing the index to be accessed of the requested tokens list",
          "owner": "address owning the tokens list to be accessed"
        },
        "return": "uint256 token ID at the given index of the tokens list owned by the requested address"
      },
      "tokenURI(uint256)": {
        "details": "Returns an URI for a given token ID. Throws if the token ID does not exist. May return an empty string.",
        "params": {
          "tokenId": "uint256 ID of the token to query"
        }
      },
      "totalSupply()": {
        "details": "Gets the total amount of tokens stored by the contract.",
        "return": "uint256 representing the total amount of tokens"
      },
      "transferFrom(address,address,uint256)": {
        "details": "Transfers the ownership of a given token ID to another address. Usage of this method is discouraged, use {safeTransferFrom} whenever possible. Requires the msg.sender to be the owner, approved, or operator.",
        "params": {
          "from": "current owner of the token",
          "to": "address to receive the ownership of the given token ID",
          "tokenId": "uint256 ID of the token to be transferred"
        }
      }
    }
  },
  "userdoc": {
    "methods": {}
  }
}