{
  "contractName": "Existence",
  "abi": [
    {
      "constant": true,
      "inputs": [],
      "name": "flag",
      "outputs": [
        {
          "name": "",
          "type": "bool"
        }
      ],
      "payable": false,
      "stateMutability": "view",
      "type": "function"
    },
    {
      "inputs": [],
      "payable": false,
      "stateMutability": "nonpayable",
      "type": "constructor"
    },
    {
      "constant": false,
      "inputs": [],
      "name": "add",
      "outputs": [],
      "payable": false,
      "stateMutability": "nonpayable",
      "type": "function"
    },
    {
      "constant": false,
      "inputs": [],
      "name": "del",
      "outputs": [],
      "payable": false,
      "stateMutability": "nonpayable",
      "type": "function"
    }
  ],
  "bytecode": "0x608060405234801561001057600080fd5b5060008060006101000a81548160ff02191690831515021790555061011c8061003a6000396000f3fe608060405260043610604d576000357c0100000000000000000000000000000000000000000000000000000000900480634f2be91f146052578063890eba68146066578063b6588ffd146092575b600080fd5b348015605d57600080fd5b50606460a6565b005b348015607157600080fd5b50607860c2565b604051808215151515815260200191505060405180910390f35b348015609d57600080fd5b5060a460d4565b005b60016000806101000a81548160ff021916908315150217905550565b6000809054906101000a900460ff1681565b60008060006101000a81548160ff02191690831515021790555056fea165627a7a72305820a829121f8edb69a827d634085eb2ec04f692dc0f3519d29de4aa51f1ac3f54ca0029",
  "source": "pragma solidity >=0.5.1;\n\ncontract Pubkey {\n    uint8[64] public pubkey;\n\n    constructor(uint8[64] memory _pubkey) public {\n        require(_pubkey.length == 64);\n        pubkey = _pubkey;\n    }\n\n    function to_address() view public returns (address) {\n        return address(uint160(uint256(keccak256(abi.encode(pubkey)))));\n    }\n}\n\ncontract Sha256 {\n    bytes32 public digest;\n\n    constructor(bytes32 _hash) public {\n        digest = _hash;\n    }\n\n    function generate(bytes memory _input) public returns (Sha256){\n        digest = sha256(_input);\n        return this;\n    }\n}\n\ncontract Signature {\n    bytes public signature;\n\n    constructor(bytes memory _signature) public {\n        require(_signature.length == 65,\"invalid length of the given signature\");\n        signature = _signature;\n    }\n\n    function verify(Sha256 _hash, address _signer) public view returns (bool) {\n        bytes32 r;\n        bytes32 s;\n        uint8 v;\n\n        bytes memory sig = signature;\n\n        assembly {\n            r := mload(add(sig, 32))\n            s := mload(add(sig, 64))\n            v := byte(0, mload(add(sig, 96)))\n        }\n\n        if (v < 27) {\n            v += 27;\n        }\n\n        bytes memory prefix = \"\\x19Ethereum Signed Message:\\n32\";\n        bytes32 prefixedHash = sha256(abi.encode(prefix, _hash.digest));\n\n        require(v == 27 || v == 28, \"invalid signature version\");\n        address recovered_address = ecrecover(prefixedHash, v, r, s);\n        require(recovered_address != address(0x0), \"recovered address is zero\");\n\n        return _signer == recovered_address;\n    }\n}\n\n\ncontract Existence {\n    bool public flag;\n\n    constructor() public {\n        flag = false;\n    }\n\n    function add() public {\n        flag = true;\n    }\n\n    function del() public {\n        flag = false;\n    }\n}\n\n",
  "sourcePath": "/Users/suegamisora/GoogleDrive/projects/propagative_tee_contracts/contracts/primitive.sol",
  "compiler": {
    "name": "solc",
    "version": "0.5.1+commit.c8a2cb62.Emscripten.clang"
  },
  "schemaVersion": "3.0.9",
  "updatedAt": "2020-01-28T08:21:10.229Z",
  "devdoc": {
    "methods": {}
  },
  "userdoc": {
    "methods": {}
  }
}