{
  "contractName": "MatchingMarket",
  "abi": [
    {
      "constant": true,
      "inputs": [
        {
          "name": "",
          "type": "bytes32"
        }
      ],
      "name": "deposits",
      "outputs": [
        {
          "name": "",
          "type": "uint256"
        }
      ],
      "payable": false,
      "stateMutability": "view",
      "type": "function"
    },
    {
      "constant": true,
      "inputs": [
        {
          "name": "",
          "type": "bytes32"
        }
      ],
      "name": "proofs",
      "outputs": [
        {
          "name": "",
          "type": "address"
        }
      ],
      "payable": false,
      "stateMutability": "view",
      "type": "function"
    },
    {
      "constant": true,
      "inputs": [
        {
          "name": "",
          "type": "address"
        }
      ],
      "name": "nonces",
      "outputs": [
        {
          "name": "",
          "type": "uint256"
        }
      ],
      "payable": false,
      "stateMutability": "view",
      "type": "function"
    },
    {
      "constant": true,
      "inputs": [
        {
          "name": "",
          "type": "bytes32"
        }
      ],
      "name": "requests",
      "outputs": [
        {
          "name": "",
          "type": "address"
        }
      ],
      "payable": false,
      "stateMutability": "view",
      "type": "function"
    },
    {
      "constant": false,
      "inputs": [
        {
          "name": "_client",
          "type": "address"
        },
        {
          "name": "_node_id",
          "type": "address"
        },
        {
          "name": "_circuit_digest",
          "type": "address"
        },
        {
          "name": "_input_digest",
          "type": "address"
        },
        {
          "name": "_expired",
          "type": "uint256"
        },
        {
          "name": "_witness",
          "type": "address"
        }
      ],
      "name": "register",
      "outputs": [],
      "payable": true,
      "stateMutability": "payable",
      "type": "function"
    },
    {
      "constant": false,
      "inputs": [
        {
          "name": "_node_id",
          "type": "address"
        },
        {
          "name": "_request_id",
          "type": "address"
        },
        {
          "name": "_result_digest",
          "type": "address"
        },
        {
          "name": "_witness",
          "type": "address"
        }
      ],
      "name": "complete",
      "outputs": [],
      "payable": false,
      "stateMutability": "nonpayable",
      "type": "function"
    },
    {
      "constant": false,
      "inputs": [
        {
          "name": "_key",
          "type": "bytes32"
        },
        {
          "name": "_witness",
          "type": "address"
        }
      ],
      "name": "cancel",
      "outputs": [],
      "payable": false,
      "stateMutability": "nonpayable",
      "type": "function"
    },
    {
      "constant": true,
      "inputs": [
        {
          "name": "_key",
          "type": "bytes32"
        }
      ],
      "name": "search",
      "outputs": [
        {
          "name": "exist",
          "type": "bool"
        },
        {
          "name": "request",
          "type": "address"
        }
      ],
      "payable": false,
      "stateMutability": "view",
      "type": "function"
    }
  ],
  "bytecode": "0x608060405261000c61007b565b604051809103906000f080158015610028573d6000803e3d6000fd5b50600460006101000a81548173ffffffffffffffffffffffffffffffffffffffff021916908373ffffffffffffffffffffffffffffffffffffffff16021790555034801561007557600080fd5b5061008c565b6040516138988062003ce883390190565b613c4c806200009c6000396000f3fe608060405260043610610088576000357c01000000000000000000000000000000000000000000000000000000009004806322cae9a21461008d57806331b8a697146100e85780633d4dff7b1461016e578063444d95b0146101bd57806366a13ec4146102385780637ecebe00146103065780639d8669851461036b578063ab245e4e146103e6575b600080fd5b34801561009957600080fd5b506100e6600480360360408110156100b057600080fd5b8101908080359060200190929190803573ffffffffffffffffffffffffffffffffffffffff169060200190929190505050610497565b005b3480156100f457600080fd5b506101216004803603602081101561010b57600080fd5b8101908080359060200190929190505050610aea565b60405180831515151581526020018273ffffffffffffffffffffffffffffffffffffffff1673ffffffffffffffffffffffffffffffffffffffff1681526020019250505060405180910390f35b34801561017a57600080fd5b506101a76004803603602081101561019157600080fd5b8101908080359060200190929190505050610c80565b6040518082815260200191505060405180910390f35b3480156101c957600080fd5b506101f6600480360360208110156101e057600080fd5b8101908080359060200190929190505050610c98565b604051808273ffffffffffffffffffffffffffffffffffffffff1673ffffffffffffffffffffffffffffffffffffffff16815260200191505060405180910390f35b610304600480360360c081101561024e57600080fd5b81019080803573ffffffffffffffffffffffffffffffffffffffff169060200190929190803573ffffffffffffffffffffffffffffffffffffffff169060200190929190803573ffffffffffffffffffffffffffffffffffffffff169060200190929190803573ffffffffffffffffffffffffffffffffffffffff16906020019092919080359060200190929190803573ffffffffffffffffffffffffffffffffffffffff169060200190929190505050610ccb565b005b34801561031257600080fd5b506103556004803603602081101561032957600080fd5b81019080803573ffffffffffffffffffffffffffffffffffffffff169060200190929190505050611429565b6040518082815260200191505060405180910390f35b34801561037757600080fd5b506103a46004803603602081101561038e57600080fd5b8101908080359060200190929190505050611441565b604051808273ffffffffffffffffffffffffffffffffffffffff1673ffffffffffffffffffffffffffffffffffffffff16815260200191505060405180910390f35b3480156103f257600080fd5b506104956004803603608081101561040957600080fd5b81019080803573ffffffffffffffffffffffffffffffffffffffff169060200190929190803573ffffffffffffffffffffffffffffffffffffffff169060200190929190803573ffffffffffffffffffffffffffffffffffffffff169060200190929190803573ffffffffffffffffffffffffffffffffffffffff169060200190929190505050611474565b005b6000806104a384610aea565b91509150600115158215151480156105f457508073ffffffffffffffffffffffffffffffffffffffff166352a82b656040518163ffffffff167c0100000000000000000000000000000000000000000000000000000000028152600401602060405180830381600087803b15801561051a57600080fd5b505af115801561052e573d6000803e3d6000fd5b505050506040513d602081101561054457600080fd5b810190808051906020019092919050505073ffffffffffffffffffffffffffffffffffffffff166352a82b656040518163ffffffff167c010000000000000000000000000000000000000000000000000000000002815260040160206040518083038186803b1580156105b657600080fd5b505afa1580156105ca573d6000803e3d6000fd5b505050506040513d60208110156105e057600080fd5b810190808051906020019092919050505084145b1515610668576040517f08c379a000000000000000000000000000000000000000000000000000000000815260040180806020018281038252601a8152602001807f746865207265717565737420646f6573206e6f7420657869737400000000000081525060200191505060405180910390fd5b60008173ffffffffffffffffffffffffffffffffffffffff1663109e94cf6040518163ffffffff167c010000000000000000000000000000000000000000000000000000000002815260040160206040518083038186803b1580156106cc57600080fd5b505afa1580156106e0573d6000803e3d6000fd5b505050506040513d60208110156106f657600080fd5b810190808051906020019092919050505090506000806001026107176120e3565b80828152602001915050604051809103906000f08015801561073d573d6000803e3d6000fd5b5073ffffffffffffffffffffffffffffffffffffffff16636450a322608060405190810160405280605a81526020017f343336313665363336353663323037323635373137353635373337343230366681526020017f363632303730373236663730363136373631373436393736363532303534343581526020017f3435323036333666366437303735373436313734363936663665000000000000815250886040516020018080602001838152602001828103825284818151815260200191508051906020019080838360005b8381101561082657808201518184015260208101905061080b565b50505050905090810190601f1680156108535780820380516001836020036101000a031916815260200191505b5093505050506040516020818303038152906040526040518263ffffffff167c01000000000000000000000000000000000000000000000000000000000281526004018080602001828103825283818151815260200191508051906020019080838360005b838110156108d35780820151818401526020810190506108b8565b50505050905090810190601f1680156109005780820380516001836020036101000a031916815260200191505b5092505050602060405180830381600087803b15801561091f57600080fd5b505af1158015610933573d6000803e3d6000fd5b505050506040513d602081101561094957600080fd5b810190808051906020019092919050505090508473ffffffffffffffffffffffffffffffffffffffff16632c2146aa82846040518363ffffffff167c0100000000000000000000000000000000000000000000000000000000028152600401808373ffffffffffffffffffffffffffffffffffffffff1673ffffffffffffffffffffffffffffffffffffffff1681526020018273ffffffffffffffffffffffffffffffffffffffff1673ffffffffffffffffffffffffffffffffffffffff1681526020019250505060206040518083038186803b158015610a2957600080fd5b505afa158015610a3d573d6000803e3d6000fd5b505050506040513d6020811015610a5357600080fd5b81019080805190602001909291905050501515610ad8576040517f08c379a00000000000000000000000000000000000000000000000000000000081526004018080602001828103825260118152602001807f696e76616c6964207369676e617475726500000000000000000000000000000081525060200191505060405180910390fd5b610ae28683612066565b505050505050565b60008060008084815260200190815260200160002060009054906101000a900473ffffffffffffffffffffffffffffffffffffffff169050600115158173ffffffffffffffffffffffffffffffffffffffff16637472abf96040518163ffffffff167c010000000000000000000000000000000000000000000000000000000002815260040160206040518083038186803b158015610b8857600080fd5b505afa158015610b9c573d6000803e3d6000fd5b505050506040513d6020811015610bb257600080fd5b810190808051906020019092919050505073ffffffffffffffffffffffffffffffffffffffff1663890eba686040518163ffffffff167c010000000000000000000000000000000000000000000000000000000002815260040160206040518083038186803b158015610c2457600080fd5b505afa158015610c38573d6000803e3d6000fd5b505050506040513d6020811015610c4e57600080fd5b810190808051906020019092919050505015151415610c735760018191509150610c7b565b600081915091505b915091565b60016020528060005260406000206000915090505481565b60026020528060005260406000206000915054906101000a900473ffffffffffffffffffffffffffffffffffffffff1681565b6000600360008873ffffffffffffffffffffffffffffffffffffffff1673ffffffffffffffffffffffffffffffffffffffff16815260200190815260200160002054905060008110158015610d3f57507fffffffffffffffffffffffffffffffffffffffffffffffffffffffffffffffff81105b1515610db3576040517f08c379a00000000000000000000000000000000000000000000000000000000081526004018080602001828103825260178152602001807f746865206e6f6e6365206973206d6178206e756d62657200000000000000000081525060200191505060405180910390fd5b8243101515610e2a576040517f08c379a00000000000000000000000000000000000000000000000000000000081526004018080602001828103825260138152602001807f696e76616c6964206578706972652074696d650000000000000000000000000081525060200191505060405180910390fd5b60008734888888888789610e3c6120f3565b808973ffffffffffffffffffffffffffffffffffffffff1673ffffffffffffffffffffffffffffffffffffffff1681526020018881526020018773ffffffffffffffffffffffffffffffffffffffff1673ffffffffffffffffffffffffffffffffffffffff1681526020018673ffffffffffffffffffffffffffffffffffffffff1673ffffffffffffffffffffffffffffffffffffffff1681526020018573ffffffffffffffffffffffffffffffffffffffff1673ffffffffffffffffffffffffffffffffffffffff1681526020018481526020018381526020018273ffffffffffffffffffffffffffffffffffffffff1673ffffffffffffffffffffffffffffffffffffffff16815260200198505050505050505050604051809103906000f080158015610f6f573d6000803e3d6000fd5b5090508073ffffffffffffffffffffffffffffffffffffffff1663fc735e996040518163ffffffff167c0100000000000000000000000000000000000000000000000000000000028152600401602060405180830381600087803b158015610fd657600080fd5b505af1158015610fea573d6000803e3d6000fd5b505050506040513d602081101561100057600080fd5b81019080805190602001909291905050501515611085576040517f08c379a000000000000000000000000000000000000000000000000000000000815260040180806020018281038252600f8152602001807f696e76616c69642072657175657374000000000000000000000000000000000081525060200191505060405180910390fd5b60008173ffffffffffffffffffffffffffffffffffffffff166352a82b656040518163ffffffff167c0100000000000000000000000000000000000000000000000000000000028152600401602060405180830381600087803b1580156110eb57600080fd5b505af11580156110ff573d6000803e3d6000fd5b505050506040513d602081101561111557600080fd5b810190808051906020019092919050505073ffffffffffffffffffffffffffffffffffffffff166352a82b656040518163ffffffff167c010000000000000000000000000000000000000000000000000000000002815260040160206040518083038186803b15801561118757600080fd5b505afa15801561119b573d6000803e3d6000fd5b505050506040513d60208110156111b157600080fd5b8101908080519060200190929190505050905060006111cf82610aea565b5090506000151581151514151561124e576040517f08c379a000000000000000000000000000000000000000000000000000000000815260040180806020018281038252601a8152602001807f746865207265717565737420616c72656164792065786973747300000000000081525060200191505060405180910390fd5b8273ffffffffffffffffffffffffffffffffffffffff16637472abf96040518163ffffffff167c010000000000000000000000000000000000000000000000000000000002815260040160206040518083038186803b1580156112b057600080fd5b505afa1580156112c4573d6000803e3d6000fd5b505050506040513d60208110156112da57600080fd5b810190808051906020019092919050505073ffffffffffffffffffffffffffffffffffffffff16634f2be91f6040518163ffffffff167c0100000000000000000000000000000000000000000000000000000000028152600401600060405180830381600087803b15801561134e57600080fd5b505af1158015611362573d6000803e3d6000fd5b505050508260008084815260200190815260200160002060006101000a81548173ffffffffffffffffffffffffffffffffffffffff021916908373ffffffffffffffffffffffffffffffffffffffff1602179055506001600360008c73ffffffffffffffffffffffffffffffffffffffff1673ffffffffffffffffffffffffffffffffffffffff1681526020019081526020016000206000828254019250508190555034600160008481526020019081526020016000208190555050505050505050505050565b60036020528060005260406000206000915090505481565b60006020528060005260406000206000915054906101000a900473ffffffffffffffffffffffffffffffffffffffff1681565b60008373ffffffffffffffffffffffffffffffffffffffff166352a82b656040518163ffffffff167c010000000000000000000000000000000000000000000000000000000002815260040160206040518083038186803b1580156114d857600080fd5b505afa1580156114ec573d6000803e3d6000fd5b505050506040513d602081101561150257600080fd5b8101908080519060200190929190505050905060008061152183610aea565b915091506001151582151514801561167257508073ffffffffffffffffffffffffffffffffffffffff166352a82b656040518163ffffffff167c0100000000000000000000000000000000000000000000000000000000028152600401602060405180830381600087803b15801561159857600080fd5b505af11580156115ac573d6000803e3d6000fd5b505050506040513d60208110156115c257600080fd5b810190808051906020019092919050505073ffffffffffffffffffffffffffffffffffffffff166352a82b656040518163ffffffff167c010000000000000000000000000000000000000000000000000000000002815260040160206040518083038186803b15801561163457600080fd5b505afa158015611648573d6000803e3d6000fd5b505050506040513d602081101561165e57600080fd5b810190808051906020019092919050505083145b15156116e6576040517f08c379a000000000000000000000000000000000000000000000000000000000815260040180806020018281038252601a8152602001807f746865207265717565737420646f6573206e6f7420657869737400000000000081525060200191505060405180910390fd5b8073ffffffffffffffffffffffffffffffffffffffff16634c2067c76040518163ffffffff167c010000000000000000000000000000000000000000000000000000000002815260040160206040518083038186803b15801561174857600080fd5b505afa15801561175c573d6000803e3d6000fd5b505050506040513d602081101561177257600080fd5b8101908080519060200190929190505050431015156117f9576040517f08c379a00000000000000000000000000000000000000000000000000000000081526004018080602001828103825260168152602001807f746865207265717565737420697320657870697265640000000000000000000081525060200191505060405180910390fd5b600015156002600085815260200190815260200160002060009054906101000a900473ffffffffffffffffffffffffffffffffffffffff1673ffffffffffffffffffffffffffffffffffffffff16637472abf96040518163ffffffff167c010000000000000000000000000000000000000000000000000000000002815260040160206040518083038186803b15801561189257600080fd5b505afa1580156118a6573d6000803e3d6000fd5b505050506040513d60208110156118bc57600080fd5b810190808051906020019092919050505073ffffffffffffffffffffffffffffffffffffffff1663890eba686040518163ffffffff167c010000000000000000000000000000000000000000000000000000000002815260040160206040518083038186803b15801561192e57600080fd5b505afa158015611942573d6000803e3d6000fd5b505050506040513d602081101561195857600080fd5b810190808051906020019092919050505015151415156119e0576040517f08c379a00000000000000000000000000000000000000000000000000000000081526004018080602001828103825260188152602001807f7468652070726f6f6620616c726561647920657869737473000000000000000081525060200191505060405180910390fd5b600080600460009054906101000a900473ffffffffffffffffffffffffffffffffffffffff1673ffffffffffffffffffffffffffffffffffffffff1663657a25128a6040518263ffffffff167c0100000000000000000000000000000000000000000000000000000000028152600401808273ffffffffffffffffffffffffffffffffffffffff1673ffffffffffffffffffffffffffffffffffffffff168152602001915050604080518083038186803b158015611a9d57600080fd5b505afa158015611ab1573d6000803e3d6000fd5b505050506040513d6040811015611ac757600080fd5b8101908080519060200190929190805190602001909291905050509150915060011515821515141515611b62576040517f08c379a00000000000000000000000000000000000000000000000000000000081526004018080602001828103825260178152602001807f746865206e6f646520646f6573206e6f7420657869737400000000000000000081525060200191505060405180910390fd5b600089898989611b70612103565b808573ffffffffffffffffffffffffffffffffffffffff1673ffffffffffffffffffffffffffffffffffffffff1681526020018473ffffffffffffffffffffffffffffffffffffffff1673ffffffffffffffffffffffffffffffffffffffff1681526020018373ffffffffffffffffffffffffffffffffffffffff1673ffffffffffffffffffffffffffffffffffffffff1681526020018273ffffffffffffffffffffffffffffffffffffffff1673ffffffffffffffffffffffffffffffffffffffff168152602001945050505050604051809103906000f080158015611c5b573d6000803e3d6000fd5b5090508073ffffffffffffffffffffffffffffffffffffffff166363a9c3d7836040518263ffffffff167c0100000000000000000000000000000000000000000000000000000000028152600401808273ffffffffffffffffffffffffffffffffffffffff1673ffffffffffffffffffffffffffffffffffffffff168152602001915050602060405180830381600087803b158015611cf957600080fd5b505af1158015611d0d573d6000803e3d6000fd5b505050506040513d6020811015611d2357600080fd5b81019080805190602001909291905050501515611da8576040517f08c379a000000000000000000000000000000000000000000000000000000000815260040180806020018281038252600d8152602001807f696e76616c69642070726f6f660000000000000000000000000000000000000081525060200191505060405180910390fd5b60008273ffffffffffffffffffffffffffffffffffffffff1663484d59e66040518163ffffffff167c010000000000000000000000000000000000000000000000000000000002815260040160206040518083038186803b158015611e0c57600080fd5b505afa158015611e20573d6000803e3d6000fd5b505050506040513d6020811015611e3657600080fd5b810190808051906020019092919050505073ffffffffffffffffffffffffffffffffffffffff1663e19391f86040518163ffffffff167c010000000000000000000000000000000000000000000000000000000002815260040160206040518083038186803b158015611ea857600080fd5b505afa158015611ebc573d6000803e3d6000fd5b505050506040513d6020811015611ed257600080fd5b810190808051906020019092919050505090508173ffffffffffffffffffffffffffffffffffffffff16637472abf96040518163ffffffff167c010000000000000000000000000000000000000000000000000000000002815260040160206040518083038186803b158015611f4757600080fd5b505afa158015611f5b573d6000803e3d6000fd5b505050506040513d6020811015611f7157600080fd5b810190808051906020019092919050505073ffffffffffffffffffffffffffffffffffffffff16634f2be91f6040518163ffffffff167c0100000000000000000000000000000000000000000000000000000000028152600401600060405180830381600087803b158015611fe557600080fd5b505af1158015611ff9573d6000803e3d6000fd5b50505050816002600089815260200190815260200160002060006101000a81548173ffffffffffffffffffffffffffffffffffffffff021916908373ffffffffffffffffffffffffffffffffffffffff1602179055506120598782612066565b5050505050505050505050565b600060016000848152602001908152602001600020549050600060016000858152602001908152602001600020819055508173ffffffffffffffffffffffffffffffffffffffff166108fc829081150290604051600060405180830381858888f193505050501580156120dd573d6000803e3d6000fd5b50505050565b6040516102b88061211483390190565b604051610e99806123cc83390190565b6040516109bc806132658339019056fe608060405234801561001057600080fd5b506040516020806102b88339810180604052602081101561003057600080fd5b81019080805190602001909291905050508060008190555050610260806100586000396000f3fe608060405260043610610046576000357c01000000000000000000000000000000000000000000000000000000009004806352a82b651461004b5780636450a32214610076575b600080fd5b34801561005757600080fd5b5061006061017e565b6040518082815260200191505060405180910390f35b34801561008257600080fd5b5061013c6004803603602081101561009957600080fd5b81019080803590602001906401000000008111156100b657600080fd5b8201836020820111156100c857600080fd5b803590602001918460018302840111640100000000831117156100ea57600080fd5b91908080601f016020809104026020016040519081016040528093929190818152602001838380828437600081840152601f19601f820116905080830192505050505050509192919290505050610184565b604051808273ffffffffffffffffffffffffffffffffffffffff1673ffffffffffffffffffffffffffffffffffffffff16815260200191505060405180910390f35b60005481565b60006002826040518082805190602001908083835b6020831015156101be5780518252602082019150602081019050602083039250610199565b6001836020036101000a038019825116818451168082178552505050505050905001915050602060405180830381855afa158015610200573d6000803e3d6000fd5b5050506040513d602081101561021557600080fd5b810190808051906020019092919050505060008190555030905091905056fea165627a7a7230582044c1d3330dd72fe986e23b6cdf03ebd121613b08964cc61ac3b914c8b864cf280029608060405234801561001057600080fd5b5060405161010080610e99833981018060405261010081101561003257600080fd5b810190808051906020019092919080519060200190929190805190602001909291908051906020019092919080519060200190929190805190602001909291908051906020019092919080519060200190929190505050600073ffffffffffffffffffffffffffffffffffffffff168873ffffffffffffffffffffffffffffffffffffffff161415151561012e576040517f08c379a00000000000000000000000000000000000000000000000000000000081526004018080602001828103825260138152602001807f7468652061646472657373206973207a65726f0000000000000000000000000081525060200191505060405180910390fd5b876000806101000a81548173ffffffffffffffffffffffffffffffffffffffff021916908373ffffffffffffffffffffffffffffffffffffffff1602179055508660018190555085600260006101000a81548173ffffffffffffffffffffffffffffffffffffffff021916908373ffffffffffffffffffffffffffffffffffffffff16021790555084600360006101000a81548173ffffffffffffffffffffffffffffffffffffffff021916908373ffffffffffffffffffffffffffffffffffffffff16021790555083600460006101000a81548173ffffffffffffffffffffffffffffffffffffffff021916908373ffffffffffffffffffffffffffffffffffffffff160217905550826005819055508160068190555080600760006101000a81548173ffffffffffffffffffffffffffffffffffffffff021916908373ffffffffffffffffffffffffffffffffffffffff1602179055505050505050505050610bfb8061029e6000396000f3fe6080604052600436106100a9576000357c010000000000000000000000000000000000000000000000000000000090048063109e94cf146100ae5780631b8a3d731461010557806339046e8b1461015c5780633fa4f245146101b35780634c2067c7146101de57806352a82b65146102095780636a6df75b146102605780637472abf9146102b7578063affed0e01461030e578063e402e88314610339578063fc735e9914610390575b600080fd5b3480156100ba57600080fd5b506100c36103bf565b604051808273ffffffffffffffffffffffffffffffffffffffff1673ffffffffffffffffffffffffffffffffffffffff16815260200191505060405180910390f35b34801561011157600080fd5b5061011a6103e4565b604051808273ffffffffffffffffffffffffffffffffffffffff1673ffffffffffffffffffffffffffffffffffffffff16815260200191505060405180910390f35b34801561016857600080fd5b5061017161040a565b604051808273ffffffffffffffffffffffffffffffffffffffff1673ffffffffffffffffffffffffffffffffffffffff16815260200191505060405180910390f35b3480156101bf57600080fd5b506101c8610430565b6040518082815260200191505060405180910390f35b3480156101ea57600080fd5b506101f3610436565b6040518082815260200191505060405180910390f35b34801561021557600080fd5b5061021e61043c565b604051808273ffffffffffffffffffffffffffffffffffffffff1673ffffffffffffffffffffffffffffffffffffffff16815260200191505060405180910390f35b34801561026c57600080fd5b50610275610731565b604051808273ffffffffffffffffffffffffffffffffffffffff1673ffffffffffffffffffffffffffffffffffffffff16815260200191505060405180910390f35b3480156102c357600080fd5b506102cc610757565b604051808273ffffffffffffffffffffffffffffffffffffffff1673ffffffffffffffffffffffffffffffffffffffff16815260200191505060405180910390f35b34801561031a57600080fd5b5061032361077d565b6040518082815260200191505060405180910390f35b34801561034557600080fd5b5061034e610783565b604051808273ffffffffffffffffffffffffffffffffffffffff1673ffffffffffffffffffffffffffffffffffffffff16815260200191505060405180910390f35b34801561039c57600080fd5b506103a56107a9565b604051808215151515815260200191505060405180910390f35b6000809054906101000a900473ffffffffffffffffffffffffffffffffffffffff1681565b600360009054906101000a900473ffffffffffffffffffffffffffffffffffffffff1681565b600760009054906101000a900473ffffffffffffffffffffffffffffffffffffffff1681565b60015481565b60055481565b60008060010261044a610907565b80828152602001915050604051809103906000f080158015610470573d6000803e3d6000fd5b5073ffffffffffffffffffffffffffffffffffffffff16636450a3226000809054906101000a900473ffffffffffffffffffffffffffffffffffffffff16600154600260009054906101000a900473ffffffffffffffffffffffffffffffffffffffff1673ffffffffffffffffffffffffffffffffffffffff166352a82b65600360009054906101000a900473ffffffffffffffffffffffffffffffffffffffff1673ffffffffffffffffffffffffffffffffffffffff166352a82b65600460009054906101000a900473ffffffffffffffffffffffffffffffffffffffff1673ffffffffffffffffffffffffffffffffffffffff166352a82b65600554600654604051602001808b73ffffffffffffffffffffffffffffffffffffffff1673ffffffffffffffffffffffffffffffffffffffff1681526020018a8152602001898963ffffffff1690640100000000021768010000000000000000028152602001878763ffffffff1690640100000000021768010000000000000000028152602001858563ffffffff16906401000000000217680100000000000000000281526020018381526020018281526020019a50505050505050505050506040516020818303038152906040526040518263ffffffff167c01000000000000000000000000000000000000000000000000000000000281526004018080602001828103825283818151815260200191508051906020019080838360005b838110156106a557808201518184015260208101905061068a565b50505050905090810190601f1680156106d25780820380516001836020036101000a031916815260200191505b5092505050602060405180830381600087803b1580156106f157600080fd5b505af1158015610705573d6000803e3d6000fd5b505050506040513d602081101561071b57600080fd5b8101908080519060200190929190505050905090565b600460009054906101000a900473ffffffffffffffffffffffffffffffffffffffff1681565b600860009054906101000a900473ffffffffffffffffffffffffffffffffffffffff1681565b60065481565b600260009054906101000a900473ffffffffffffffffffffffffffffffffffffffff1681565b6000806107b461043c565b9050600760009054906101000a900473ffffffffffffffffffffffffffffffffffffffff1673ffffffffffffffffffffffffffffffffffffffff16632c2146aa826000809054906101000a900473ffffffffffffffffffffffffffffffffffffffff166040518363ffffffff167c0100000000000000000000000000000000000000000000000000000000028152600401808373ffffffffffffffffffffffffffffffffffffffff1673ffffffffffffffffffffffffffffffffffffffff1681526020018273ffffffffffffffffffffffffffffffffffffffff1673ffffffffffffffffffffffffffffffffffffffff1681526020019250505060206040518083038186803b1580156108c657600080fd5b505afa1580156108da573d6000803e3d6000fd5b505050506040513d60208110156108f057600080fd5b810190808051906020019092919050505091505090565b6040516102b8806109188339019056fe608060405234801561001057600080fd5b506040516020806102b88339810180604052602081101561003057600080fd5b81019080805190602001909291905050508060008190555050610260806100586000396000f3fe608060405260043610610046576000357c01000000000000000000000000000000000000000000000000000000009004806352a82b651461004b5780636450a32214610076575b600080fd5b34801561005757600080fd5b5061006061017e565b6040518082815260200191505060405180910390f35b34801561008257600080fd5b5061013c6004803603602081101561009957600080fd5b81019080803590602001906401000000008111156100b657600080fd5b8201836020820111156100c857600080fd5b803590602001918460018302840111640100000000831117156100ea57600080fd5b91908080601f016020809104026020016040519081016040528093929190818152602001838380828437600081840152601f19601f820116905080830192505050505050509192919290505050610184565b604051808273ffffffffffffffffffffffffffffffffffffffff1673ffffffffffffffffffffffffffffffffffffffff16815260200191505060405180910390f35b60005481565b60006002826040518082805190602001908083835b6020831015156101be5780518252602082019150602081019050602083039250610199565b6001836020036101000a038019825116818451168082178552505050505050905001915050602060405180830381855afa158015610200573d6000803e3d6000fd5b5050506040513d602081101561021557600080fd5b810190808051906020019092919050505060008190555030905091905056fea165627a7a7230582044c1d3330dd72fe986e23b6cdf03ebd121613b08964cc61ac3b914c8b864cf280029a165627a7a723058207efb4b130392ccea251ddfccc220f0dd07fd08631d4bd8168d6182c2a9be42840029608060405234801561001057600080fd5b506040516080806109bc8339810180604052608081101561003057600080fd5b8101908080519060200190929190805190602001909291908051906020019092919080519060200190929190505050836000806101000a81548173ffffffffffffffffffffffffffffffffffffffff021916908373ffffffffffffffffffffffffffffffffffffffff16021790555082600160006101000a81548173ffffffffffffffffffffffffffffffffffffffff021916908373ffffffffffffffffffffffffffffffffffffffff16021790555081600260006101000a81548173ffffffffffffffffffffffffffffffffffffffff021916908373ffffffffffffffffffffffffffffffffffffffff16021790555080600360006101000a81548173ffffffffffffffffffffffffffffffffffffffff021916908373ffffffffffffffffffffffffffffffffffffffff16021790555050505050610847806101756000396000f3fe608060405260043610610051576000357c01000000000000000000000000000000000000000000000000000000009004806352a82b651461005657806363a9c3d7146100ad5780637472abf914610116575b600080fd5b34801561006257600080fd5b5061006b61016d565b604051808273ffffffffffffffffffffffffffffffffffffffff1673ffffffffffffffffffffffffffffffffffffffff16815260200191505060405180910390f35b3480156100b957600080fd5b506100fc600480360360208110156100d057600080fd5b81019080803573ffffffffffffffffffffffffffffffffffffffff1690602001909291905050506103ee565b604051808215151515815260200191505060405180910390f35b34801561012257600080fd5b5061012b61052d565b604051808273ffffffffffffffffffffffffffffffffffffffff1673ffffffffffffffffffffffffffffffffffffffff16815260200191505060405180910390f35b60008060010261017b610553565b80828152602001915050604051809103906000f0801580156101a1573d6000803e3d6000fd5b5073ffffffffffffffffffffffffffffffffffffffff16636450a3226000809054906101000a900473ffffffffffffffffffffffffffffffffffffffff1673ffffffffffffffffffffffffffffffffffffffff166352a82b65600160009054906101000a900473ffffffffffffffffffffffffffffffffffffffff1673ffffffffffffffffffffffffffffffffffffffff166352a82b65600260009054906101000a900473ffffffffffffffffffffffffffffffffffffffff1673ffffffffffffffffffffffffffffffffffffffff166352a82b6560405160200180878763ffffffff1690640100000000021768010000000000000000028152602001858563ffffffff1690640100000000021768010000000000000000028152602001838363ffffffff169064010000000002176801000000000000000002815260200196505050505050506040516020818303038152906040526040518263ffffffff167c01000000000000000000000000000000000000000000000000000000000281526004018080602001828103825283818151815260200191508051906020019080838360005b83811015610362578082015181840152602081019050610347565b50505050905090810190601f16801561038f5780820380516001836020036101000a031916815260200191505b5092505050602060405180830381600087803b1580156103ae57600080fd5b505af11580156103c2573d6000803e3d6000fd5b505050506040513d60208110156103d857600080fd5b8101908080519060200190929190505050905090565b6000806103f961016d565b90508273ffffffffffffffffffffffffffffffffffffffff1663a5d4b01e82600360009054906101000a900473ffffffffffffffffffffffffffffffffffffffff166040518363ffffffff167c0100000000000000000000000000000000000000000000000000000000028152600401808373ffffffffffffffffffffffffffffffffffffffff1673ffffffffffffffffffffffffffffffffffffffff1681526020018273ffffffffffffffffffffffffffffffffffffffff1673ffffffffffffffffffffffffffffffffffffffff1681526020019250505060206040518083038186803b1580156104ea57600080fd5b505afa1580156104fe573d6000803e3d6000fd5b505050506040513d602081101561051457600080fd5b8101908080519060200190929190505050915050919050565b600460009054906101000a900473ffffffffffffffffffffffffffffffffffffffff1681565b6040516102b8806105648339019056fe608060405234801561001057600080fd5b506040516020806102b88339810180604052602081101561003057600080fd5b81019080805190602001909291905050508060008190555050610260806100586000396000f3fe608060405260043610610046576000357c01000000000000000000000000000000000000000000000000000000009004806352a82b651461004b5780636450a32214610076575b600080fd5b34801561005757600080fd5b5061006061017e565b6040518082815260200191505060405180910390f35b34801561008257600080fd5b5061013c6004803603602081101561009957600080fd5b81019080803590602001906401000000008111156100b657600080fd5b8201836020820111156100c857600080fd5b803590602001918460018302840111640100000000831117156100ea57600080fd5b91908080601f016020809104026020016040519081016040528093929190818152602001838380828437600081840152601f19601f820116905080830192505050505050509192919290505050610184565b604051808273ffffffffffffffffffffffffffffffffffffffff1673ffffffffffffffffffffffffffffffffffffffff16815260200191505060405180910390f35b60005481565b60006002826040518082805190602001908083835b6020831015156101be5780518252602082019150602081019050602083039250610199565b6001836020036101000a038019825116818451168082178552505050505050905001915050602060405180830381855afa158015610200573d6000803e3d6000fd5b5050506040513d602081101561021557600080fd5b810190808051906020019092919050505060008190555030905091905056fea165627a7a7230582044c1d3330dd72fe986e23b6cdf03ebd121613b08964cc61ac3b914c8b864cf280029a165627a7a7230582075c824fafd624399ce13f823443a85fbe12e26c7c9363a25180ff14631dea50f0029a165627a7a723058209e720e2b6889d5368ced211aa6bd301a8b85c471b4870a2952957a08d47c18df0029608060405234801561001057600080fd5b50613878806100206000396000f3fe60806040526004361062000061576000357c010000000000000000000000000000000000000000000000000000000090048063444d95b01462000066578063657a251214620000e55780638596c5281462000185578063d86e697d146200025a575b600080fd5b3480156200007357600080fd5b50620000a3600480360360208110156200008c57600080fd5b8101908080359060200190929190505050620002d9565b604051808273ffffffffffffffffffffffffffffffffffffffff1673ffffffffffffffffffffffffffffffffffffffff16815260200191505060405180910390f35b348015620000f257600080fd5b5062000138600480360360208110156200010b57600080fd5b81019080803573ffffffffffffffffffffffffffffffffffffffff1690602001909291905050506200030c565b60405180831515151581526020018273ffffffffffffffffffffffffffffffffffffffff1673ffffffffffffffffffffffffffffffffffffffff1681526020019250505060405180910390f35b3480156200019257600080fd5b5062000258600480360360a0811015620001ab57600080fd5b81019080803573ffffffffffffffffffffffffffffffffffffffff169060200190929190803573ffffffffffffffffffffffffffffffffffffffff169060200190929190803573ffffffffffffffffffffffffffffffffffffffff169060200190929190803573ffffffffffffffffffffffffffffffffffffffff169060200190929190803573ffffffffffffffffffffffffffffffffffffffff16906020019092919050505062000549565b005b3480156200026757600080fd5b5062000297600480360360208110156200028057600080fd5b8101908080359060200190929190505050620011e1565b604051808273ffffffffffffffffffffffffffffffffffffffff1673ffffffffffffffffffffffffffffffffffffffff16815260200191505060405180910390f35b60016020528060005260406000206000915054906101000a900473ffffffffffffffffffffffffffffffffffffffff1681565b6000806000808473ffffffffffffffffffffffffffffffffffffffff166352a82b656040518163ffffffff167c010000000000000000000000000000000000000000000000000000000002815260040160206040518083038186803b1580156200037557600080fd5b505afa1580156200038a573d6000803e3d6000fd5b505050506040513d6020811015620003a157600080fd5b8101908080519060200190929190505050815260200190815260200160002060009054906101000a900473ffffffffffffffffffffffffffffffffffffffff169050600115158173ffffffffffffffffffffffffffffffffffffffff16637472abf96040518163ffffffff167c010000000000000000000000000000000000000000000000000000000002815260040160206040518083038186803b1580156200044a57600080fd5b505afa1580156200045f573d6000803e3d6000fd5b505050506040513d60208110156200047657600080fd5b810190808051906020019092919050505073ffffffffffffffffffffffffffffffffffffffff1663890eba686040518163ffffffff167c010000000000000000000000000000000000000000000000000000000002815260040160206040518083038186803b158015620004e957600080fd5b505afa158015620004fe573d6000803e3d6000fd5b505050506040513d60208110156200051557600080fd5b8101908080519060200190929190505050151514156200053c576001819150915062000544565b600081915091505b915091565b60008062000557876200030c565b91509150600115158215151480156200063a57508073ffffffffffffffffffffffffffffffffffffffff1663e402e8836040518163ffffffff167c010000000000000000000000000000000000000000000000000000000002815260040160206040518083038186803b158015620005ce57600080fd5b505afa158015620005e3573d6000803e3d6000fd5b505050506040513d6020811015620005fa57600080fd5b810190808051906020019092919050505073ffffffffffffffffffffffffffffffffffffffff168773ffffffffffffffffffffffffffffffffffffffff16145b1515620006af576040517f08c379a000000000000000000000000000000000000000000000000000000000815260040180806020018281038252601e8152602001807f74686520706172656e74206e6f646520646f6573206e6f74206578697374000081525060200191505060405180910390fd5b60008787878787620006c062001214565b808673ffffffffffffffffffffffffffffffffffffffff1673ffffffffffffffffffffffffffffffffffffffff1681526020018573ffffffffffffffffffffffffffffffffffffffff1673ffffffffffffffffffffffffffffffffffffffff1681526020018473ffffffffffffffffffffffffffffffffffffffff1673ffffffffffffffffffffffffffffffffffffffff1681526020018373ffffffffffffffffffffffffffffffffffffffff1673ffffffffffffffffffffffffffffffffffffffff1681526020018273ffffffffffffffffffffffffffffffffffffffff1673ffffffffffffffffffffffffffffffffffffffff16815260200195505050505050604051809103906000f080158015620007df573d6000803e3d6000fd5b5090508073ffffffffffffffffffffffffffffffffffffffff166363a9c3d7836040518263ffffffff167c0100000000000000000000000000000000000000000000000000000000028152600401808273ffffffffffffffffffffffffffffffffffffffff1673ffffffffffffffffffffffffffffffffffffffff168152602001915050602060405180830381600087803b1580156200087e57600080fd5b505af115801562000893573d6000803e3d6000fd5b505050506040513d6020811015620008aa57600080fd5b8101908080519060200190929190505050151562000930576040517f08c379a00000000000000000000000000000000000000000000000000000000081526004018080602001828103825260118152602001807f696e76616c6964207369676e617475726500000000000000000000000000000081525060200191505060405180910390fd5b60008787876200093f62001225565b808473ffffffffffffffffffffffffffffffffffffffff1673ffffffffffffffffffffffffffffffffffffffff1681526020018373ffffffffffffffffffffffffffffffffffffffff1673ffffffffffffffffffffffffffffffffffffffff1681526020018273ffffffffffffffffffffffffffffffffffffffff1673ffffffffffffffffffffffffffffffffffffffff1681526020019350505050604051809103906000f080158015620009f8573d6000803e3d6000fd5b50905060008173ffffffffffffffffffffffffffffffffffffffff1663e402e8836040518163ffffffff167c010000000000000000000000000000000000000000000000000000000002815260040160206040518083038186803b15801562000a6057600080fd5b505afa15801562000a75573d6000803e3d6000fd5b505050506040513d602081101562000a8c57600080fd5b81019080805190602001909291905050509050600062000aac826200030c565b5090506000151581151514151562000b2c576040517f08c379a000000000000000000000000000000000000000000000000000000000815260040180806020018281038252601d8152602001807f746865206368696c64206e6f646520616c72656164792065786973747300000081525060200191505060405180910390fd5b60001515600160008473ffffffffffffffffffffffffffffffffffffffff166352a82b656040518163ffffffff167c010000000000000000000000000000000000000000000000000000000002815260040160206040518083038186803b15801562000b9757600080fd5b505afa15801562000bac573d6000803e3d6000fd5b505050506040513d602081101562000bc357600080fd5b8101908080519060200190929190505050815260200190815260200160002060009054906101000a900473ffffffffffffffffffffffffffffffffffffffff1673ffffffffffffffffffffffffffffffffffffffff16637472abf96040518163ffffffff167c010000000000000000000000000000000000000000000000000000000002815260040160206040518083038186803b15801562000c6557600080fd5b505afa15801562000c7a573d6000803e3d6000fd5b505050506040513d602081101562000c9157600080fd5b810190808051906020019092919050505073ffffffffffffffffffffffffffffffffffffffff1663890eba686040518163ffffffff167c010000000000000000000000000000000000000000000000000000000002815260040160206040518083038186803b15801562000d0457600080fd5b505afa15801562000d19573d6000803e3d6000fd5b505050506040513d602081101562000d3057600080fd5b8101908080519060200190929190505050151514151562000db9576040517f08c379a00000000000000000000000000000000000000000000000000000000081526004018080602001828103825260188152602001807f7468652070726f6f6620616c726561647920657869737473000000000000000081525060200191505060405180910390fd5b8273ffffffffffffffffffffffffffffffffffffffff16637472abf96040518163ffffffff167c010000000000000000000000000000000000000000000000000000000002815260040160206040518083038186803b15801562000e1c57600080fd5b505afa15801562000e31573d6000803e3d6000fd5b505050506040513d602081101562000e4857600080fd5b810190808051906020019092919050505073ffffffffffffffffffffffffffffffffffffffff16634f2be91f6040518163ffffffff167c0100000000000000000000000000000000000000000000000000000000028152600401600060405180830381600087803b15801562000ebd57600080fd5b505af115801562000ed2573d6000803e3d6000fd5b505050508373ffffffffffffffffffffffffffffffffffffffff16637472abf96040518163ffffffff167c010000000000000000000000000000000000000000000000000000000002815260040160206040518083038186803b15801562000f3957600080fd5b505afa15801562000f4e573d6000803e3d6000fd5b505050506040513d602081101562000f6557600080fd5b810190808051906020019092919050505073ffffffffffffffffffffffffffffffffffffffff16634f2be91f6040518163ffffffff167c0100000000000000000000000000000000000000000000000000000000028152600401600060405180830381600087803b15801562000fda57600080fd5b505af115801562000fef573d6000803e3d6000fd5b50505050826000808473ffffffffffffffffffffffffffffffffffffffff166352a82b656040518163ffffffff167c010000000000000000000000000000000000000000000000000000000002815260040160206040518083038186803b1580156200105a57600080fd5b505afa1580156200106f573d6000803e3d6000fd5b505050506040513d60208110156200108657600080fd5b8101908080519060200190929190505050815260200190815260200160002060006101000a81548173ffffffffffffffffffffffffffffffffffffffff021916908373ffffffffffffffffffffffffffffffffffffffff16021790555083600160008473ffffffffffffffffffffffffffffffffffffffff166352a82b656040518163ffffffff167c010000000000000000000000000000000000000000000000000000000002815260040160206040518083038186803b1580156200114b57600080fd5b505afa15801562001160573d6000803e3d6000fd5b505050506040513d60208110156200117757600080fd5b8101908080519060200190929190505050815260200190815260200160002060006101000a81548173ffffffffffffffffffffffffffffffffffffffff021916908373ffffffffffffffffffffffffffffffffffffffff1602179055505050505050505050505050565b60006020528060005260406000206000915054906101000a900473ffffffffffffffffffffffffffffffffffffffff1681565b604051611933806200123783390190565b604051610ce38062002b6a8339019056fe608060405234801561001057600080fd5b5060405160a080611933833981018060405260a081101561003057600080fd5b810190808051906020019092919080519060200190929190805190602001909291908051906020019092919080519060200190929190505050600073ffffffffffffffffffffffffffffffffffffffff168273ffffffffffffffffffffffffffffffffffffffff161415151561010e576040517f08c379a00000000000000000000000000000000000000000000000000000000081526004018080602001828103825260138152602001807f7468652061646472657373206973207a65726f0000000000000000000000000081525060200191505060405180910390fd5b846000806101000a81548173ffffffffffffffffffffffffffffffffffffffff021916908373ffffffffffffffffffffffffffffffffffffffff16021790555083600160006101000a81548173ffffffffffffffffffffffffffffffffffffffff021916908373ffffffffffffffffffffffffffffffffffffffff16021790555082600260006101000a81548173ffffffffffffffffffffffffffffffffffffffff021916908373ffffffffffffffffffffffffffffffffffffffff16021790555081600360006101000a81548173ffffffffffffffffffffffffffffffffffffffff021916908373ffffffffffffffffffffffffffffffffffffffff16021790555080600460006101000a81548173ffffffffffffffffffffffffffffffffffffffff021916908373ffffffffffffffffffffffffffffffffffffffff16021790555050505050506116cd806102666000396000f3fe60806040526004361061005c576000357c01000000000000000000000000000000000000000000000000000000009004806352a82b651461006157806363a9c3d7146100b85780637472abf914610121578063ff5154c514610178575b600080fd5b34801561006d57600080fd5b506100766101cf565b604051808273ffffffffffffffffffffffffffffffffffffffff1673ffffffffffffffffffffffffffffffffffffffff16815260200191505060405180910390f35b3480156100c457600080fd5b50610107600480360360208110156100db57600080fd5b81019080803573ffffffffffffffffffffffffffffffffffffffff169060200190929190505050610450565b604051808215151515815260200191505060405180910390f35b34801561012d57600080fd5b5061013661058f565b604051808273ffffffffffffffffffffffffffffffffffffffff1673ffffffffffffffffffffffffffffffffffffffff16815260200191505060405180910390f35b34801561018457600080fd5b5061018d6105b5565b604051808273ffffffffffffffffffffffffffffffffffffffff1673ffffffffffffffffffffffffffffffffffffffff16815260200191505060405180910390f35b6000806001026101dd6106e6565b80828152602001915050604051809103906000f080158015610203573d6000803e3d6000fd5b5073ffffffffffffffffffffffffffffffffffffffff16636450a3226000809054906101000a900473ffffffffffffffffffffffffffffffffffffffff1673ffffffffffffffffffffffffffffffffffffffff166352a82b65600160009054906101000a900473ffffffffffffffffffffffffffffffffffffffff1673ffffffffffffffffffffffffffffffffffffffff16632cdfb6ae600260009054906101000a900473ffffffffffffffffffffffffffffffffffffffff1673ffffffffffffffffffffffffffffffffffffffff166352a82b6560405160200180878763ffffffff1690640100000000021768010000000000000000028152602001858563ffffffff1690640100000000021768010000000000000000028152602001838363ffffffff169064010000000002176801000000000000000002815260200196505050505050506040516020818303038152906040526040518263ffffffff167c01000000000000000000000000000000000000000000000000000000000281526004018080602001828103825283818151815260200191508051906020019080838360005b838110156103c45780820151818401526020810190506103a9565b50505050905090810190601f1680156103f15780820380516001836020036101000a031916815260200191505b5092505050602060405180830381600087803b15801561041057600080fd5b505af1158015610424573d6000803e3d6000fd5b505050506040513d602081101561043a57600080fd5b8101908080519060200190929190505050905090565b60008061045b6101cf565b90508273ffffffffffffffffffffffffffffffffffffffff1663a5d4b01e82600460009054906101000a900473ffffffffffffffffffffffffffffffffffffffff166040518363ffffffff167c0100000000000000000000000000000000000000000000000000000000028152600401808373ffffffffffffffffffffffffffffffffffffffff1673ffffffffffffffffffffffffffffffffffffffff1681526020018273ffffffffffffffffffffffffffffffffffffffff1673ffffffffffffffffffffffffffffffffffffffff1681526020019250505060206040518083038186803b15801561054c57600080fd5b505afa158015610560573d6000803e3d6000fd5b505050506040513d602081101561057657600080fd5b8101908080519060200190929190505050915050919050565b600560009054906101000a900473ffffffffffffffffffffffffffffffffffffffff1681565b6000600160009054906101000a900473ffffffffffffffffffffffffffffffffffffffff16600260009054906101000a900473ffffffffffffffffffffffffffffffffffffffff16600360009054906101000a900473ffffffffffffffffffffffffffffffffffffffff166106286106f6565b808473ffffffffffffffffffffffffffffffffffffffff1673ffffffffffffffffffffffffffffffffffffffff1681526020018373ffffffffffffffffffffffffffffffffffffffff1673ffffffffffffffffffffffffffffffffffffffff1681526020018273ffffffffffffffffffffffffffffffffffffffff1673ffffffffffffffffffffffffffffffffffffffff1681526020019350505050604051809103906000f0801580156106e0573d6000803e3d6000fd5b50905090565b6040516102b88061070783390190565b604051610ce3806109bf8339019056fe608060405234801561001057600080fd5b506040516020806102b88339810180604052602081101561003057600080fd5b81019080805190602001909291905050508060008190555050610260806100586000396000f3fe608060405260043610610046576000357c01000000000000000000000000000000000000000000000000000000009004806352a82b651461004b5780636450a32214610076575b600080fd5b34801561005757600080fd5b5061006061017e565b6040518082815260200191505060405180910390f35b34801561008257600080fd5b5061013c6004803603602081101561009957600080fd5b81019080803590602001906401000000008111156100b657600080fd5b8201836020820111156100c857600080fd5b803590602001918460018302840111640100000000831117156100ea57600080fd5b91908080601f016020809104026020016040519081016040528093929190818152602001838380828437600081840152601f19601f820116905080830192505050505050509192919290505050610184565b604051808273ffffffffffffffffffffffffffffffffffffffff1673ffffffffffffffffffffffffffffffffffffffff16815260200191505060405180910390f35b60005481565b60006002826040518082805190602001908083835b6020831015156101be5780518252602082019150602081019050602083039250610199565b6001836020036101000a038019825116818451168082178552505050505050905001915050602060405180830381855afa158015610200573d6000803e3d6000fd5b5050506040513d602081101561021557600080fd5b810190808051906020019092919050505060008190555030905091905056fea165627a7a7230582044c1d3330dd72fe986e23b6cdf03ebd121613b08964cc61ac3b914c8b864cf280029608060405234801561001057600080fd5b50604051606080610ce38339810180604052606081101561003057600080fd5b81019080805190602001909291908051906020019092919080519060200190929190505050600073ffffffffffffffffffffffffffffffffffffffff168173ffffffffffffffffffffffffffffffffffffffff16141515156100fa576040517f08c379a00000000000000000000000000000000000000000000000000000000081526004018080602001828103825260138152602001807f7468652061646472657373206973207a65726f0000000000000000000000000081525060200191505060405180910390fd5b600060010261010761040f565b80828152602001915050604051809103906000f08015801561012d573d6000803e3d6000fd5b5073ffffffffffffffffffffffffffffffffffffffff16636450a3228473ffffffffffffffffffffffffffffffffffffffff16632cdfb6ae8573ffffffffffffffffffffffffffffffffffffffff166352a82b658660405160200180868663ffffffff1690640100000000021768010000000000000000028152602001848463ffffffff16906401000000000217680100000000000000000281526020018273ffffffffffffffffffffffffffffffffffffffff1673ffffffffffffffffffffffffffffffffffffffff168152602001955050505050506040516020818303038152906040526040518263ffffffff167c01000000000000000000000000000000000000000000000000000000000281526004018080602001828103825283818151815260200191508051906020019080838360005b8381101561027e578082015181840152602081019050610263565b50505050905090810190601f1680156102ab5780820380516001836020036101000a031916815260200191505b5092505050602060405180830381600087803b1580156102ca57600080fd5b505af11580156102de573d6000803e3d6000fd5b505050506040513d60208110156102f457600080fd5b81019080805190602001909291905050506000806101000a81548173ffffffffffffffffffffffffffffffffffffffff021916908373ffffffffffffffffffffffffffffffffffffffff16021790555082600160006101000a81548173ffffffffffffffffffffffffffffffffffffffff021916908373ffffffffffffffffffffffffffffffffffffffff16021790555081600260006101000a81548173ffffffffffffffffffffffffffffffffffffffff021916908373ffffffffffffffffffffffffffffffffffffffff16021790555080600360006101000a81548173ffffffffffffffffffffffffffffffffffffffff021916908373ffffffffffffffffffffffffffffffffffffffff16021790555050505061041f565b6040516102b880610a2b83390190565b6105fd8061042e6000396000f3fe60806040526004361061007d576000357c010000000000000000000000000000000000000000000000000000000090048063063cd44f146100825780631b8a3d73146100d9578063484d59e6146101305780637472abf9146101875780638da5cb5b146101de578063a5d4b01e14610235578063e402e883146102be575b600080fd5b34801561008e57600080fd5b50610097610315565b604051808273ffffffffffffffffffffffffffffffffffffffff1673ffffffffffffffffffffffffffffffffffffffff16815260200191505060405180910390f35b3480156100e557600080fd5b506100ee61033f565b604051808273ffffffffffffffffffffffffffffffffffffffff1673ffffffffffffffffffffffffffffffffffffffff16815260200191505060405180910390f35b34801561013c57600080fd5b50610145610365565b604051808273ffffffffffffffffffffffffffffffffffffffff1673ffffffffffffffffffffffffffffffffffffffff16815260200191505060405180910390f35b34801561019357600080fd5b5061019c61038b565b604051808273ffffffffffffffffffffffffffffffffffffffff1673ffffffffffffffffffffffffffffffffffffffff16815260200191505060405180910390f35b3480156101ea57600080fd5b506101f36103b1565b604051808273ffffffffffffffffffffffffffffffffffffffff1673ffffffffffffffffffffffffffffffffffffffff16815260200191505060405180910390f35b34801561024157600080fd5b506102a46004803603604081101561025857600080fd5b81019080803573ffffffffffffffffffffffffffffffffffffffff169060200190929190803573ffffffffffffffffffffffffffffffffffffffff1690602001909291905050506103d7565b604051808215151515815260200191505060405180910390f35b3480156102ca57600080fd5b506102d36105ac565b604051808273ffffffffffffffffffffffffffffffffffffffff1673ffffffffffffffffffffffffffffffffffffffff16815260200191505060405180910390f35b6000600160009054906101000a900473ffffffffffffffffffffffffffffffffffffffff16905090565b600260009054906101000a900473ffffffffffffffffffffffffffffffffffffffff1681565b600160009054906101000a900473ffffffffffffffffffffffffffffffffffffffff1681565b600460009054906101000a900473ffffffffffffffffffffffffffffffffffffffff1681565b600360009054906101000a900473ffffffffffffffffffffffffffffffffffffffff1681565b600080600160009054906101000a900473ffffffffffffffffffffffffffffffffffffffff1673ffffffffffffffffffffffffffffffffffffffff1663e19391f86040518163ffffffff167c010000000000000000000000000000000000000000000000000000000002815260040160206040518083038186803b15801561045e57600080fd5b505afa158015610472573d6000803e3d6000fd5b505050506040513d602081101561048857600080fd5b810190808051906020019092919050505090508273ffffffffffffffffffffffffffffffffffffffff16632c2146aa85836040518363ffffffff167c0100000000000000000000000000000000000000000000000000000000028152600401808373ffffffffffffffffffffffffffffffffffffffff1673ffffffffffffffffffffffffffffffffffffffff1681526020018273ffffffffffffffffffffffffffffffffffffffff1673ffffffffffffffffffffffffffffffffffffffff1681526020019250505060206040518083038186803b15801561056857600080fd5b505afa15801561057c573d6000803e3d6000fd5b505050506040513d602081101561059257600080fd5b810190808051906020019092919050505091505092915050565b6000809054906101000a900473ffffffffffffffffffffffffffffffffffffffff168156fea165627a7a7230582036e229b49ac5d0d9af6b28d8fe9bebdd5bb6a192a6f180396278df817040c1c50029608060405234801561001057600080fd5b506040516020806102b88339810180604052602081101561003057600080fd5b81019080805190602001909291905050508060008190555050610260806100586000396000f3fe608060405260043610610046576000357c01000000000000000000000000000000000000000000000000000000009004806352a82b651461004b5780636450a32214610076575b600080fd5b34801561005757600080fd5b5061006061017e565b6040518082815260200191505060405180910390f35b34801561008257600080fd5b5061013c6004803603602081101561009957600080fd5b81019080803590602001906401000000008111156100b657600080fd5b8201836020820111156100c857600080fd5b803590602001918460018302840111640100000000831117156100ea57600080fd5b91908080601f016020809104026020016040519081016040528093929190818152602001838380828437600081840152601f19601f820116905080830192505050505050509192919290505050610184565b604051808273ffffffffffffffffffffffffffffffffffffffff1673ffffffffffffffffffffffffffffffffffffffff16815260200191505060405180910390f35b60005481565b60006002826040518082805190602001908083835b6020831015156101be5780518252602082019150602081019050602083039250610199565b6001836020036101000a038019825116818451168082178552505050505050905001915050602060405180830381855afa158015610200573d6000803e3d6000fd5b5050506040513d602081101561021557600080fd5b810190808051906020019092919050505060008190555030905091905056fea165627a7a7230582044c1d3330dd72fe986e23b6cdf03ebd121613b08964cc61ac3b914c8b864cf280029a165627a7a72305820963e74114982fe9600232f40f5d13cb4a796df741af46c5a4bb2b2223be44a6c0029608060405234801561001057600080fd5b50604051606080610ce38339810180604052606081101561003057600080fd5b81019080805190602001909291908051906020019092919080519060200190929190505050600073ffffffffffffffffffffffffffffffffffffffff168173ffffffffffffffffffffffffffffffffffffffff16141515156100fa576040517f08c379a00000000000000000000000000000000000000000000000000000000081526004018080602001828103825260138152602001807f7468652061646472657373206973207a65726f0000000000000000000000000081525060200191505060405180910390fd5b600060010261010761040f565b80828152602001915050604051809103906000f08015801561012d573d6000803e3d6000fd5b5073ffffffffffffffffffffffffffffffffffffffff16636450a3228473ffffffffffffffffffffffffffffffffffffffff16632cdfb6ae8573ffffffffffffffffffffffffffffffffffffffff166352a82b658660405160200180868663ffffffff1690640100000000021768010000000000000000028152602001848463ffffffff16906401000000000217680100000000000000000281526020018273ffffffffffffffffffffffffffffffffffffffff1673ffffffffffffffffffffffffffffffffffffffff168152602001955050505050506040516020818303038152906040526040518263ffffffff167c01000000000000000000000000000000000000000000000000000000000281526004018080602001828103825283818151815260200191508051906020019080838360005b8381101561027e578082015181840152602081019050610263565b50505050905090810190601f1680156102ab5780820380516001836020036101000a031916815260200191505b5092505050602060405180830381600087803b1580156102ca57600080fd5b505af11580156102de573d6000803e3d6000fd5b505050506040513d60208110156102f457600080fd5b81019080805190602001909291905050506000806101000a81548173ffffffffffffffffffffffffffffffffffffffff021916908373ffffffffffffffffffffffffffffffffffffffff16021790555082600160006101000a81548173ffffffffffffffffffffffffffffffffffffffff021916908373ffffffffffffffffffffffffffffffffffffffff16021790555081600260006101000a81548173ffffffffffffffffffffffffffffffffffffffff021916908373ffffffffffffffffffffffffffffffffffffffff16021790555080600360006101000a81548173ffffffffffffffffffffffffffffffffffffffff021916908373ffffffffffffffffffffffffffffffffffffffff16021790555050505061041f565b6040516102b880610a2b83390190565b6105fd8061042e6000396000f3fe60806040526004361061007d576000357c010000000000000000000000000000000000000000000000000000000090048063063cd44f146100825780631b8a3d73146100d9578063484d59e6146101305780637472abf9146101875780638da5cb5b146101de578063a5d4b01e14610235578063e402e883146102be575b600080fd5b34801561008e57600080fd5b50610097610315565b604051808273ffffffffffffffffffffffffffffffffffffffff1673ffffffffffffffffffffffffffffffffffffffff16815260200191505060405180910390f35b3480156100e557600080fd5b506100ee61033f565b604051808273ffffffffffffffffffffffffffffffffffffffff1673ffffffffffffffffffffffffffffffffffffffff16815260200191505060405180910390f35b34801561013c57600080fd5b50610145610365565b604051808273ffffffffffffffffffffffffffffffffffffffff1673ffffffffffffffffffffffffffffffffffffffff16815260200191505060405180910390f35b34801561019357600080fd5b5061019c61038b565b604051808273ffffffffffffffffffffffffffffffffffffffff1673ffffffffffffffffffffffffffffffffffffffff16815260200191505060405180910390f35b3480156101ea57600080fd5b506101f36103b1565b604051808273ffffffffffffffffffffffffffffffffffffffff1673ffffffffffffffffffffffffffffffffffffffff16815260200191505060405180910390f35b34801561024157600080fd5b506102a46004803603604081101561025857600080fd5b81019080803573ffffffffffffffffffffffffffffffffffffffff169060200190929190803573ffffffffffffffffffffffffffffffffffffffff1690602001909291905050506103d7565b604051808215151515815260200191505060405180910390f35b3480156102ca57600080fd5b506102d36105ac565b604051808273ffffffffffffffffffffffffffffffffffffffff1673ffffffffffffffffffffffffffffffffffffffff16815260200191505060405180910390f35b6000600160009054906101000a900473ffffffffffffffffffffffffffffffffffffffff16905090565b600260009054906101000a900473ffffffffffffffffffffffffffffffffffffffff1681565b600160009054906101000a900473ffffffffffffffffffffffffffffffffffffffff1681565b600460009054906101000a900473ffffffffffffffffffffffffffffffffffffffff1681565b600360009054906101000a900473ffffffffffffffffffffffffffffffffffffffff1681565b600080600160009054906101000a900473ffffffffffffffffffffffffffffffffffffffff1673ffffffffffffffffffffffffffffffffffffffff1663e19391f86040518163ffffffff167c010000000000000000000000000000000000000000000000000000000002815260040160206040518083038186803b15801561045e57600080fd5b505afa158015610472573d6000803e3d6000fd5b505050506040513d602081101561048857600080fd5b810190808051906020019092919050505090508273ffffffffffffffffffffffffffffffffffffffff16632c2146aa85836040518363ffffffff167c0100000000000000000000000000000000000000000000000000000000028152600401808373ffffffffffffffffffffffffffffffffffffffff1673ffffffffffffffffffffffffffffffffffffffff1681526020018273ffffffffffffffffffffffffffffffffffffffff1673ffffffffffffffffffffffffffffffffffffffff1681526020019250505060206040518083038186803b15801561056857600080fd5b505afa15801561057c573d6000803e3d6000fd5b505050506040513d602081101561059257600080fd5b810190808051906020019092919050505091505092915050565b6000809054906101000a900473ffffffffffffffffffffffffffffffffffffffff168156fea165627a7a7230582036e229b49ac5d0d9af6b28d8fe9bebdd5bb6a192a6f180396278df817040c1c50029608060405234801561001057600080fd5b506040516020806102b88339810180604052602081101561003057600080fd5b81019080805190602001909291905050508060008190555050610260806100586000396000f3fe608060405260043610610046576000357c01000000000000000000000000000000000000000000000000000000009004806352a82b651461004b5780636450a32214610076575b600080fd5b34801561005757600080fd5b5061006061017e565b6040518082815260200191505060405180910390f35b34801561008257600080fd5b5061013c6004803603602081101561009957600080fd5b81019080803590602001906401000000008111156100b657600080fd5b8201836020820111156100c857600080fd5b803590602001918460018302840111640100000000831117156100ea57600080fd5b91908080601f016020809104026020016040519081016040528093929190818152602001838380828437600081840152601f19601f820116905080830192505050505050509192919290505050610184565b604051808273ffffffffffffffffffffffffffffffffffffffff1673ffffffffffffffffffffffffffffffffffffffff16815260200191505060405180910390f35b60005481565b60006002826040518082805190602001908083835b6020831015156101be5780518252602082019150602081019050602083039250610199565b6001836020036101000a038019825116818451168082178552505050505050905001915050602060405180830381855afa158015610200573d6000803e3d6000fd5b5050506040513d602081101561021557600080fd5b810190808051906020019092919050505060008190555030905091905056fea165627a7a7230582044c1d3330dd72fe986e23b6cdf03ebd121613b08964cc61ac3b914c8b864cf280029a165627a7a723058201ec39a366c9d9a6ed5ca89abc1c31f52179507f6cc9a2694540278d91721c91d0029",
  "source": "pragma solidity >=0.5.1;\n\nimport {Sha256,Pubkey,Signature} from \"./primitive.sol\";\nimport {RequestInfo} from \"./RequestInfo.sol\";\nimport {SelfAttestation} from \"./SelfAttestation.sol\";\nimport {NodeInfo} from \"./NodeInfo.sol\";\nimport {NodeRegister} from \"./NodeRegister.sol\";\n\ncontract MatchingMarket {\n    mapping(bytes32 => RequestInfo) public requests;\n    mapping(bytes32 => uint256) public deposits;\n    mapping(bytes32 => SelfAttestation) public proofs;\n    mapping(address => uint256) public nonces;\n\n    NodeRegister node_register = new NodeRegister();\n\n    bytes constant cancel_prefix = \"43616e63656c2072657175657374206f662070726f70616761746976652054454520636f6d7075746174696f6e\";\n\n    function register(address _client,Sha256 _node_id,Sha256 _circuit_digest, Sha256 _input_digest, uint256 _expired, Signature _witness) public payable {\n        uint256 _nonce = nonces[_client];\n        require(_nonce>=0&&_nonce<2**256-1,\"the nonce is max number\");\n        require(block.number<_expired,\"invalid expire time\");\n        RequestInfo request = new RequestInfo(_client,msg.value,_node_id,_circuit_digest,_input_digest,_expired,_nonce,_witness);\n        require(request.verify(),\"invalid request\");\n        bytes32 key = request.digest().digest();\n        (bool exist,) = search(key);\n        require(exist==false,\"the request already exists\");\n        request.exist().add();\n        requests[key] = request;\n        nonces[_client] += 1;\n        deposits[key] = msg.value;\n    }\n\n    function complete(Sha256 _node_id, Sha256 _request_id, Sha256 _result_digest, Signature _witness) public {\n        bytes32 key = _request_id.digest();\n        (bool req_exist, RequestInfo request) = search(key);\n        require(req_exist==true&&key==request.digest().digest(),\"the request does not exist\");\n        require(block.number<request.expired(),\"the request is expired\");\n        require(proofs[key].exist().flag()==false,\"the proof already exists\");\n        (bool node_exist, NodeInfo node) = node_register.search(_node_id);\n        require(node_exist==true,\"the node does not exist\");\n        SelfAttestation proof = new SelfAttestation(_node_id,_request_id,_result_digest,_witness);\n        require(proof.verify(node),\"invalid proof\");\n        address payable node_address = address(uint160(node.pubkey().to_address()));\n        proof.exist().add();\n        proofs[key] = proof;\n        erase(key,node_address);\n    }\n\n    function cancel(bytes32 _key,Signature _witness) public {\n        (bool exist, RequestInfo request) = search(_key);\n        require(exist==true&&_key==request.digest().digest(),\"the request does not exist\");\n        address payable client = address(uint160(request.client()));\n        Sha256 _hash = new Sha256(bytes32(0)).generate(abi.encode(cancel_prefix,_key));\n        require(_witness.verify(_hash,client),\"invalid signature\");\n        erase(_key,client);\n    }\n\n    function search(bytes32 _key) view public returns(bool exist,RequestInfo request) {\n        request = requests[_key];\n        if(request.exist().flag()==true) return (true,request);\n        else return (false,request);\n    }\n\n    function erase(bytes32 _key,address payable receiver) private {\n        uint256 amount = deposits[_key];\n        deposits[_key] = 0;\n        receiver.transfer(amount);\n    }\n}\n",
  "sourcePath": "/Users/suegamisora/GoogleDrive/projects/propagative_tee_contracts/contracts/MatchingMarket.sol",
  "compiler": {
    "name": "solc",
    "version": "0.5.1+commit.c8a2cb62.Emscripten.clang"
  },
  "schemaVersion": "3.0.9",
  "updatedAt": "2020-01-28T08:48:16.507Z",
  "devdoc": {
    "methods": {}
  },
  "userdoc": {
    "methods": {}
  }
}