{
  "contractName": "NodeRegister",
  "abi": [
    {
      "constant": true,
      "inputs": [
        {
          "name": "",
          "type": "bytes32"
        }
      ],
      "name": "proofs",
      "outputs": [
        {
          "name": "",
          "type": "address"
        }
      ],
      "payable": false,
      "stateMutability": "view",
      "type": "function"
    },
    {
      "constant": true,
      "inputs": [
        {
          "name": "",
          "type": "bytes32"
        }
      ],
      "name": "nodes",
      "outputs": [
        {
          "name": "",
          "type": "address"
        },
        {
          "name": "",
          "type": "address"
        }
      ],
      "payable": false,
      "stateMutability": "view",
      "type": "function"
    },
    {
      "constant": false,
      "inputs": [
        {
          "name": "_parent_id",
          "type": "address"
        },
        {
          "name": "_pubkey",
          "type": "address"
        },
        {
          "name": "_circuit_digest",
          "type": "address"
        },
        {
          "name": "_owner",
          "type": "address"
        },
        {
          "name": "_witness",
          "type": "address"
        }
      ],
      "name": "register",
      "outputs": [],
      "payable": false,
      "stateMutability": "nonpayable",
      "type": "function"
    },
    {
      "constant": true,
      "inputs": [
        {
          "name": "node_id",
          "type": "address"
        }
      ],
      "name": "search",
      "outputs": [
        {
          "name": "exist",
          "type": "bool"
        },
        {
          "name": "node",
          "type": "address"
        }
      ],
      "payable": false,
      "stateMutability": "view",
      "type": "function"
    }
  ],
  "bytecode": "0x608060405234801561001057600080fd5b50613878806100206000396000f3fe60806040526004361062000061576000357c010000000000000000000000000000000000000000000000000000000090048063444d95b01462000066578063657a251214620000e55780638596c5281462000185578063d86e697d146200025a575b600080fd5b3480156200007357600080fd5b50620000a3600480360360208110156200008c57600080fd5b8101908080359060200190929190505050620002d9565b604051808273ffffffffffffffffffffffffffffffffffffffff1673ffffffffffffffffffffffffffffffffffffffff16815260200191505060405180910390f35b348015620000f257600080fd5b5062000138600480360360208110156200010b57600080fd5b81019080803573ffffffffffffffffffffffffffffffffffffffff1690602001909291905050506200030c565b60405180831515151581526020018273ffffffffffffffffffffffffffffffffffffffff1673ffffffffffffffffffffffffffffffffffffffff1681526020019250505060405180910390f35b3480156200019257600080fd5b5062000258600480360360a0811015620001ab57600080fd5b81019080803573ffffffffffffffffffffffffffffffffffffffff169060200190929190803573ffffffffffffffffffffffffffffffffffffffff169060200190929190803573ffffffffffffffffffffffffffffffffffffffff169060200190929190803573ffffffffffffffffffffffffffffffffffffffff169060200190929190803573ffffffffffffffffffffffffffffffffffffffff16906020019092919050505062000549565b005b3480156200026757600080fd5b5062000297600480360360208110156200028057600080fd5b8101908080359060200190929190505050620011e1565b604051808273ffffffffffffffffffffffffffffffffffffffff1673ffffffffffffffffffffffffffffffffffffffff16815260200191505060405180910390f35b60016020528060005260406000206000915054906101000a900473ffffffffffffffffffffffffffffffffffffffff1681565b6000806000808473ffffffffffffffffffffffffffffffffffffffff166352a82b656040518163ffffffff167c010000000000000000000000000000000000000000000000000000000002815260040160206040518083038186803b1580156200037557600080fd5b505afa1580156200038a573d6000803e3d6000fd5b505050506040513d6020811015620003a157600080fd5b8101908080519060200190929190505050815260200190815260200160002060009054906101000a900473ffffffffffffffffffffffffffffffffffffffff169050600115158173ffffffffffffffffffffffffffffffffffffffff16637472abf96040518163ffffffff167c010000000000000000000000000000000000000000000000000000000002815260040160206040518083038186803b1580156200044a57600080fd5b505afa1580156200045f573d6000803e3d6000fd5b505050506040513d60208110156200047657600080fd5b810190808051906020019092919050505073ffffffffffffffffffffffffffffffffffffffff1663890eba686040518163ffffffff167c010000000000000000000000000000000000000000000000000000000002815260040160206040518083038186803b158015620004e957600080fd5b505afa158015620004fe573d6000803e3d6000fd5b505050506040513d60208110156200051557600080fd5b8101908080519060200190929190505050151514156200053c576001819150915062000544565b600081915091505b915091565b60008062000557876200030c565b91509150600115158215151480156200063a57508073ffffffffffffffffffffffffffffffffffffffff1663e402e8836040518163ffffffff167c010000000000000000000000000000000000000000000000000000000002815260040160206040518083038186803b158015620005ce57600080fd5b505afa158015620005e3573d6000803e3d6000fd5b505050506040513d6020811015620005fa57600080fd5b810190808051906020019092919050505073ffffffffffffffffffffffffffffffffffffffff168773ffffffffffffffffffffffffffffffffffffffff16145b1515620006af576040517f08c379a000000000000000000000000000000000000000000000000000000000815260040180806020018281038252601e8152602001807f74686520706172656e74206e6f646520646f6573206e6f74206578697374000081525060200191505060405180910390fd5b60008787878787620006c062001214565b808673ffffffffffffffffffffffffffffffffffffffff1673ffffffffffffffffffffffffffffffffffffffff1681526020018573ffffffffffffffffffffffffffffffffffffffff1673ffffffffffffffffffffffffffffffffffffffff1681526020018473ffffffffffffffffffffffffffffffffffffffff1673ffffffffffffffffffffffffffffffffffffffff1681526020018373ffffffffffffffffffffffffffffffffffffffff1673ffffffffffffffffffffffffffffffffffffffff1681526020018273ffffffffffffffffffffffffffffffffffffffff1673ffffffffffffffffffffffffffffffffffffffff16815260200195505050505050604051809103906000f080158015620007df573d6000803e3d6000fd5b5090508073ffffffffffffffffffffffffffffffffffffffff166363a9c3d7836040518263ffffffff167c0100000000000000000000000000000000000000000000000000000000028152600401808273ffffffffffffffffffffffffffffffffffffffff1673ffffffffffffffffffffffffffffffffffffffff168152602001915050602060405180830381600087803b1580156200087e57600080fd5b505af115801562000893573d6000803e3d6000fd5b505050506040513d6020811015620008aa57600080fd5b8101908080519060200190929190505050151562000930576040517f08c379a00000000000000000000000000000000000000000000000000000000081526004018080602001828103825260118152602001807f696e76616c6964207369676e617475726500000000000000000000000000000081525060200191505060405180910390fd5b60008787876200093f62001225565b808473ffffffffffffffffffffffffffffffffffffffff1673ffffffffffffffffffffffffffffffffffffffff1681526020018373ffffffffffffffffffffffffffffffffffffffff1673ffffffffffffffffffffffffffffffffffffffff1681526020018273ffffffffffffffffffffffffffffffffffffffff1673ffffffffffffffffffffffffffffffffffffffff1681526020019350505050604051809103906000f080158015620009f8573d6000803e3d6000fd5b50905060008173ffffffffffffffffffffffffffffffffffffffff1663e402e8836040518163ffffffff167c010000000000000000000000000000000000000000000000000000000002815260040160206040518083038186803b15801562000a6057600080fd5b505afa15801562000a75573d6000803e3d6000fd5b505050506040513d602081101562000a8c57600080fd5b81019080805190602001909291905050509050600062000aac826200030c565b5090506000151581151514151562000b2c576040517f08c379a000000000000000000000000000000000000000000000000000000000815260040180806020018281038252601d8152602001807f746865206368696c64206e6f646520616c72656164792065786973747300000081525060200191505060405180910390fd5b60001515600160008473ffffffffffffffffffffffffffffffffffffffff166352a82b656040518163ffffffff167c010000000000000000000000000000000000000000000000000000000002815260040160206040518083038186803b15801562000b9757600080fd5b505afa15801562000bac573d6000803e3d6000fd5b505050506040513d602081101562000bc357600080fd5b8101908080519060200190929190505050815260200190815260200160002060009054906101000a900473ffffffffffffffffffffffffffffffffffffffff1673ffffffffffffffffffffffffffffffffffffffff16637472abf96040518163ffffffff167c010000000000000000000000000000000000000000000000000000000002815260040160206040518083038186803b15801562000c6557600080fd5b505afa15801562000c7a573d6000803e3d6000fd5b505050506040513d602081101562000c9157600080fd5b810190808051906020019092919050505073ffffffffffffffffffffffffffffffffffffffff1663890eba686040518163ffffffff167c010000000000000000000000000000000000000000000000000000000002815260040160206040518083038186803b15801562000d0457600080fd5b505afa15801562000d19573d6000803e3d6000fd5b505050506040513d602081101562000d3057600080fd5b8101908080519060200190929190505050151514151562000db9576040517f08c379a00000000000000000000000000000000000000000000000000000000081526004018080602001828103825260188152602001807f7468652070726f6f6620616c726561647920657869737473000000000000000081525060200191505060405180910390fd5b8273ffffffffffffffffffffffffffffffffffffffff16637472abf96040518163ffffffff167c010000000000000000000000000000000000000000000000000000000002815260040160206040518083038186803b15801562000e1c57600080fd5b505afa15801562000e31573d6000803e3d6000fd5b505050506040513d602081101562000e4857600080fd5b810190808051906020019092919050505073ffffffffffffffffffffffffffffffffffffffff16634f2be91f6040518163ffffffff167c0100000000000000000000000000000000000000000000000000000000028152600401600060405180830381600087803b15801562000ebd57600080fd5b505af115801562000ed2573d6000803e3d6000fd5b505050508373ffffffffffffffffffffffffffffffffffffffff16637472abf96040518163ffffffff167c010000000000000000000000000000000000000000000000000000000002815260040160206040518083038186803b15801562000f3957600080fd5b505afa15801562000f4e573d6000803e3d6000fd5b505050506040513d602081101562000f6557600080fd5b810190808051906020019092919050505073ffffffffffffffffffffffffffffffffffffffff16634f2be91f6040518163ffffffff167c0100000000000000000000000000000000000000000000000000000000028152600401600060405180830381600087803b15801562000fda57600080fd5b505af115801562000fef573d6000803e3d6000fd5b50505050826000808473ffffffffffffffffffffffffffffffffffffffff166352a82b656040518163ffffffff167c010000000000000000000000000000000000000000000000000000000002815260040160206040518083038186803b1580156200105a57600080fd5b505afa1580156200106f573d6000803e3d6000fd5b505050506040513d60208110156200108657600080fd5b8101908080519060200190929190505050815260200190815260200160002060006101000a81548173ffffffffffffffffffffffffffffffffffffffff021916908373ffffffffffffffffffffffffffffffffffffffff16021790555083600160008473ffffffffffffffffffffffffffffffffffffffff166352a82b656040518163ffffffff167c010000000000000000000000000000000000000000000000000000000002815260040160206040518083038186803b1580156200114b57600080fd5b505afa15801562001160573d6000803e3d6000fd5b505050506040513d60208110156200117757600080fd5b8101908080519060200190929190505050815260200190815260200160002060006101000a81548173ffffffffffffffffffffffffffffffffffffffff021916908373ffffffffffffffffffffffffffffffffffffffff1602179055505050505050505050505050565b60006020528060005260406000206000915054906101000a900473ffffffffffffffffffffffffffffffffffffffff1681565b604051611933806200123783390190565b604051610ce38062002b6a8339019056fe608060405234801561001057600080fd5b5060405160a080611933833981018060405260a081101561003057600080fd5b810190808051906020019092919080519060200190929190805190602001909291908051906020019092919080519060200190929190505050600073ffffffffffffffffffffffffffffffffffffffff168273ffffffffffffffffffffffffffffffffffffffff161415151561010e576040517f08c379a00000000000000000000000000000000000000000000000000000000081526004018080602001828103825260138152602001807f7468652061646472657373206973207a65726f0000000000000000000000000081525060200191505060405180910390fd5b846000806101000a81548173ffffffffffffffffffffffffffffffffffffffff021916908373ffffffffffffffffffffffffffffffffffffffff16021790555083600160006101000a81548173ffffffffffffffffffffffffffffffffffffffff021916908373ffffffffffffffffffffffffffffffffffffffff16021790555082600260006101000a81548173ffffffffffffffffffffffffffffffffffffffff021916908373ffffffffffffffffffffffffffffffffffffffff16021790555081600360006101000a81548173ffffffffffffffffffffffffffffffffffffffff021916908373ffffffffffffffffffffffffffffffffffffffff16021790555080600460006101000a81548173ffffffffffffffffffffffffffffffffffffffff021916908373ffffffffffffffffffffffffffffffffffffffff16021790555050505050506116cd806102666000396000f3fe60806040526004361061005c576000357c01000000000000000000000000000000000000000000000000000000009004806352a82b651461006157806363a9c3d7146100b85780637472abf914610121578063ff5154c514610178575b600080fd5b34801561006d57600080fd5b506100766101cf565b604051808273ffffffffffffffffffffffffffffffffffffffff1673ffffffffffffffffffffffffffffffffffffffff16815260200191505060405180910390f35b3480156100c457600080fd5b50610107600480360360208110156100db57600080fd5b81019080803573ffffffffffffffffffffffffffffffffffffffff169060200190929190505050610450565b604051808215151515815260200191505060405180910390f35b34801561012d57600080fd5b5061013661058f565b604051808273ffffffffffffffffffffffffffffffffffffffff1673ffffffffffffffffffffffffffffffffffffffff16815260200191505060405180910390f35b34801561018457600080fd5b5061018d6105b5565b604051808273ffffffffffffffffffffffffffffffffffffffff1673ffffffffffffffffffffffffffffffffffffffff16815260200191505060405180910390f35b6000806001026101dd6106e6565b80828152602001915050604051809103906000f080158015610203573d6000803e3d6000fd5b5073ffffffffffffffffffffffffffffffffffffffff16636450a3226000809054906101000a900473ffffffffffffffffffffffffffffffffffffffff1673ffffffffffffffffffffffffffffffffffffffff166352a82b65600160009054906101000a900473ffffffffffffffffffffffffffffffffffffffff1673ffffffffffffffffffffffffffffffffffffffff16632cdfb6ae600260009054906101000a900473ffffffffffffffffffffffffffffffffffffffff1673ffffffffffffffffffffffffffffffffffffffff166352a82b6560405160200180878763ffffffff1690640100000000021768010000000000000000028152602001858563ffffffff1690640100000000021768010000000000000000028152602001838363ffffffff169064010000000002176801000000000000000002815260200196505050505050506040516020818303038152906040526040518263ffffffff167c01000000000000000000000000000000000000000000000000000000000281526004018080602001828103825283818151815260200191508051906020019080838360005b838110156103c45780820151818401526020810190506103a9565b50505050905090810190601f1680156103f15780820380516001836020036101000a031916815260200191505b5092505050602060405180830381600087803b15801561041057600080fd5b505af1158015610424573d6000803e3d6000fd5b505050506040513d602081101561043a57600080fd5b8101908080519060200190929190505050905090565b60008061045b6101cf565b90508273ffffffffffffffffffffffffffffffffffffffff1663a5d4b01e82600460009054906101000a900473ffffffffffffffffffffffffffffffffffffffff166040518363ffffffff167c0100000000000000000000000000000000000000000000000000000000028152600401808373ffffffffffffffffffffffffffffffffffffffff1673ffffffffffffffffffffffffffffffffffffffff1681526020018273ffffffffffffffffffffffffffffffffffffffff1673ffffffffffffffffffffffffffffffffffffffff1681526020019250505060206040518083038186803b15801561054c57600080fd5b505afa158015610560573d6000803e3d6000fd5b505050506040513d602081101561057657600080fd5b8101908080519060200190929190505050915050919050565b600560009054906101000a900473ffffffffffffffffffffffffffffffffffffffff1681565b6000600160009054906101000a900473ffffffffffffffffffffffffffffffffffffffff16600260009054906101000a900473ffffffffffffffffffffffffffffffffffffffff16600360009054906101000a900473ffffffffffffffffffffffffffffffffffffffff166106286106f6565b808473ffffffffffffffffffffffffffffffffffffffff1673ffffffffffffffffffffffffffffffffffffffff1681526020018373ffffffffffffffffffffffffffffffffffffffff1673ffffffffffffffffffffffffffffffffffffffff1681526020018273ffffffffffffffffffffffffffffffffffffffff1673ffffffffffffffffffffffffffffffffffffffff1681526020019350505050604051809103906000f0801580156106e0573d6000803e3d6000fd5b50905090565b6040516102b88061070783390190565b604051610ce3806109bf8339019056fe608060405234801561001057600080fd5b506040516020806102b88339810180604052602081101561003057600080fd5b81019080805190602001909291905050508060008190555050610260806100586000396000f3fe608060405260043610610046576000357c01000000000000000000000000000000000000000000000000000000009004806352a82b651461004b5780636450a32214610076575b600080fd5b34801561005757600080fd5b5061006061017e565b6040518082815260200191505060405180910390f35b34801561008257600080fd5b5061013c6004803603602081101561009957600080fd5b81019080803590602001906401000000008111156100b657600080fd5b8201836020820111156100c857600080fd5b803590602001918460018302840111640100000000831117156100ea57600080fd5b91908080601f016020809104026020016040519081016040528093929190818152602001838380828437600081840152601f19601f820116905080830192505050505050509192919290505050610184565b604051808273ffffffffffffffffffffffffffffffffffffffff1673ffffffffffffffffffffffffffffffffffffffff16815260200191505060405180910390f35b60005481565b60006002826040518082805190602001908083835b6020831015156101be5780518252602082019150602081019050602083039250610199565b6001836020036101000a038019825116818451168082178552505050505050905001915050602060405180830381855afa158015610200573d6000803e3d6000fd5b5050506040513d602081101561021557600080fd5b810190808051906020019092919050505060008190555030905091905056fea165627a7a7230582044c1d3330dd72fe986e23b6cdf03ebd121613b08964cc61ac3b914c8b864cf280029608060405234801561001057600080fd5b50604051606080610ce38339810180604052606081101561003057600080fd5b81019080805190602001909291908051906020019092919080519060200190929190505050600073ffffffffffffffffffffffffffffffffffffffff168173ffffffffffffffffffffffffffffffffffffffff16141515156100fa576040517f08c379a00000000000000000000000000000000000000000000000000000000081526004018080602001828103825260138152602001807f7468652061646472657373206973207a65726f0000000000000000000000000081525060200191505060405180910390fd5b600060010261010761040f565b80828152602001915050604051809103906000f08015801561012d573d6000803e3d6000fd5b5073ffffffffffffffffffffffffffffffffffffffff16636450a3228473ffffffffffffffffffffffffffffffffffffffff16632cdfb6ae8573ffffffffffffffffffffffffffffffffffffffff166352a82b658660405160200180868663ffffffff1690640100000000021768010000000000000000028152602001848463ffffffff16906401000000000217680100000000000000000281526020018273ffffffffffffffffffffffffffffffffffffffff1673ffffffffffffffffffffffffffffffffffffffff168152602001955050505050506040516020818303038152906040526040518263ffffffff167c01000000000000000000000000000000000000000000000000000000000281526004018080602001828103825283818151815260200191508051906020019080838360005b8381101561027e578082015181840152602081019050610263565b50505050905090810190601f1680156102ab5780820380516001836020036101000a031916815260200191505b5092505050602060405180830381600087803b1580156102ca57600080fd5b505af11580156102de573d6000803e3d6000fd5b505050506040513d60208110156102f457600080fd5b81019080805190602001909291905050506000806101000a81548173ffffffffffffffffffffffffffffffffffffffff021916908373ffffffffffffffffffffffffffffffffffffffff16021790555082600160006101000a81548173ffffffffffffffffffffffffffffffffffffffff021916908373ffffffffffffffffffffffffffffffffffffffff16021790555081600260006101000a81548173ffffffffffffffffffffffffffffffffffffffff021916908373ffffffffffffffffffffffffffffffffffffffff16021790555080600360006101000a81548173ffffffffffffffffffffffffffffffffffffffff021916908373ffffffffffffffffffffffffffffffffffffffff16021790555050505061041f565b6040516102b880610a2b83390190565b6105fd8061042e6000396000f3fe60806040526004361061007d576000357c010000000000000000000000000000000000000000000000000000000090048063063cd44f146100825780631b8a3d73146100d9578063484d59e6146101305780637472abf9146101875780638da5cb5b146101de578063a5d4b01e14610235578063e402e883146102be575b600080fd5b34801561008e57600080fd5b50610097610315565b604051808273ffffffffffffffffffffffffffffffffffffffff1673ffffffffffffffffffffffffffffffffffffffff16815260200191505060405180910390f35b3480156100e557600080fd5b506100ee61033f565b604051808273ffffffffffffffffffffffffffffffffffffffff1673ffffffffffffffffffffffffffffffffffffffff16815260200191505060405180910390f35b34801561013c57600080fd5b50610145610365565b604051808273ffffffffffffffffffffffffffffffffffffffff1673ffffffffffffffffffffffffffffffffffffffff16815260200191505060405180910390f35b34801561019357600080fd5b5061019c61038b565b604051808273ffffffffffffffffffffffffffffffffffffffff1673ffffffffffffffffffffffffffffffffffffffff16815260200191505060405180910390f35b3480156101ea57600080fd5b506101f36103b1565b604051808273ffffffffffffffffffffffffffffffffffffffff1673ffffffffffffffffffffffffffffffffffffffff16815260200191505060405180910390f35b34801561024157600080fd5b506102a46004803603604081101561025857600080fd5b81019080803573ffffffffffffffffffffffffffffffffffffffff169060200190929190803573ffffffffffffffffffffffffffffffffffffffff1690602001909291905050506103d7565b604051808215151515815260200191505060405180910390f35b3480156102ca57600080fd5b506102d36105ac565b604051808273ffffffffffffffffffffffffffffffffffffffff1673ffffffffffffffffffffffffffffffffffffffff16815260200191505060405180910390f35b6000600160009054906101000a900473ffffffffffffffffffffffffffffffffffffffff16905090565b600260009054906101000a900473ffffffffffffffffffffffffffffffffffffffff1681565b600160009054906101000a900473ffffffffffffffffffffffffffffffffffffffff1681565b600460009054906101000a900473ffffffffffffffffffffffffffffffffffffffff1681565b600360009054906101000a900473ffffffffffffffffffffffffffffffffffffffff1681565b600080600160009054906101000a900473ffffffffffffffffffffffffffffffffffffffff1673ffffffffffffffffffffffffffffffffffffffff1663e19391f86040518163ffffffff167c010000000000000000000000000000000000000000000000000000000002815260040160206040518083038186803b15801561045e57600080fd5b505afa158015610472573d6000803e3d6000fd5b505050506040513d602081101561048857600080fd5b810190808051906020019092919050505090508273ffffffffffffffffffffffffffffffffffffffff16632c2146aa85836040518363ffffffff167c0100000000000000000000000000000000000000000000000000000000028152600401808373ffffffffffffffffffffffffffffffffffffffff1673ffffffffffffffffffffffffffffffffffffffff1681526020018273ffffffffffffffffffffffffffffffffffffffff1673ffffffffffffffffffffffffffffffffffffffff1681526020019250505060206040518083038186803b15801561056857600080fd5b505afa15801561057c573d6000803e3d6000fd5b505050506040513d602081101561059257600080fd5b810190808051906020019092919050505091505092915050565b6000809054906101000a900473ffffffffffffffffffffffffffffffffffffffff168156fea165627a7a7230582036e229b49ac5d0d9af6b28d8fe9bebdd5bb6a192a6f180396278df817040c1c50029608060405234801561001057600080fd5b506040516020806102b88339810180604052602081101561003057600080fd5b81019080805190602001909291905050508060008190555050610260806100586000396000f3fe608060405260043610610046576000357c01000000000000000000000000000000000000000000000000000000009004806352a82b651461004b5780636450a32214610076575b600080fd5b34801561005757600080fd5b5061006061017e565b6040518082815260200191505060405180910390f35b34801561008257600080fd5b5061013c6004803603602081101561009957600080fd5b81019080803590602001906401000000008111156100b657600080fd5b8201836020820111156100c857600080fd5b803590602001918460018302840111640100000000831117156100ea57600080fd5b91908080601f016020809104026020016040519081016040528093929190818152602001838380828437600081840152601f19601f820116905080830192505050505050509192919290505050610184565b604051808273ffffffffffffffffffffffffffffffffffffffff1673ffffffffffffffffffffffffffffffffffffffff16815260200191505060405180910390f35b60005481565b60006002826040518082805190602001908083835b6020831015156101be5780518252602082019150602081019050602083039250610199565b6001836020036101000a038019825116818451168082178552505050505050905001915050602060405180830381855afa158015610200573d6000803e3d6000fd5b5050506040513d602081101561021557600080fd5b810190808051906020019092919050505060008190555030905091905056fea165627a7a7230582044c1d3330dd72fe986e23b6cdf03ebd121613b08964cc61ac3b914c8b864cf280029a165627a7a72305820963e74114982fe9600232f40f5d13cb4a796df741af46c5a4bb2b2223be44a6c0029608060405234801561001057600080fd5b50604051606080610ce38339810180604052606081101561003057600080fd5b81019080805190602001909291908051906020019092919080519060200190929190505050600073ffffffffffffffffffffffffffffffffffffffff168173ffffffffffffffffffffffffffffffffffffffff16141515156100fa576040517f08c379a00000000000000000000000000000000000000000000000000000000081526004018080602001828103825260138152602001807f7468652061646472657373206973207a65726f0000000000000000000000000081525060200191505060405180910390fd5b600060010261010761040f565b80828152602001915050604051809103906000f08015801561012d573d6000803e3d6000fd5b5073ffffffffffffffffffffffffffffffffffffffff16636450a3228473ffffffffffffffffffffffffffffffffffffffff16632cdfb6ae8573ffffffffffffffffffffffffffffffffffffffff166352a82b658660405160200180868663ffffffff1690640100000000021768010000000000000000028152602001848463ffffffff16906401000000000217680100000000000000000281526020018273ffffffffffffffffffffffffffffffffffffffff1673ffffffffffffffffffffffffffffffffffffffff168152602001955050505050506040516020818303038152906040526040518263ffffffff167c01000000000000000000000000000000000000000000000000000000000281526004018080602001828103825283818151815260200191508051906020019080838360005b8381101561027e578082015181840152602081019050610263565b50505050905090810190601f1680156102ab5780820380516001836020036101000a031916815260200191505b5092505050602060405180830381600087803b1580156102ca57600080fd5b505af11580156102de573d6000803e3d6000fd5b505050506040513d60208110156102f457600080fd5b81019080805190602001909291905050506000806101000a81548173ffffffffffffffffffffffffffffffffffffffff021916908373ffffffffffffffffffffffffffffffffffffffff16021790555082600160006101000a81548173ffffffffffffffffffffffffffffffffffffffff021916908373ffffffffffffffffffffffffffffffffffffffff16021790555081600260006101000a81548173ffffffffffffffffffffffffffffffffffffffff021916908373ffffffffffffffffffffffffffffffffffffffff16021790555080600360006101000a81548173ffffffffffffffffffffffffffffffffffffffff021916908373ffffffffffffffffffffffffffffffffffffffff16021790555050505061041f565b6040516102b880610a2b83390190565b6105fd8061042e6000396000f3fe60806040526004361061007d576000357c010000000000000000000000000000000000000000000000000000000090048063063cd44f146100825780631b8a3d73146100d9578063484d59e6146101305780637472abf9146101875780638da5cb5b146101de578063a5d4b01e14610235578063e402e883146102be575b600080fd5b34801561008e57600080fd5b50610097610315565b604051808273ffffffffffffffffffffffffffffffffffffffff1673ffffffffffffffffffffffffffffffffffffffff16815260200191505060405180910390f35b3480156100e557600080fd5b506100ee61033f565b604051808273ffffffffffffffffffffffffffffffffffffffff1673ffffffffffffffffffffffffffffffffffffffff16815260200191505060405180910390f35b34801561013c57600080fd5b50610145610365565b604051808273ffffffffffffffffffffffffffffffffffffffff1673ffffffffffffffffffffffffffffffffffffffff16815260200191505060405180910390f35b34801561019357600080fd5b5061019c61038b565b604051808273ffffffffffffffffffffffffffffffffffffffff1673ffffffffffffffffffffffffffffffffffffffff16815260200191505060405180910390f35b3480156101ea57600080fd5b506101f36103b1565b604051808273ffffffffffffffffffffffffffffffffffffffff1673ffffffffffffffffffffffffffffffffffffffff16815260200191505060405180910390f35b34801561024157600080fd5b506102a46004803603604081101561025857600080fd5b81019080803573ffffffffffffffffffffffffffffffffffffffff169060200190929190803573ffffffffffffffffffffffffffffffffffffffff1690602001909291905050506103d7565b604051808215151515815260200191505060405180910390f35b3480156102ca57600080fd5b506102d36105ac565b604051808273ffffffffffffffffffffffffffffffffffffffff1673ffffffffffffffffffffffffffffffffffffffff16815260200191505060405180910390f35b6000600160009054906101000a900473ffffffffffffffffffffffffffffffffffffffff16905090565b600260009054906101000a900473ffffffffffffffffffffffffffffffffffffffff1681565b600160009054906101000a900473ffffffffffffffffffffffffffffffffffffffff1681565b600460009054906101000a900473ffffffffffffffffffffffffffffffffffffffff1681565b600360009054906101000a900473ffffffffffffffffffffffffffffffffffffffff1681565b600080600160009054906101000a900473ffffffffffffffffffffffffffffffffffffffff1673ffffffffffffffffffffffffffffffffffffffff1663e19391f86040518163ffffffff167c010000000000000000000000000000000000000000000000000000000002815260040160206040518083038186803b15801561045e57600080fd5b505afa158015610472573d6000803e3d6000fd5b505050506040513d602081101561048857600080fd5b810190808051906020019092919050505090508273ffffffffffffffffffffffffffffffffffffffff16632c2146aa85836040518363ffffffff167c0100000000000000000000000000000000000000000000000000000000028152600401808373ffffffffffffffffffffffffffffffffffffffff1673ffffffffffffffffffffffffffffffffffffffff1681526020018273ffffffffffffffffffffffffffffffffffffffff1673ffffffffffffffffffffffffffffffffffffffff1681526020019250505060206040518083038186803b15801561056857600080fd5b505afa15801561057c573d6000803e3d6000fd5b505050506040513d602081101561059257600080fd5b810190808051906020019092919050505091505092915050565b6000809054906101000a900473ffffffffffffffffffffffffffffffffffffffff168156fea165627a7a7230582036e229b49ac5d0d9af6b28d8fe9bebdd5bb6a192a6f180396278df817040c1c50029608060405234801561001057600080fd5b506040516020806102b88339810180604052602081101561003057600080fd5b81019080805190602001909291905050508060008190555050610260806100586000396000f3fe608060405260043610610046576000357c01000000000000000000000000000000000000000000000000000000009004806352a82b651461004b5780636450a32214610076575b600080fd5b34801561005757600080fd5b5061006061017e565b6040518082815260200191505060405180910390f35b34801561008257600080fd5b5061013c6004803603602081101561009957600080fd5b81019080803590602001906401000000008111156100b657600080fd5b8201836020820111156100c857600080fd5b803590602001918460018302840111640100000000831117156100ea57600080fd5b91908080601f016020809104026020016040519081016040528093929190818152602001838380828437600081840152601f19601f820116905080830192505050505050509192919290505050610184565b604051808273ffffffffffffffffffffffffffffffffffffffff1673ffffffffffffffffffffffffffffffffffffffff16815260200191505060405180910390f35b60005481565b60006002826040518082805190602001908083835b6020831015156101be5780518252602082019150602081019050602083039250610199565b6001836020036101000a038019825116818451168082178552505050505050905001915050602060405180830381855afa158015610200573d6000803e3d6000fd5b5050506040513d602081101561021557600080fd5b810190808051906020019092919050505060008190555030905091905056fea165627a7a7230582044c1d3330dd72fe986e23b6cdf03ebd121613b08964cc61ac3b914c8b864cf280029a165627a7a723058201ec39a366c9d9a6ed5ca89abc1c31f52179507f6cc9a2694540278d91721c91d0029",
  "source": "pragma solidity >=0.5.1;\n\nimport {Sha256,Pubkey,Signature} from \"./primitive.sol\";\nimport {NodeInfo} from \"./NodeInfo.sol\";\nimport {RequestInfo} from \"./RequestInfo.sol\";\nimport {Propagation} from \"./Propagation.sol\";\n\ncontract NodeRegister {\n    mapping(bytes32 => NodeInfo) public nodes;\n    mapping(bytes32 => Propagation) public proofs;\n\n\n    function register(Sha256 _parent_id, Pubkey _pubkey, Sha256 _circuit_digest, address _owner, Signature _witness) public {\n        (bool parent_exist, NodeInfo parent) = search(_parent_id);\n        require(parent_exist==true&&_parent_id==parent.node_id(),\"the parent node does not exist\");\n        Propagation proof = new Propagation(_parent_id,_pubkey,_circuit_digest,_owner,_witness);\n        require(proof.verify(parent),\"invalid signature\");\n        NodeInfo child = new NodeInfo(_pubkey,_circuit_digest,_owner);\n        Sha256 child_id = child.node_id();\n        (bool child_exist,) = search(child_id);\n        require(child_exist==false,\"the child node already exists\");\n        require(proofs[child_id.digest()].exist().flag()==false,\"the proof already exists\");\n        child.exist().add();\n        proof.exist().add();\n        nodes[child_id.digest()] = child;\n        proofs[child_id.digest()] = proof;\n    }\n\n    function search(Sha256 node_id) view public returns (bool exist, NodeInfo node){\n        node = nodes[node_id.digest()];\n        if(node.exist().flag()==true) return (true,node);\n        else return (false,node);\n    }\n}\n",
  "sourcePath": "/Users/suegamisora/GoogleDrive/projects/propagative_tee_contracts/contracts/NodeRegister.sol",
  "compiler": {
    "name": "solc",
    "version": "0.5.1+commit.c8a2cb62.Emscripten.clang"
  },
  "schemaVersion": "3.0.9",
  "updatedAt": "2020-01-28T08:48:16.532Z",
  "devdoc": {
    "methods": {}
  },
  "userdoc": {
    "methods": {}
  }
}