{
  "contractName": "Propagation",
  "abi": [
    {
      "inputs": [
        {
          "name": "_parent_id",
          "type": "address"
        },
        {
          "name": "_pubkey",
          "type": "address"
        },
        {
          "name": "_circuit_digest",
          "type": "address"
        },
        {
          "name": "_owner",
          "type": "address"
        },
        {
          "name": "_witness",
          "type": "address"
        }
      ],
      "payable": false,
      "stateMutability": "view",
      "type": "function",
      "constant": true,
      "name": "exist",
      "outputs": [
        {
          "name": "",
          "type": "address"
        }
      ]
    },
    {
      "constant": false,
      "inputs": [
        {
          "name": "_parent_id",
          "type": "address"
        },
        {
          "name": "_pubkey",
          "type": "address"
        },
        {
          "name": "_circuit_digest",
          "type": "address"
        },
        {
          "name": "_owner",
          "type": "address"
        },
        {
          "name": "_witness",
          "type": "address"
        }
      ],
      "name": "verify",
      "outputs": [
        {
          "name": "",
          "type": "bool"
        }
      ],
      "payable": false,
      "stateMutability": "nonpayable",
      "type": "constructor"
    },
    {
      "constant": false,
      "inputs": [],
      "name": "digest",
      "outputs": [
        {
          "name": "",
          "type": "address"
        }
      ],
      "payable": false,
      "stateMutability": "nonpayable",
      "type": "function"
    },
    {
      "constant": false,
      "inputs": [
        {
          "name": "_node_info",
          "type": "address"
        }
      ],
      "name": "verify",
      "outputs": [
        {
          "name": "",
          "type": "bool"
        }
      ],
      "payable": false,
      "stateMutability": "nonpayable",
      "type": "function"
    },
    {
      "constant": false,
      "inputs": [],
      "name": "child_node_info",
      "outputs": [
        {
          "name": "",
          "type": "address"
        }
      ],
      "payable": false,
      "stateMutability": "nonpayable",
      "type": "function"
    }
  ],
  "bytecode": "0x608060405234801561001057600080fd5b5060405160a080611933833981018060405260a081101561003057600080fd5b810190808051906020019092919080519060200190929190805190602001909291908051906020019092919080519060200190929190505050600073ffffffffffffffffffffffffffffffffffffffff168273ffffffffffffffffffffffffffffffffffffffff161415151561010e576040517f08c379a00000000000000000000000000000000000000000000000000000000081526004018080602001828103825260138152602001807f7468652061646472657373206973207a65726f0000000000000000000000000081525060200191505060405180910390fd5b846000806101000a81548173ffffffffffffffffffffffffffffffffffffffff021916908373ffffffffffffffffffffffffffffffffffffffff16021790555083600160006101000a81548173ffffffffffffffffffffffffffffffffffffffff021916908373ffffffffffffffffffffffffffffffffffffffff16021790555082600260006101000a81548173ffffffffffffffffffffffffffffffffffffffff021916908373ffffffffffffffffffffffffffffffffffffffff16021790555081600360006101000a81548173ffffffffffffffffffffffffffffffffffffffff021916908373ffffffffffffffffffffffffffffffffffffffff16021790555080600460006101000a81548173ffffffffffffffffffffffffffffffffffffffff021916908373ffffffffffffffffffffffffffffffffffffffff16021790555050505050506116cd806102666000396000f3fe60806040526004361061005c576000357c01000000000000000000000000000000000000000000000000000000009004806352a82b651461006157806363a9c3d7146100b85780637472abf914610121578063ff5154c514610178575b600080fd5b34801561006d57600080fd5b506100766101cf565b604051808273ffffffffffffffffffffffffffffffffffffffff1673ffffffffffffffffffffffffffffffffffffffff16815260200191505060405180910390f35b3480156100c457600080fd5b50610107600480360360208110156100db57600080fd5b81019080803573ffffffffffffffffffffffffffffffffffffffff169060200190929190505050610450565b604051808215151515815260200191505060405180910390f35b34801561012d57600080fd5b5061013661058f565b604051808273ffffffffffffffffffffffffffffffffffffffff1673ffffffffffffffffffffffffffffffffffffffff16815260200191505060405180910390f35b34801561018457600080fd5b5061018d6105b5565b604051808273ffffffffffffffffffffffffffffffffffffffff1673ffffffffffffffffffffffffffffffffffffffff16815260200191505060405180910390f35b6000806001026101dd6106e6565b80828152602001915050604051809103906000f080158015610203573d6000803e3d6000fd5b5073ffffffffffffffffffffffffffffffffffffffff16636450a3226000809054906101000a900473ffffffffffffffffffffffffffffffffffffffff1673ffffffffffffffffffffffffffffffffffffffff166352a82b65600160009054906101000a900473ffffffffffffffffffffffffffffffffffffffff1673ffffffffffffffffffffffffffffffffffffffff16632cdfb6ae600260009054906101000a900473ffffffffffffffffffffffffffffffffffffffff1673ffffffffffffffffffffffffffffffffffffffff166352a82b6560405160200180878763ffffffff1690640100000000021768010000000000000000028152602001858563ffffffff1690640100000000021768010000000000000000028152602001838363ffffffff169064010000000002176801000000000000000002815260200196505050505050506040516020818303038152906040526040518263ffffffff167c01000000000000000000000000000000000000000000000000000000000281526004018080602001828103825283818151815260200191508051906020019080838360005b838110156103c45780820151818401526020810190506103a9565b50505050905090810190601f1680156103f15780820380516001836020036101000a031916815260200191505b5092505050602060405180830381600087803b15801561041057600080fd5b505af1158015610424573d6000803e3d6000fd5b505050506040513d602081101561043a57600080fd5b8101908080519060200190929190505050905090565b60008061045b6101cf565b90508273ffffffffffffffffffffffffffffffffffffffff1663a5d4b01e82600460009054906101000a900473ffffffffffffffffffffffffffffffffffffffff166040518363ffffffff167c0100000000000000000000000000000000000000000000000000000000028152600401808373ffffffffffffffffffffffffffffffffffffffff1673ffffffffffffffffffffffffffffffffffffffff1681526020018273ffffffffffffffffffffffffffffffffffffffff1673ffffffffffffffffffffffffffffffffffffffff1681526020019250505060206040518083038186803b15801561054c57600080fd5b505afa158015610560573d6000803e3d6000fd5b505050506040513d602081101561057657600080fd5b8101908080519060200190929190505050915050919050565b600560009054906101000a900473ffffffffffffffffffffffffffffffffffffffff1681565b6000600160009054906101000a900473ffffffffffffffffffffffffffffffffffffffff16600260009054906101000a900473ffffffffffffffffffffffffffffffffffffffff16600360009054906101000a900473ffffffffffffffffffffffffffffffffffffffff166106286106f6565b808473ffffffffffffffffffffffffffffffffffffffff1673ffffffffffffffffffffffffffffffffffffffff1681526020018373ffffffffffffffffffffffffffffffffffffffff1673ffffffffffffffffffffffffffffffffffffffff1681526020018273ffffffffffffffffffffffffffffffffffffffff1673ffffffffffffffffffffffffffffffffffffffff1681526020019350505050604051809103906000f0801580156106e0573d6000803e3d6000fd5b50905090565b6040516102b88061070783390190565b604051610ce3806109bf8339019056fe608060405234801561001057600080fd5b506040516020806102b88339810180604052602081101561003057600080fd5b81019080805190602001909291905050508060008190555050610260806100586000396000f3fe608060405260043610610046576000357c01000000000000000000000000000000000000000000000000000000009004806352a82b651461004b5780636450a32214610076575b600080fd5b34801561005757600080fd5b5061006061017e565b6040518082815260200191505060405180910390f35b34801561008257600080fd5b5061013c6004803603602081101561009957600080fd5b81019080803590602001906401000000008111156100b657600080fd5b8201836020820111156100c857600080fd5b803590602001918460018302840111640100000000831117156100ea57600080fd5b91908080601f016020809104026020016040519081016040528093929190818152602001838380828437600081840152601f19601f820116905080830192505050505050509192919290505050610184565b604051808273ffffffffffffffffffffffffffffffffffffffff1673ffffffffffffffffffffffffffffffffffffffff16815260200191505060405180910390f35b60005481565b60006002826040518082805190602001908083835b6020831015156101be5780518252602082019150602081019050602083039250610199565b6001836020036101000a038019825116818451168082178552505050505050905001915050602060405180830381855afa158015610200573d6000803e3d6000fd5b5050506040513d602081101561021557600080fd5b810190808051906020019092919050505060008190555030905091905056fea165627a7a7230582044c1d3330dd72fe986e23b6cdf03ebd121613b08964cc61ac3b914c8b864cf280029608060405234801561001057600080fd5b50604051606080610ce38339810180604052606081101561003057600080fd5b81019080805190602001909291908051906020019092919080519060200190929190505050600073ffffffffffffffffffffffffffffffffffffffff168173ffffffffffffffffffffffffffffffffffffffff16141515156100fa576040517f08c379a00000000000000000000000000000000000000000000000000000000081526004018080602001828103825260138152602001807f7468652061646472657373206973207a65726f0000000000000000000000000081525060200191505060405180910390fd5b600060010261010761040f565b80828152602001915050604051809103906000f08015801561012d573d6000803e3d6000fd5b5073ffffffffffffffffffffffffffffffffffffffff16636450a3228473ffffffffffffffffffffffffffffffffffffffff16632cdfb6ae8573ffffffffffffffffffffffffffffffffffffffff166352a82b658660405160200180868663ffffffff1690640100000000021768010000000000000000028152602001848463ffffffff16906401000000000217680100000000000000000281526020018273ffffffffffffffffffffffffffffffffffffffff1673ffffffffffffffffffffffffffffffffffffffff168152602001955050505050506040516020818303038152906040526040518263ffffffff167c01000000000000000000000000000000000000000000000000000000000281526004018080602001828103825283818151815260200191508051906020019080838360005b8381101561027e578082015181840152602081019050610263565b50505050905090810190601f1680156102ab5780820380516001836020036101000a031916815260200191505b5092505050602060405180830381600087803b1580156102ca57600080fd5b505af11580156102de573d6000803e3d6000fd5b505050506040513d60208110156102f457600080fd5b81019080805190602001909291905050506000806101000a81548173ffffffffffffffffffffffffffffffffffffffff021916908373ffffffffffffffffffffffffffffffffffffffff16021790555082600160006101000a81548173ffffffffffffffffffffffffffffffffffffffff021916908373ffffffffffffffffffffffffffffffffffffffff16021790555081600260006101000a81548173ffffffffffffffffffffffffffffffffffffffff021916908373ffffffffffffffffffffffffffffffffffffffff16021790555080600360006101000a81548173ffffffffffffffffffffffffffffffffffffffff021916908373ffffffffffffffffffffffffffffffffffffffff16021790555050505061041f565b6040516102b880610a2b83390190565b6105fd8061042e6000396000f3fe60806040526004361061007d576000357c010000000000000000000000000000000000000000000000000000000090048063063cd44f146100825780631b8a3d73146100d9578063484d59e6146101305780637472abf9146101875780638da5cb5b146101de578063a5d4b01e14610235578063e402e883146102be575b600080fd5b34801561008e57600080fd5b50610097610315565b604051808273ffffffffffffffffffffffffffffffffffffffff1673ffffffffffffffffffffffffffffffffffffffff16815260200191505060405180910390f35b3480156100e557600080fd5b506100ee61033f565b604051808273ffffffffffffffffffffffffffffffffffffffff1673ffffffffffffffffffffffffffffffffffffffff16815260200191505060405180910390f35b34801561013c57600080fd5b50610145610365565b604051808273ffffffffffffffffffffffffffffffffffffffff1673ffffffffffffffffffffffffffffffffffffffff16815260200191505060405180910390f35b34801561019357600080fd5b5061019c61038b565b604051808273ffffffffffffffffffffffffffffffffffffffff1673ffffffffffffffffffffffffffffffffffffffff16815260200191505060405180910390f35b3480156101ea57600080fd5b506101f36103b1565b604051808273ffffffffffffffffffffffffffffffffffffffff1673ffffffffffffffffffffffffffffffffffffffff16815260200191505060405180910390f35b34801561024157600080fd5b506102a46004803603604081101561025857600080fd5b81019080803573ffffffffffffffffffffffffffffffffffffffff169060200190929190803573ffffffffffffffffffffffffffffffffffffffff1690602001909291905050506103d7565b604051808215151515815260200191505060405180910390f35b3480156102ca57600080fd5b506102d36105ac565b604051808273ffffffffffffffffffffffffffffffffffffffff1673ffffffffffffffffffffffffffffffffffffffff16815260200191505060405180910390f35b6000600160009054906101000a900473ffffffffffffffffffffffffffffffffffffffff16905090565b600260009054906101000a900473ffffffffffffffffffffffffffffffffffffffff1681565b600160009054906101000a900473ffffffffffffffffffffffffffffffffffffffff1681565b600460009054906101000a900473ffffffffffffffffffffffffffffffffffffffff1681565b600360009054906101000a900473ffffffffffffffffffffffffffffffffffffffff1681565b600080600160009054906101000a900473ffffffffffffffffffffffffffffffffffffffff1673ffffffffffffffffffffffffffffffffffffffff1663e19391f86040518163ffffffff167c010000000000000000000000000000000000000000000000000000000002815260040160206040518083038186803b15801561045e57600080fd5b505afa158015610472573d6000803e3d6000fd5b505050506040513d602081101561048857600080fd5b810190808051906020019092919050505090508273ffffffffffffffffffffffffffffffffffffffff16632c2146aa85836040518363ffffffff167c0100000000000000000000000000000000000000000000000000000000028152600401808373ffffffffffffffffffffffffffffffffffffffff1673ffffffffffffffffffffffffffffffffffffffff1681526020018273ffffffffffffffffffffffffffffffffffffffff1673ffffffffffffffffffffffffffffffffffffffff1681526020019250505060206040518083038186803b15801561056857600080fd5b505afa15801561057c573d6000803e3d6000fd5b505050506040513d602081101561059257600080fd5b810190808051906020019092919050505091505092915050565b6000809054906101000a900473ffffffffffffffffffffffffffffffffffffffff168156fea165627a7a7230582036e229b49ac5d0d9af6b28d8fe9bebdd5bb6a192a6f180396278df817040c1c50029608060405234801561001057600080fd5b506040516020806102b88339810180604052602081101561003057600080fd5b81019080805190602001909291905050508060008190555050610260806100586000396000f3fe608060405260043610610046576000357c01000000000000000000000000000000000000000000000000000000009004806352a82b651461004b5780636450a32214610076575b600080fd5b34801561005757600080fd5b5061006061017e565b6040518082815260200191505060405180910390f35b34801561008257600080fd5b5061013c6004803603602081101561009957600080fd5b81019080803590602001906401000000008111156100b657600080fd5b8201836020820111156100c857600080fd5b803590602001918460018302840111640100000000831117156100ea57600080fd5b91908080601f016020809104026020016040519081016040528093929190818152602001838380828437600081840152601f19601f820116905080830192505050505050509192919290505050610184565b604051808273ffffffffffffffffffffffffffffffffffffffff1673ffffffffffffffffffffffffffffffffffffffff16815260200191505060405180910390f35b60005481565b60006002826040518082805190602001908083835b6020831015156101be5780518252602082019150602081019050602083039250610199565b6001836020036101000a038019825116818451168082178552505050505050905001915050602060405180830381855afa158015610200573d6000803e3d6000fd5b5050506040513d602081101561021557600080fd5b810190808051906020019092919050505060008190555030905091905056fea165627a7a7230582044c1d3330dd72fe986e23b6cdf03ebd121613b08964cc61ac3b914c8b864cf280029a165627a7a72305820963e74114982fe9600232f40f5d13cb4a796df741af46c5a4bb2b2223be44a6c0029",
  "source": "pragma solidity >=0.5.1;\n\nimport {Sha256,Pubkey,Signature,Existence} from \"./primitive.sol\";\nimport {NodeInfo} from \"./NodeInfo.sol\";\n\ncontract Propagation {\n    Sha256 parent_id;\n    Pubkey pubkey;\n    Sha256 circuit_digest;\n    address owner;\n    Signature witness;\n    Existence public exist;\n\n    constructor(Sha256 _parent_id, Pubkey _pubkey, Sha256 _circuit_digest, address _owner, Signature _witness) public {\n        require(_owner!=address(0),\"the address is zero\");\n        parent_id = _parent_id;\n        pubkey = _pubkey;\n        circuit_digest = _circuit_digest;\n        owner = _owner;\n        witness = _witness;\n    }\n\n    function digest() public returns (Sha256) {\n        return new Sha256(bytes32(0)).generate(abi.encode(parent_id.digest,pubkey.pubkey,circuit_digest.digest));\n    }\n\n    function verify(NodeInfo _node_info) public returns (bool) {\n        Sha256 _hash = digest();\n        return _node_info.verify_signature(_hash,witness);\n    }\n\n    function child_node_info() public returns (NodeInfo) {\n        return new NodeInfo(pubkey,circuit_digest,owner);\n    }\n}\n",
  "sourcePath": "/Users/suegamisora/GoogleDrive/projects/propagative_tee_contracts/contracts/Propagation.sol",
  "compiler": {
    "name": "solc",
    "version": "0.5.1+commit.c8a2cb62.Emscripten.clang"
  },
  "schemaVersion": "3.0.9",
  "updatedAt": "2020-01-28T08:48:16.562Z",
  "devdoc": {
    "methods": {}
  },
  "userdoc": {
    "methods": {}
  }
}