{
  "contractName": "Pubkey",
  "abi": [
    {
      "constant": true,
      "inputs": [
        {
          "name": "",
          "type": "uint256"
        }
      ],
      "name": "pubkey",
      "outputs": [
        {
          "name": "",
          "type": "uint8"
        }
      ],
      "payable": false,
      "stateMutability": "view",
      "type": "function"
    },
    {
      "inputs": [
        {
          "name": "_pubkey",
          "type": "uint8[64]"
        }
      ],
      "payable": false,
      "stateMutability": "nonpayable",
      "type": "constructor"
    },
    {
      "constant": true,
      "inputs": [],
      "name": "to_address",
      "outputs": [
        {
          "name": "",
          "type": "address"
        }
      ],
      "payable": false,
      "stateMutability": "view",
      "type": "function"
    }
  ],
  "bytecode": "0x608060405234801561001057600080fd5b50604051610800806102fe833981018060405261080081101561003257600080fd5b810190809190505060408014151561004957600080fd5b80600090604061005a929190610061565b505061012b565b826040601f016020900481019282156100ea5791602002820160005b838211156100bb57835183826101000a81548160ff021916908360ff160217905550926020019260010160208160000104928301926001030261007d565b80156100e85782816101000a81549060ff02191690556001016020816000010492830192600103026100bb565b505b5090506100f791906100fb565b5090565b61012891905b8082111561012457600081816101000a81549060ff021916905550600101610101565b5090565b90565b6101c48061013a6000396000f3fe608060405260043610610046576000357c0100000000000000000000000000000000000000000000000000000000900480632cdfb6ae1461004b578063e19391f8146100a0575b600080fd5b34801561005757600080fd5b506100846004803603602081101561006e57600080fd5b81019080803590602001909291905050506100f7565b604051808260ff1660ff16815260200191505060405180910390f35b3480156100ac57600080fd5b506100b5610120565b604051808273ffffffffffffffffffffffffffffffffffffffff1673ffffffffffffffffffffffffffffffffffffffff16815260200191505060405180910390f35b60008160408110151561010657fe5b60209182820401919006915054906101000a900460ff1681565b600080604051602001808260408015610174576020028201916000905b82829054906101000a900460ff1660ff168152602001906001019060208260000104928301926001038202915080841161013d5790505b5050915050604051602081830303815290604052805190602001206001900490509056fea165627a7a7230582050a2e58172d1899c040195839a4742db3419ccb45e199d367e5fa6f809bb668c0029",
  "source": "pragma solidity >=0.5.1;\n\ncontract Pubkey {\n    uint8[64] public pubkey;\n\n    constructor(uint8[64] memory _pubkey) public {\n        require(_pubkey.length == 64);\n        pubkey = _pubkey;\n    }\n\n    function to_address() view public returns (address) {\n        return address(uint160(uint256(keccak256(abi.encode(pubkey)))));\n    }\n}\n\ncontract Sha256 {\n    bytes32 public digest;\n\n    constructor(bytes32 _hash) public {\n        digest = _hash;\n    }\n\n    function generate(bytes memory _input) public returns (Sha256){\n        digest = sha256(_input);\n        return this;\n    }\n}\n\ncontract Signature {\n    bytes public signature;\n\n    constructor(bytes memory _signature) public {\n        require(_signature.length == 65,\"invalid length of the given signature\");\n        signature = _signature;\n    }\n\n    function verify(Sha256 _hash, address _signer) public view returns (bool) {\n        bytes32 r;\n        bytes32 s;\n        uint8 v;\n\n        bytes memory sig = signature;\n\n        assembly {\n            r := mload(add(sig, 32))\n            s := mload(add(sig, 64))\n            v := byte(0, mload(add(sig, 96)))\n        }\n\n        if (v < 27) {\n            v += 27;\n        }\n\n        bytes memory prefix = \"\\x19Ethereum Signed Message:\\n32\";\n        bytes32 prefixedHash = sha256(abi.encode(prefix, _hash.digest));\n\n        require(v == 27 || v == 28, \"invalid signature version\");\n        address recovered_address = ecrecover(prefixedHash, v, r, s);\n        require(recovered_address != address(0x0), \"recovered address is zero\");\n\n        return _signer == recovered_address;\n    }\n}\n\n\ncontract Existence {\n    bool public flag;\n\n    constructor() public {\n        flag = false;\n    }\n\n    function add() public {\n        flag = true;\n    }\n\n    function del() public {\n        flag = false;\n    }\n}\n\n",
  "sourcePath": "/Users/suegamisora/GoogleDrive/projects/propagative_tee_contracts/contracts/primitive.sol",
  "compiler": {
    "name": "solc",
    "version": "0.5.1+commit.c8a2cb62.Emscripten.clang"
  },
  "schemaVersion": "3.0.9",
  "updatedAt": "2020-01-28T08:21:10.244Z",
  "devdoc": {
    "methods": {}
  },
  "userdoc": {
    "methods": {}
  }
}