{
  "contractName": "Signature",
  "abi": [
    {
      "constant": true,
      "inputs": [],
      "name": "signature",
      "outputs": [
        {
          "name": "",
          "type": "bytes"
        }
      ],
      "payable": false,
      "stateMutability": "view",
      "type": "function"
    },
    {
      "inputs": [
        {
          "name": "_signature",
          "type": "bytes"
        }
      ],
      "payable": false,
      "stateMutability": "nonpayable",
      "type": "constructor"
    },
    {
      "constant": true,
      "inputs": [
        {
          "name": "_hash",
          "type": "address"
        },
        {
          "name": "_signer",
          "type": "address"
        }
      ],
      "name": "verify",
      "outputs": [
        {
          "name": "",
          "type": "bool"
        }
      ],
      "payable": false,
      "stateMutability": "view",
      "type": "function"
    }
  ],
  "bytecode": "0x608060405234801561001057600080fd5b5060405161086c38038061086c8339810180604052602081101561003357600080fd5b81019080805164010000000081111561004b57600080fd5b8281019050602081018481111561006157600080fd5b815185600182028301116401000000008211171561007e57600080fd5b505092919050505060418151141515610125576040517f08c379a00000000000000000000000000000000000000000000000000000000081526004018080602001828103825260258152602001807f696e76616c6964206c656e677468206f662074686520676976656e207369676e81526020017f617475726500000000000000000000000000000000000000000000000000000081525060400191505060405180910390fd5b806000908051906020019061013b929190610142565b50506101e7565b828054600181600116156101000203166002900490600052602060002090601f016020900481019282601f1061018357805160ff19168380011785556101b1565b828001600101855582156101b1579182015b828111156101b0578251825591602001919060010190610195565b5b5090506101be91906101c2565b5090565b6101e491905b808211156101e05760008160009055506001016101c8565b5090565b90565b610676806101f66000396000f3fe608060405260043610610046576000357c0100000000000000000000000000000000000000000000000000000000900480632c2146aa1461004b57806351ff4847146100d4575b600080fd5b34801561005757600080fd5b506100ba6004803603604081101561006e57600080fd5b81019080803573ffffffffffffffffffffffffffffffffffffffff169060200190929190803573ffffffffffffffffffffffffffffffffffffffff169060200190929190505050610164565b604051808215151515815260200191505060405180910390f35b3480156100e057600080fd5b506100e96105ac565b6040518080602001828103825283818151815260200191508051906020019080838360005b8381101561012957808201518184015260208101905061010e565b50505050905090810190601f1680156101565780820380516001836020036101000a031916815260200191505b509250505060405180910390f35b600080600080606060008054600181600116156101000203166002900480601f0160208091040260200160405190810160405280929190818152602001828054600181600116156101000203166002900480156102025780601f106101d757610100808354040283529160200191610202565b820191906000526020600020905b8154815290600101906020018083116101e557829003601f168201915b505050505090506020810151935060408101519250606081015160001a9150601b8260ff16101561023457601b820191505b60606040805190810160405280601c81526020017f19457468657265756d205369676e6564204d6573736167653a0a333200000000815250905060006002828a73ffffffffffffffffffffffffffffffffffffffff166352a82b656040516020018080602001848463ffffffff1690640100000000021768010000000000000000028152602001828103825285818151815260200191508051906020019080838360005b838110156102f35780820151818401526020810190506102d8565b50505050905090810190601f1680156103205780820380516001836020036101000a031916815260200191505b509450505050506040516020818303038152906040526040518082805190602001908083835b60208310151561036b5780518252602082019150602081019050602083039250610346565b6001836020036101000a038019825116818451168082178552505050505050905001915050602060405180830381855afa1580156103ad573d6000803e3d6000fd5b5050506040513d60208110156103c257600080fd5b81019080805190602001909291905050509050601b8460ff1614806103ea5750601c8460ff16145b151561045e576040517f08c379a00000000000000000000000000000000000000000000000000000000081526004018080602001828103825260198152602001807f696e76616c6964207369676e61747572652076657273696f6e0000000000000081525060200191505060405180910390fd5b600060018286898960405160008152602001604052604051808581526020018460ff1660ff1681526020018381526020018281526020019450505050506020604051602081039080840390855afa1580156104bd573d6000803e3d6000fd5b505050602060405103519050600073ffffffffffffffffffffffffffffffffffffffff168173ffffffffffffffffffffffffffffffffffffffff161415151561056e576040517f08c379a00000000000000000000000000000000000000000000000000000000081526004018080602001828103825260198152602001807f7265636f76657265642061646472657373206973207a65726f0000000000000081525060200191505060405180910390fd5b8073ffffffffffffffffffffffffffffffffffffffff168973ffffffffffffffffffffffffffffffffffffffff161497505050505050505092915050565b60008054600181600116156101000203166002900480601f0160208091040260200160405190810160405280929190818152602001828054600181600116156101000203166002900480156106425780601f1061061757610100808354040283529160200191610642565b820191906000526020600020905b81548152906001019060200180831161062557829003601f168201915b50505050508156fea165627a7a723058203d4db58549e0b7be7ab35f033e639188835ffb9b7afe2267a652aa27989acdbf0029",
  "source": "pragma solidity >=0.5.1;\n\ncontract Pubkey {\n    uint8[64] public pubkey;\n\n    constructor(uint8[64] memory _pubkey) public {\n        require(_pubkey.length == 64);\n        pubkey = _pubkey;\n    }\n\n    function to_address() view public returns (address) {\n        return address(uint160(uint256(keccak256(abi.encode(pubkey)))));\n    }\n}\n\ncontract Sha256 {\n    bytes32 public digest;\n\n    constructor(bytes32 _hash) public {\n        digest = _hash;\n    }\n\n    function generate(bytes memory _input) public returns (Sha256){\n        digest = sha256(_input);\n        return this;\n    }\n}\n\ncontract Signature {\n    bytes public signature;\n\n    constructor(bytes memory _signature) public {\n        require(_signature.length == 65,\"invalid length of the given signature\");\n        signature = _signature;\n    }\n\n    function verify(Sha256 _hash, address _signer) public view returns (bool) {\n        bytes32 r;\n        bytes32 s;\n        uint8 v;\n\n        bytes memory sig = signature;\n\n        assembly {\n            r := mload(add(sig, 32))\n            s := mload(add(sig, 64))\n            v := byte(0, mload(add(sig, 96)))\n        }\n\n        if (v < 27) {\n            v += 27;\n        }\n\n        bytes memory prefix = \"\\x19Ethereum Signed Message:\\n32\";\n        bytes32 prefixedHash = sha256(abi.encode(prefix, _hash.digest));\n\n        require(v == 27 || v == 28, \"invalid signature version\");\n        address recovered_address = ecrecover(prefixedHash, v, r, s);\n        require(recovered_address != address(0x0), \"recovered address is zero\");\n\n        return _signer == recovered_address;\n    }\n}\n\n\ncontract Existence {\n    bool public flag;\n\n    constructor() public {\n        flag = false;\n    }\n\n    function add() public {\n        flag = true;\n    }\n\n    function del() public {\n        flag = false;\n    }\n}\n\n",
  "sourcePath": "/Users/suegamisora/GoogleDrive/projects/propagative_tee_contracts/contracts/primitive.sol",
  "compiler": {
    "name": "solc",
    "version": "0.5.1+commit.c8a2cb62.Emscripten.clang"
  },
  "schemaVersion": "3.0.9",
  "updatedAt": "2020-01-28T08:21:10.283Z",
  "devdoc": {
    "methods": {}
  },
  "userdoc": {
    "methods": {}
  }
}